{"contracts/FlashLoanArbitrageComplete.sol":{"FlashLoanArbitrageComplete":{"abi":[{"inputs":[{"internalType":"address","name":"_addressProvider","type":"address"},{"internalType":"address","name":"_usdc","type":"address"},{"internalType":"address","name":"_usdt","type":"address"},{"internalType":"address","name":"_trustedWallet","type":"address"}],"stateMutability":"nonpayable","type":"constructor"},{"inputs":[],"name":"EnforcedPause","type":"error"},{"inputs":[],"name":"ExpectedPause","type":"error"},{"inputs":[{"internalType":"address","name":"owner","type":"address"}],"name":"OwnableInvalidOwner","type":"error"},{"inputs":[{"internalType":"address","name":"account","type":"address"}],"name":"OwnableUnauthorizedAccount","type":"error"},{"inputs":[],"name":"ReentrancyGuardReentrantCall","type":"error"},{"anonymous":false,"inputs":[{"indexed":true,"internalType":"address","name":"user","type":"address"},{"indexed":true,"internalType":"address","name":"asset","type":"address"},{"indexed":false,"internalType":"uint256","name":"flashAmount","type":"uint256"},{"indexed":false,"internalType":"uint256","name":"profit","type":"uint256"},{"indexed":false,"internalType":"uint256","name":"userProfit","type":"uint256"},{"indexed":false,"internalType":"uint256","name":"platformFee","type":"uint256"},{"indexed":false,"internalType":"uint256","name":"gasUsed","type":"uint256"},{"indexed":false,"internalType":"uint256","name":"timestamp","type":"uint256"}],"name":"ArbitrageExecuted","type":"event"},{"anonymous":false,"inputs":[{"indexed":true,"internalType":"address","name":"dex","type":"address"},{"indexed":false,"internalType":"bool","name":"authorized","type":"bool"}],"name":"DEXAuthorized","type":"event"},{"anonymous":false,"inputs":[{"indexed":true,"internalType":"address","name":"user","type":"address"},{"indexed":true,"internalType":"address","name":"token","type":"address"},{"indexed":false,"internalType":"uint256","name":"amount","type":"uint256"},{"indexed":false,"internalType":"uint256","name":"shares","type":"uint256"},{"indexed":false,"internalType":"uint256","name":"timestamp","type":"uint256"}],"name":"Deposit","type":"event"},{"anonymous":false,"inputs":[{"indexed":true,"internalType":"address","name":"token","type":"address"},{"indexed":false,"internalType":"uint256","name":"amount","type":"uint256"},{"indexed":true,"internalType":"address","name":"to","type":"address"},{"indexed":false,"internalType":"string","name":"reason","type":"string"},{"indexed":false,"internalType":"uint256","name":"timestamp","type":"uint256"}],"name":"EmergencyWithdrawal","type":"event"},{"anonymous":false,"inputs":[{"indexed":true,"internalType":"address","name":"asset","type":"address"},{"indexed":false,"internalType":"uint256","name":"amount","type":"uint256"},{"indexed":false,"internalType":"uint256","name":"premium","type":"uint256"},{"indexed":true,"internalType":"address","name":"initiator","type":"address"},{"indexed":false,"internalType":"uint256","name":"timestamp","type":"uint256"}],"name":"FlashLoanExecuted","type":"event"},{"anonymous":false,"inputs":[{"indexed":true,"internalType":"address","name":"token","type":"address"},{"indexed":false,"internalType":"uint256","name":"oldMax","type":"uint256"},{"indexed":false,"internalType":"uint256","name":"newMax","type":"uint256"}],"name":"MaxDepositUpdated","type":"event"},{"anonymous":false,"inputs":[{"indexed":false,"internalType":"address[]","name":"assets","type":"address[]"},{"indexed":false,"internalType":"uint256[]","name":"amounts","type":"uint256[]"},{"indexed":false,"internalType":"uint256[]","name":"premiums","type":"uint256[]"},{"indexed":false,"internalType":"uint256","name":"totalProfit","type":"uint256"},{"indexed":false,"internalType":"uint256","name":"timestamp","type":"uint256"}],"name":"MultipleFlashLoanExecuted","type":"event"},{"anonymous":false,"inputs":[{"indexed":true,"internalType":"address","name":"previousOwner","type":"address"},{"indexed":true,"internalType":"address","name":"newOwner","type":"address"}],"name":"OwnershipTransferred","type":"event"},{"anonymous":false,"inputs":[{"indexed":false,"internalType":"address","name":"account","type":"address"}],"name":"Paused","type":"event"},{"anonymous":false,"inputs":[{"indexed":false,"internalType":"uint256","name":"period","type":"uint256"},{"indexed":false,"internalType":"uint256","name":"totalVolume","type":"uint256"},{"indexed":false,"internalType":"uint256","name":"totalProfit","type":"uint256"},{"indexed":false,"internalType":"uint256","name":"successfulTrades","type":"uint256"},{"indexed":false,"internalType":"uint256","name":"failedTrades","type":"uint256"},{"indexed":false,"internalType":"uint256","name":"averageAPR","type":"uint256"}],"name":"PerformanceReport","type":"event"},{"anonymous":false,"inputs":[{"indexed":false,"internalType":"uint256","name":"oldFee","type":"uint256"},{"indexed":false,"internalType":"uint256","name":"newFee","type":"uint256"}],"name":"PlatformFeeUpdated","type":"event"},{"anonymous":false,"inputs":[{"indexed":false,"internalType":"uint256","name":"totalProfit","type":"uint256"},{"indexed":false,"internalType":"uint256","name":"platformShare","type":"uint256"},{"indexed":false,"internalType":"uint256","name":"userShare","type":"uint256"},{"indexed":false,"internalType":"uint256","name":"timestamp","type":"uint256"}],"name":"ProfitDistributed","type":"event"},{"anonymous":false,"inputs":[{"indexed":true,"internalType":"address","name":"token","type":"address"},{"indexed":false,"internalType":"bool","name":"authorized","type":"bool"}],"name":"TokenAuthorized","type":"event"},{"anonymous":false,"inputs":[{"indexed":true,"internalType":"address","name":"oldWallet","type":"address"},{"indexed":true,"internalType":"address","name":"newWallet","type":"address"}],"name":"TrustedWalletSet","type":"event"},{"anonymous":false,"inputs":[{"indexed":false,"internalType":"address","name":"account","type":"address"}],"name":"Unpaused","type":"event"},{"anonymous":false,"inputs":[{"indexed":true,"internalType":"address","name":"user","type":"address"},{"indexed":true,"internalType":"address","name":"token","type":"address"},{"indexed":false,"internalType":"uint256","name":"amount","type":"uint256"},{"indexed":false,"internalType":"uint256","name":"shares","type":"uint256"},{"indexed":false,"internalType":"uint256","name":"timestamp","type":"uint256"}],"name":"Withdrawal","type":"event"},{"stateMutability":"payable","type":"fallback"},{"inputs":[],"name":"ADDRESSES_PROVIDER","outputs":[{"internalType":"contract IPoolAddressesProvider","name":"","type":"address"}],"stateMutability":"view","type":"function"},{"inputs":[],"name":"MAX_BPS","outputs":[{"internalType":"uint256","name":"","type":"uint256"}],"stateMutability":"view","type":"function"},{"inputs":[],"name":"POOL","outputs":[{"internalType":"contract IPool","name":"","type":"address"}],"stateMutability":"view","type":"function"},{"inputs":[],"name":"USDC","outputs":[{"internalType":"address","name":"","type":"address"}],"stateMutability":"view","type":"function"},{"inputs":[],"name":"USDT","outputs":[{"internalType":"address","name":"","type":"address"}],"stateMutability":"view","type":"function"},{"inputs":[{"components":[{"internalType":"address","name":"tokenA","type":"address"},{"internalType":"address","name":"tokenB","type":"address"},{"internalType":"address","name":"dexRouter1","type":"address"},{"internalType":"address","name":"dexRouter2","type":"address"},{"internalType":"uint256","name":"amountIn","type":"uint256"},{"internalType":"uint256","name":"minProfitBps","type":"uint256"},{"internalType":"bool","name":"reverseDirection","type":"bool"},{"internalType":"uint256","name":"maxSlippage","type":"uint256"},{"internalType":"uint256","name":"deadline","type":"uint256"}],"internalType":"struct FlashLoanArbitrageComplete.ArbitrageParams","name":"params","type":"tuple"},{"internalType":"uint256","name":"amount","type":"uint256"}],"name":"_executeSwaps","outputs":[],"stateMutability":"nonpayable","type":"function"},{"inputs":[{"components":[{"internalType":"address","name":"tokenA","type":"address"},{"internalType":"address","name":"tokenB","type":"address"},{"internalType":"address","name":"dexRouter1","type":"address"},{"internalType":"address","name":"dexRouter2","type":"address"},{"internalType":"uint256","name":"amountIn","type":"uint256"},{"internalType":"uint256","name":"minProfitBps","type":"uint256"},{"internalType":"bool","name":"reverseDirection","type":"bool"},{"internalType":"uint256","name":"maxSlippage","type":"uint256"},{"internalType":"uint256","name":"deadline","type":"uint256"}],"internalType":"struct FlashLoanArbitrageComplete.ArbitrageParams","name":"params","type":"tuple"}],"name":"_simulateArbitrage","outputs":[{"internalType":"uint256","name":"profit","type":"uint256"}],"stateMutability":"view","type":"function"},{"inputs":[{"internalType":"address","name":"","type":"address"}],"name":"authorizedDEXs","outputs":[{"internalType":"bool","name":"","type":"bool"}],"stateMutability":"view","type":"function"},{"inputs":[{"internalType":"address","name":"","type":"address"}],"name":"authorizedTokens","outputs":[{"internalType":"bool","name":"","type":"bool"}],"stateMutability":"view","type":"function"},{"inputs":[{"components":[{"internalType":"address","name":"tokenA","type":"address"},{"internalType":"address","name":"tokenB","type":"address"},{"internalType":"address","name":"dexRouter1","type":"address"},{"internalType":"address","name":"dexRouter2","type":"address"},{"internalType":"uint256","name":"amountIn","type":"uint256"},{"internalType":"uint256","name":"minProfitBps","type":"uint256"},{"internalType":"bool","name":"reverseDirection","type":"bool"},{"internalType":"uint256","name":"maxSlippage","type":"uint256"},{"internalType":"uint256","name":"deadline","type":"uint256"}],"internalType":"struct FlashLoanArbitrageComplete.ArbitrageParams","name":"params","type":"tuple"}],"name":"calculateExpectedProfit","outputs":[{"internalType":"uint256","name":"expectedProfit","type":"uint256"}],"stateMutability":"view","type":"function"},{"inputs":[{"internalType":"uint256","name":"profit","type":"uint256"}],"name":"calculateFees","outputs":[{"internalType":"uint256","name":"platformFee","type":"uint256"},{"internalType":"uint256","name":"trustedWalletFee","type":"uint256"},{"internalType":"uint256","name":"userProfit","type":"uint256"}],"stateMutability":"view","type":"function"},{"inputs":[{"internalType":"address","name":"token","type":"address"},{"internalType":"uint256","name":"amount","type":"uint256"}],"name":"calculateShares","outputs":[{"internalType":"uint256","name":"shares","type":"uint256"}],"stateMutability":"view","type":"function"},{"inputs":[{"internalType":"address","name":"token","type":"address"},{"internalType":"uint256","name":"amount","type":"uint256"}],"name":"deposit","outputs":[],"stateMutability":"nonpayable","type":"function"},{"inputs":[],"name":"emergencyStop","outputs":[{"internalType":"bool","name":"","type":"bool"}],"stateMutability":"view","type":"function"},{"inputs":[{"components":[{"internalType":"address","name":"tokenA","type":"address"},{"internalType":"address","name":"tokenB","type":"address"},{"internalType":"address","name":"dexRouter1","type":"address"},{"internalType":"address","name":"dexRouter2","type":"address"},{"internalType":"uint256","name":"amountIn","type":"uint256"},{"internalType":"uint256","name":"minProfitBps","type":"uint256"},{"internalType":"bool","name":"reverseDirection","type":"bool"},{"internalType":"uint256","name":"maxSlippage","type":"uint256"},{"internalType":"uint256","name":"deadline","type":"uint256"}],"internalType":"struct FlashLoanArbitrageComplete.ArbitrageParams","name":"params","type":"tuple"}],"name":"executeArbitrage","outputs":[],"stateMutability":"nonpayable","type":"function"},{"inputs":[{"internalType":"address","name":"asset","type":"address"},{"internalType":"uint256","name":"amount","type":"uint256"},{"internalType":"uint256","name":"premium","type":"uint256"},{"internalType":"address","name":"initiator","type":"address"},{"internalType":"bytes","name":"params","type":"bytes"}],"name":"executeOperation","outputs":[{"internalType":"bool","name":"","type":"bool"}],"stateMutability":"nonpayable","type":"function"},{"inputs":[],"name":"getPoolMetrics","outputs":[{"components":[{"internalType":"uint256","name":"totalUSDCDeposits","type":"uint256"},{"internalType":"uint256","name":"totalUSDTDeposits","type":"uint256"},{"internalType":"uint256","name":"totalUSDCShares","type":"uint256"},{"internalType":"uint256","name":"totalUSDTShares","type":"uint256"},{"internalType":"uint256","name":"totalProfits","type":"uint256"},{"internalType":"uint256","name":"totalVolume","type":"uint256"},{"internalType":"uint256","name":"successfulTrades","type":"uint256"},{"internalType":"uint256","name":"failedTrades","type":"uint256"},{"internalType":"uint256","name":"lastUpdateTime","type":"uint256"}],"internalType":"struct FlashLoanArbitrageComplete.PoolMetrics","name":"","type":"tuple"}],"stateMutability":"view","type":"function"},{"inputs":[{"internalType":"address","name":"user","type":"address"}],"name":"getUserPosition","outputs":[{"components":[{"internalType":"uint256","name":"usdcShares","type":"uint256"},{"internalType":"uint256","name":"usdtShares","type":"uint256"},{"internalType":"uint256","name":"totalDeposited","type":"uint256"},{"internalType":"uint256","name":"totalWithdrawn","type":"uint256"},{"internalType":"uint256","name":"totalProfits","type":"uint256"},{"internalType":"uint256","name":"lastDepositTime","type":"uint256"},{"internalType":"uint256","name":"depositCount","type":"uint256"},{"internalType":"uint256","name":"withdrawalCount","type":"uint256"}],"internalType":"struct FlashLoanArbitrageComplete.UserPosition","name":"","type":"tuple"}],"stateMutability":"view","type":"function"},{"inputs":[],"name":"lastReportTime","outputs":[{"internalType":"uint256","name":"","type":"uint256"}],"stateMutability":"view","type":"function"},{"inputs":[{"internalType":"address","name":"","type":"address"}],"name":"maxDepositAmounts","outputs":[{"internalType":"uint256","name":"","type":"uint256"}],"stateMutability":"view","type":"function"},{"inputs":[],"name":"maxFlashLoanAmount","outputs":[{"internalType":"uint256","name":"","type":"uint256"}],"stateMutability":"view","type":"function"},{"inputs":[],"name":"minDepositAmount","outputs":[{"internalType":"uint256","name":"","type":"uint256"}],"stateMutability":"view","type":"function"},{"inputs":[],"name":"owner","outputs":[{"internalType":"address","name":"","type":"address"}],"stateMutability":"view","type":"function"},{"inputs":[{"internalType":"address","name":"token","type":"address"},{"internalType":"uint256","name":"amount","type":"uint256"},{"internalType":"address","name":"to","type":"address"}],"name":"ownerWithdraw","outputs":[],"stateMutability":"nonpayable","type":"function"},{"inputs":[],"name":"paused","outputs":[{"internalType":"bool","name":"","type":"bool"}],"stateMutability":"view","type":"function"},{"inputs":[],"name":"platformFeeBps","outputs":[{"internalType":"uint256","name":"","type":"uint256"}],"stateMutability":"view","type":"function"},{"inputs":[],"name":"poolMetrics","outputs":[{"internalType":"uint256","name":"totalUSDCDeposits","type":"uint256"},{"internalType":"uint256","name":"totalUSDTDeposits","type":"uint256"},{"internalType":"uint256","name":"totalUSDCShares","type":"uint256"},{"internalType":"uint256","name":"totalUSDTShares","type":"uint256"},{"internalType":"uint256","name":"totalProfits","type":"uint256"},{"internalType":"uint256","name":"totalVolume","type":"uint256"},{"internalType":"uint256","name":"successfulTrades","type":"uint256"},{"internalType":"uint256","name":"failedTrades","type":"uint256"},{"internalType":"uint256","name":"lastUpdateTime","type":"uint256"}],"stateMutability":"view","type":"function"},{"inputs":[],"name":"renounceOwnership","outputs":[],"stateMutability":"nonpayable","type":"function"},{"inputs":[],"name":"reportingPeriod","outputs":[{"internalType":"uint256","name":"","type":"uint256"}],"stateMutability":"view","type":"function"},{"inputs":[{"internalType":"address","name":"dex","type":"address"},{"internalType":"bool","name":"authorized","type":"bool"}],"name":"setDEXAuthorization","outputs":[],"stateMutability":"nonpayable","type":"function"},{"inputs":[{"internalType":"address","name":"token","type":"address"},{"internalType":"bool","name":"authorized","type":"bool"}],"name":"setTokenAuthorization","outputs":[],"stateMutability":"nonpayable","type":"function"},{"inputs":[{"internalType":"address","name":"_trustedWallet","type":"address"}],"name":"setTrustedWallet","outputs":[],"stateMutability":"nonpayable","type":"function"},{"inputs":[],"name":"toggleEmergencyStop","outputs":[],"stateMutability":"nonpayable","type":"function"},{"inputs":[{"internalType":"address","name":"newOwner","type":"address"}],"name":"transferOwnership","outputs":[],"stateMutability":"nonpayable","type":"function"},{"inputs":[],"name":"trustedWallet","outputs":[{"internalType":"address","name":"","type":"address"}],"stateMutability":"view","type":"function"},{"inputs":[],"name":"trustedWalletFeeBps","outputs":[{"internalType":"uint256","name":"","type":"uint256"}],"stateMutability":"view","type":"function"},{"inputs":[{"internalType":"address","name":"token","type":"address"},{"internalType":"uint256","name":"amount","type":"uint256"}],"name":"trustedWalletWithdraw","outputs":[],"stateMutability":"nonpayable","type":"function"},{"inputs":[{"internalType":"uint256","name":"_platformFeeBps","type":"uint256"},{"internalType":"uint256","name":"_trustedWalletFeeBps","type":"uint256"}],"name":"updateFees","outputs":[],"stateMutability":"nonpayable","type":"function"},{"inputs":[{"internalType":"address","name":"","type":"address"}],"name":"userPositions","outputs":[{"internalType":"uint256","name":"usdcShares","type":"uint256"},{"internalType":"uint256","name":"usdtShares","type":"uint256"},{"internalType":"uint256","name":"totalDeposited","type":"uint256"},{"internalType":"uint256","name":"totalWithdrawn","type":"uint256"},{"internalType":"uint256","name":"totalProfits","type":"uint256"},{"internalType":"uint256","name":"lastDepositTime","type":"uint256"},{"internalType":"uint256","name":"depositCount","type":"uint256"},{"internalType":"uint256","name":"withdrawalCount","type":"uint256"}],"stateMutability":"view","type":"function"},{"inputs":[{"internalType":"address","name":"token","type":"address"},{"internalType":"uint256","name":"shares","type":"uint256"}],"name":"withdraw","outputs":[],"stateMutability":"nonpayable","type":"function"},{"stateMutability":"payable","type":"receive"}],"evm":{"bytecode":{"linkReferences":{},"object":"6101006040526064601155603260125564e8d4a510006013556305f5e1006014556015805460ff19169055620151806017553480156200003e57600080fd5b50604051620041f6380380620041f6833981016040819052620000619162000292565b3384806001600160a01b03166080816001600160a01b031681525050806001600160a01b031663026b1d5f6040518163ffffffff1660e01b8152600401602060405180830381865afa158015620000bc573d6000803e3d6000fd5b505050506040513d601f19601f82011682018060405250810190620000e29190620002ef565b6001600160a01b0390811660a052821690506200011957604051631e4fbdf760e01b81526000600482015260240160405180910390fd5b620001248162000225565b5060018080556001600160a01b0393841660c081905292841660e0819052600780546001600160a01b03191693909516929092179093556000828152600460209081526040808320805460ff1990811688179091558484528184208054821688179055948352600682528083206509184e72a0009081905593835282209290925560059091527f6b06d1b1436148b0ed3f9ed42b441d0872c0b0013efd7d640e17eda5f965b2a08054831684179055731b02da8cb0d097eb8d57a175b88c7d8b4799750690527f7fc1519b5bbe4fa8fdfab567d9bd97af5435a3186f82d704dce933f5bc455c1f805490911690911790555042601081905560165562000314565b600080546001600160a01b038381166001600160a01b0319831681178455604051919092169283917f8be0079c531659141344cd1fd0a4f28419497f9722a3daafe3b4186f6b6457e09190a35050565b80516001600160a01b03811681146200028d57600080fd5b919050565b60008060008060808587031215620002a957600080fd5b620002b48562000275565b9350620002c46020860162000275565b9250620002d46040860162000275565b9150620002e46060860162000275565b905092959194509250565b6000602082840312156200030257600080fd5b6200030d8262000275565b9392505050565b60805160a05160c05160e051613e626200039460003960008181610822015281816114560152818161239c0152612521015260008181610714015281816113d801528181612331015281816124ea01526127130152600081816106c001528181610cf101528181611a080152612e76015260006102f30152613e626000f3fe60806040526004361061023f5760003560e01c806374b3371f1161012e578063a90b538e116100ab578063ebbf06711161006f578063ebbf0671146108aa578063f2fde38b146108c0578063f3fef3a3146108e0578063fcecc4df14610900578063fd967f471461097b57610246565b8063a90b538e146107fa578063c54e44eb14610810578063c61f01d214610844578063e0115d0d14610874578063e6fc7afe1461088a57610246565b80638da5cb5b116100f25780638da5cb5b1461075657806396fbdc43146107745780639bc7c586146107945780639c747c85146107c4578063a140edb4146107e457610246565b806374b3371f1461068e5780637535d246146106ae578063804f7b6f146106e257806389a302711461070257806389a56b2f1461073657610246565b8063570d2f8f116101bc57806363a599a41161018057806363a599a4146105fc578063645006ca146106165780636db794371461062c578063715018a61461064c5780637416b8e71461066157610246565b8063570d2f8f146104855780635b7c2dad146104a55780635c975abb14610526578063613cf4201461053e5780636275aff8146105dc57610246565b806322dcd13e1161020357806322dcd13e146103df57806343790763146103f557806347e7ef24146104155780634b7aac941461043557806352238fdd1461044a57610246565b8063023639be1461028c578063044edc3c146102bf5780630542975c146102e15780631866509f1461032d5780631b11d0ff146103af57610246565b3661024657005b60405162461bcd60e51b8152602060048201526016602482015275466f6e6374696f6e206e6f6e20737570706f7274656560501b60448201526064015b60405180910390fd5b34801561029857600080fd5b506102ac6102a73660046133af565b610991565b6040519081526020015b60405180910390f35b3480156102cb57600080fd5b506102df6102da3660046133d9565b610a07565b005b3480156102ed57600080fd5b506103157f000000000000000000000000000000000000000000000000000000000000000081565b6040516001600160a01b0390911681526020016102b6565b34801561033957600080fd5b50610342610c3e565b6040516102b69190600061012082019050825182526020830151602083015260408301516040830152606083015160608301526080830151608083015260a083015160a083015260c083015160c083015260e083015160e083015261010080840151818401525092915050565b3480156103bb57600080fd5b506103cf6103ca366004613415565b610ce4565b60405190151581526020016102b6565b3480156103eb57600080fd5b506102ac60115481565b34801561040157600080fd5b506102df6104103660046134bb565b610e59565b34801561042157600080fd5b506102df6104303660046134bb565b6110f6565b34801561044157600080fd5b506102df611576565b34801561045657600080fd5b5061046a6104653660046134e5565b6115ab565b604080519384526020840192909252908201526060016102b6565b34801561049157600080fd5b50600754610315906001600160a01b031681565b3480156104b157600080fd5b506104c56104c03660046134fe565b611607565b6040516102b69190600061010082019050825182526020830151602083015260408301516040830152606083015160608301526080830151608083015260a083015160a083015260c083015160c083015260e083015160e083015292915050565b34801561053257600080fd5b5060025460ff166103cf565b34801561054a57600080fd5b506105a16105593660046134fe565b60036020528060005260406000206000915090508060000154908060010154908060020154908060030154908060040154908060050154908060060154908060070154905088565b604080519889526020890197909752958701949094526060860192909252608085015260a084015260c083015260e0820152610100016102b6565b3480156105e857600080fd5b506102df6105f73660046133af565b6116c5565b34801561060857600080fd5b506015546103cf9060ff1681565b34801561062257600080fd5b506102ac60145481565b34801561063857600080fd5b506102df610647366004613520565b611aa7565b34801561065857600080fd5b506102df611b49565b34801561066d57600080fd5b506102ac61067c3660046134fe565b60066020526000908152604090205481565b34801561069a57600080fd5b506102ac6106a93660046133af565b611b5b565b3480156106ba57600080fd5b506103157f000000000000000000000000000000000000000000000000000000000000000081565b3480156106ee57600080fd5b506102df6106fd36600461355b565b6120d8565b34801561070e57600080fd5b506103157f000000000000000000000000000000000000000000000000000000000000000081565b34801561074257600080fd5b506102df6107513660046134fe565b612140565b34801561076257600080fd5b506000546001600160a01b0316610315565b34801561078057600080fd5b506102df61078f36600461355b565b6121e3565b3480156107a057600080fd5b506103cf6107af3660046134fe565b60046020526000908152604090205460ff1681565b3480156107d057600080fd5b506102df6107df3660046136c2565b612243565b3480156107f057600080fd5b506102ac60135481565b34801561080657600080fd5b506102ac60175481565b34801561081c57600080fd5b506103157f000000000000000000000000000000000000000000000000000000000000000081565b34801561085057600080fd5b506103cf61085f3660046134fe565b60056020526000908152604090205460ff1681565b34801561088057600080fd5b506102ac60165481565b34801561089657600080fd5b506102ac6108a53660046134bb565b61232d565b3480156108b657600080fd5b506102ac60125481565b3480156108cc57600080fd5b506102df6108db3660046134fe565b612431565b3480156108ec57600080fd5b506102df6108fb3660046134bb565b61246c565b34801561090c57600080fd5b50600854600954600a54600b54600c54600d54600e54600f5460105461093798979695949392919089565b60408051998a5260208a0198909852968801959095526060870193909352608086019190915260a085015260c084015260e0830152610100820152610120016102b6565b34801561098757600080fd5b506102ac61271081565b6040516374b3371f60e01b815260009030906374b3371f906109b79085906004016136ef565b602060405180830381865afa9250505080156109f0575060408051601f3d908101601f191682019092526109ed91810190613796565b60015b6109fc57506000919050565b92915050565b919050565b610a0f612911565b8160008111610a305760405162461bcd60e51b8152600401610283906137af565b6001600160a01b038216610a795760405162461bcd60e51b815260206004820152601060248201526f4164726573736520696e76616c69646560801b6044820152606401610283565b6040516370a0823160e01b81523060048201526000906001600160a01b038616906370a0823190602401602060405180830381865afa158015610ac0573d6000803e3d6000fd5b505050506040513d601f19601f82011682018060405250810190610ae49190613796565b905080841115610b2a5760405162461bcd60e51b815260206004820152601160248201527014dbdb1919481a5b9cdd59999a5cd85b9d607a1b6044820152606401610283565b60405163a9059cbb60e01b81526001600160a01b0384811660048301526024820186905286169063a9059cbb906044016020604051808303816000875af1158015610b79573d6000803e3d6000fd5b505050506040513d601f19601f82011682018060405250810190610b9d91906137d9565b610bb95760405162461bcd60e51b8152600401610283906137f6565b826001600160a01b0316856001600160a01b03167ff15709e6648c1e4bca994535d6d1bd2a88cd17ed5bcd5a187b2ad634720c75648642604051610c2f9291909182526060602083018190526010908301526f13dddb995c881dda5d1a191c985dd85b60821b6080830152604082015260a00190565b60405180910390a35050505050565b610c8d6040518061012001604052806000815260200160008152602001600081526020016000815260200160008152602001600081526020016000815260200160008152602001600081525090565b50604080516101208101825260085481526009546020820152600a5491810191909152600b546060820152600c546080820152600d5460a0820152600e5460c0820152600f5460e082015260105461010082015290565b6000336001600160a01b037f00000000000000000000000000000000000000000000000000000000000000001614610d565760405162461bcd60e51b8152602060048201526015602482015274417070656c616e74206e6f6e206175746f7269736560581b6044820152606401610283565b6001600160a01b0384163014610dae5760405162461bcd60e51b815260206004820152601760248201527f496e6974696174657572206e6f6e206175746f726973650000000000000000006044820152606401610283565b60005a90506000610dc184860186613911565b905060008160600151600003610de0578151610ddd908a61293e565b90505b610df28a8a8a84866020015188612b47565b602080830151604080518c81529283018b905242908301526001600160a01b0390811691908c16907f186b20b8e4dd95aa0c31ca25f084a84c19a2ea03c593bc299b023784d389ba9d9060600160405180910390a3600193505050505b9695505050505050565b8060008111610e7a5760405162461bcd60e51b8152600401610283906137af565b6007546001600160a01b03163314610ed45760405162461bcd60e51b815260206004820152601b60248201527f5365756c206c652077616c6c657420646520636f6e6669616e636500000000006044820152606401610283565b6007546001600160a01b0316610f2c5760405162461bcd60e51b815260206004820152601e60248201527f57616c6c657420646520636f6e6669616e6365206e6f6e20646566696e6900006044820152606401610283565b6040516370a0823160e01b81523060048201526000906001600160a01b038516906370a0823190602401602060405180830381865afa158015610f73573d6000803e3d6000fd5b505050506040513d601f19601f82011682018060405250810190610f979190613796565b905080831115610fdd5760405162461bcd60e51b815260206004820152601160248201527014dbdb1919481a5b9cdd59999a5cd85b9d607a1b6044820152606401610283565b60075460405163a9059cbb60e01b81526001600160a01b039182166004820152602481018590529085169063a9059cbb906044016020604051808303816000875af1158015611030573d6000803e3d6000fd5b505050506040513d601f19601f8201168201806040525081019061105491906137d9565b6110705760405162461bcd60e51b8152600401610283906137f6565b600754604080518581526060602082018190526019908201527f547275737465642077616c6c6574207769746864726177616c000000000000006080820152428183015290516001600160a01b03928316928716917ff15709e6648c1e4bca994535d6d1bd2a88cd17ed5bcd5a187b2ad634720c7564919081900360a00190a350505050565b6110fe61300a565b611106613034565b60155460ff161561114f5760405162461bcd60e51b81526020600482015260136024820152724d6f646520757267656e63652061637469766560681b6044820152606401610283565b6001600160a01b038216600090815260046020526040902054829060ff166111895760405162461bcd60e51b8152600401610283906139df565b81600081116111aa5760405162461bcd60e51b8152600401610283906137af565b6014548310156111fc5760405162461bcd60e51b815260206004820152601c60248201527f4d6f6e74616e7420696e66657269657572206175206d696e696d756d000000006044820152606401610283565b6001600160a01b0384166000908152600660205260409020548311156112645760405162461bcd60e51b815260206004820152601c60248201527f4d6f6e74616e7420737570657269657572206175206d6178696d756d000000006044820152606401610283565b6000846001600160a01b031663313ce5676040518163ffffffff1660e01b8152600401602060405180830381865afa1580156112a4573d6000803e3d6000fd5b505050506040513d601f19601f820116820180604052508101906112c89190613a0b565b90508060ff1660061461131d5760405162461bcd60e51b815260206004820152601c60248201527f546f6b656e20646f69742061766f6972203620646563696d616c6573000000006044820152606401610283565b6040516323b872dd60e01b8152336004820152306024820152604481018590526001600160a01b038616906323b872dd906064016020604051808303816000875af1158015611370573d6000803e3d6000fd5b505050506040513d601f19601f8201168201806040525081019061139491906137d9565b6113b05760405162461bcd60e51b8152600401610283906137f6565b60006113bc868661232d565b3360009081526003602052604090209091506001600160a01b037f000000000000000000000000000000000000000000000000000000000000000081169088160361145457818160000160008282546114159190613a44565b90915550506008805487919060009061142f908490613a44565b9091555050600a8054839190600090611449908490613a44565b909155506114db9050565b7f00000000000000000000000000000000000000000000000000000000000000006001600160a01b0316876001600160a01b0316036114db57818160010160008282546114a19190613a44565b9091555050600980548791906000906114bb908490613a44565b9091555050600b80548391906000906114d5908490613a44565b90915550505b858160020160008282546114ef9190613a44565b909155505042600582015560068101805490600061150c83613a57565b9091555050426010819055604080518881526020810185905280820192909252516001600160a01b0389169133917f4e2ca0515ed1aef1395f66b5303bb5d6f1bf9d61a353fa53f73f8ac9973fa9f69181900360600190a3505050505061157260018055565b5050565b61157e612911565b6015805460ff19811660ff9182161590811790925516156115a3576115a1613058565b565b6115a16130b2565b6000806000612710601154856115c19190613a70565b6115cb9190613a87565b9250612710601254856115de9190613a70565b6115e89190613a87565b9150816115f58486613aa9565b6115ff9190613aa9565b929491935050565b61164f60405180610100016040528060008152602001600081526020016000815260200160008152602001600081526020016000815260200160008152602001600081525090565b506001600160a01b03166000908152600360208181526040928390208351610100810185528154815260018201549281019290925260028101549382019390935290820154606082015260048201546080820152600582015460a0820152600682015460c082015260079091015460e082015290565b6116cd61300a565b6116d5613034565b60155460ff161561171e5760405162461bcd60e51b81526020600482015260136024820152724d6f646520757267656e63652061637469766560681b6044820152606401610283565b61172b60208201826134fe565b6001600160a01b03811660009081526004602052604090205460ff166117635760405162461bcd60e51b8152600401610283906139df565b61177360608301604084016134fe565b6001600160a01b03811660009081526005602052604090205460ff166117ce5760405162461bcd60e51b815260206004820152601060248201526f444558206e6f6e206175746f7269736560801b6044820152606401610283565b6117de60808401606085016134fe565b6001600160a01b03811660009081526005602052604090205460ff166118395760405162461bcd60e51b815260206004820152601060248201526f444558206e6f6e206175746f7269736560801b6044820152606401610283565b601354846080013511156118845760405162461bcd60e51b81526020600482015260126024820152714d6f6e74616e742074726f7020656c65766560701b6044820152606401610283565b600a8460a0013510156118d95760405162461bcd60e51b815260206004820152601a60248201527f50726f666974206d696e696d756d2074726f7020666169626c650000000000006044820152606401610283565b42846101000135116119205760405162461bcd60e51b815260206004820152601060248201526f446561646c696e65206578706972656560801b6044820152606401610283565b600061192b85610991565b90506000811161197d5760405162461bcd60e51b815260206004820152601860248201527f417262697472616765206e6f6e2070726f66697461626c6500000000000000006044820152606401610283565b60006040518060c001604052808780360381019061199b9190613abc565b81523360208083019190915260408083018690526000606084018190528151818152808401835260808501528151818152808401835260a0909401939093525192935090916119ec91849101613b87565b60408051601f1981840301815291905290506001600160a01b037f0000000000000000000000000000000000000000000000000000000000000000166342b0b77c30611a3b60208b018b6134fe565b8a608001358560006040518663ffffffff1660e01b8152600401611a63959493929190613c3d565b600060405180830381600087803b158015611a7d57600080fd5b505af1158015611a91573d6000803e3d6000fd5b50505050505050505050611aa460018055565b50565b611aaf612911565b6103e8611abc8284613a44565b1115611afe5760405162461bcd60e51b815260206004820152601160248201527046726169732074726f7020656c6576657360781b6044820152606401610283565b6011805490839055601282905560408051828152602081018590527fd347e206f25a89b917fc9482f1a2d294d749baa4dc9bde7fb495ee11fe491643910160405180910390a1505050565b611b51612911565b6115a160006130eb565b60408051600280825260608201835260009283929190602083019080368337019050509050611b9060e0840160c08501613cb5565b611e3557611ba160208401846134fe565b81600081518110611bb457611bb4613cd2565b6001600160a01b03909216602092830291909101820152611bdb90604085019085016134fe565b81600181518110611bee57611bee613cd2565b6001600160a01b03909216602092830291909101909101526000611c1860608501604086016134fe565b6001600160a01b031663d06ca61f8560800135846040518363ffffffff1660e01b8152600401611c49929190613d21565b600060405180830381865afa158015611c66573d6000803e3d6000fd5b505050506040513d6000823e601f3d908101601f19168201604052611c8e9190810190613d42565b90506000612710611ca360e087013582613aa9565b83600181518110611cb657611cb6613cd2565b6020026020010151611cc89190613a70565b611cd29190613a87565b9050611ce460408601602087016134fe565b83600081518110611cf757611cf7613cd2565b6001600160a01b03909216602092830291909101820152611d1a908601866134fe565b83600181518110611d2d57611d2d613cd2565b6001600160a01b03909216602092830291909101909101526000611d5760808701606088016134fe565b6001600160a01b031663d06ca61f83866040518363ffffffff1660e01b8152600401611d84929190613d21565b600060405180830381865afa158015611da1573d6000803e3d6000fd5b505050506040513d6000823e601f3d908101601f19168201604052611dc99190810190613d42565b90506000612710611dde60e089013582613aa9565b83600181518110611df157611df1613cd2565b6020026020010151611e039190613a70565b611e0d9190613a87565b90508660800135811115611e2c57611e29608088013582613aa9565b95505b505050506120d2565b611e4260208401846134fe565b81600081518110611e5557611e55613cd2565b6001600160a01b03909216602092830291909101820152611e7c90604085019085016134fe565b81600181518110611e8f57611e8f613cd2565b6001600160a01b03909216602092830291909101909101526000611eb960808501606086016134fe565b6001600160a01b031663d06ca61f8560800135846040518363ffffffff1660e01b8152600401611eea929190613d21565b600060405180830381865afa158015611f07573d6000803e3d6000fd5b505050506040513d6000823e601f3d908101601f19168201604052611f2f9190810190613d42565b90506000612710611f4460e087013582613aa9565b83600181518110611f5757611f57613cd2565b6020026020010151611f699190613a70565b611f739190613a87565b9050611f8560408601602087016134fe565b83600081518110611f9857611f98613cd2565b6001600160a01b03909216602092830291909101820152611fbb908601866134fe565b83600181518110611fce57611fce613cd2565b6001600160a01b03909216602092830291909101909101526000611ff860608701604088016134fe565b6001600160a01b031663d06ca61f83866040518363ffffffff1660e01b8152600401612025929190613d21565b600060405180830381865afa158015612042573d6000803e3d6000fd5b505050506040513d6000823e601f3d908101601f1916820160405261206a9190810190613d42565b9050600061271061207f60e089013582613aa9565b8360018151811061209257612092613cd2565b60200260200101516120a49190613a70565b6120ae9190613a87565b905086608001358111156120cd576120ca608088013582613aa9565b95505b505050505b50919050565b6120e0612911565b6001600160a01b038216600081815260046020908152604091829020805460ff191685151590811790915591519182527fdcef1c68f04eb69ace296de06030dc89d1110f7d56bca60edf1b83d9f402078b91015b60405180910390a25050565b612148612911565b6001600160a01b0381166121915760405162461bcd60e51b815260206004820152601060248201526f4164726573736520696e76616c69646560801b6044820152606401610283565b600780546001600160a01b038381166001600160a01b0319831681179093556040519116919082907f823d6745ed2e150ff1aeadf0bd2e0f9be0df856118e01fdfe1259434e97bf4f390600090a35050565b6121eb612911565b6001600160a01b038216600081815260056020908152604091829020805460ff191685151590811790915591519182527f683172df0051f1948f47d4aa064f9466f2fb2fb5053af387f29e2cce3db8a05b9101612134565b33301461228a5760405162461bcd60e51b8152602060048201526015602482015274417070656c616e74206e6f6e206175746f7269736560581b6044820152606401610283565b8160c001516122e35760006122b8836040015184600001518560200151858760e0015188610100015161313b565b90506122dd836060015184602001518560000151848760e0015188610100015161313b565b50505050565b6000612308836060015184600001518560200151858760e0015188610100015161313b565b90506122dd836040015184602001518560000151848760e0015188610100015161313b565b60007f00000000000000000000000000000000000000000000000000000000000000006001600160a01b0316836001600160a01b03160361239a57600a546000036123795750806109fc565b600854600a546123899084613a70565b6123939190613a87565b90506109fc565b7f00000000000000000000000000000000000000000000000000000000000000006001600160a01b0316836001600160a01b0316036123f457600b546000036123e45750806109fc565b600954600b546123899084613a70565b60405162461bcd60e51b8152602060048201526012602482015271546f6b656e206e6f6e20737570706f72746560701b6044820152606401610283565b612439612911565b6001600160a01b03811661246357604051631e4fbdf760e01b815260006004820152602401610283565b611aa4816130eb565b61247461300a565b6001600160a01b038216600090815260046020526040902054829060ff166124ae5760405162461bcd60e51b8152600401610283906139df565b81600081116124cf5760405162461bcd60e51b8152600401610283906137af565b33600090815260036020526040812090806001600160a01b037f000000000000000000000000000000000000000000000000000000000000000081169088160361251f5750508054600a54612563565b7f00000000000000000000000000000000000000000000000000000000000000006001600160a01b0316876001600160a01b0316036123f45750506001810154600b545b818611156125a95760405162461bcd60e51b8152602060048201526013602482015272506172747320696e737566666973616e74657360681b6044820152606401610283565b600081116125f95760405162461bcd60e51b815260206004820152601a60248201527f417563756e65207061727420656e2063697263756c6174696f6e0000000000006044820152606401610283565b6040516370a0823160e01b81523060048201526000906001600160a01b038916906370a0823190602401602060405180830381865afa158015612640573d6000803e3d6000fd5b505050506040513d601f19601f820116820180604052508101906126649190613796565b9050600082612673838a613a70565b61267d9190613a87565b9050600081116126c85760405162461bcd60e51b8152602060048201526016602482015275135bdb9d185b9d081919481c995d1c985a5d081b9d5b60521b6044820152606401610283565b818111156127115760405162461bcd60e51b81526020600482015260166024820152754c697175696469746520696e737566666973616e746560501b6044820152606401610283565b7f00000000000000000000000000000000000000000000000000000000000000006001600160a01b0316896001600160a01b0316036127a3578785600001600082825461275e9190613aa9565b9091555050600a8054899190600090612778908490613aa9565b9091555050600854811061278d57600061279b565b60085461279b908290613aa9565b6008556127f8565b878560010160008282546127b79190613aa9565b9091555050600b80548991906000906127d1908490613aa9565b909155505060095481106127e65760006127f4565b6009546127f4908290613aa9565b6009555b8085600301600082825461280c9190613a44565b909155505060078501805490600061282383613a57565b909155505060405163a9059cbb60e01b8152336004820152602481018290526001600160a01b038a169063a9059cbb906044016020604051808303816000875af1158015612875573d6000803e3d6000fd5b505050506040513d601f19601f8201168201806040525081019061289991906137d9565b6128b55760405162461bcd60e51b8152600401610283906137f6565b60408051828152602081018a9052428183015290516001600160a01b038b169133917f0373e649c2cd6407bd569d5c66304cce4b4977c361734b811045f83c7bfe8c8b9181900360600190a35050505050505061157260018055565b6000546001600160a01b031633146115a15760405163118cdaa760e01b8152336004820152602401610283565b81516040516370a0823160e01b815230600482015260009182916001600160a01b03909116906370a0823190602401602060405180830381865afa15801561298a573d6000803e3d6000fd5b505050506040513d601f19601f820116820180604052508101906129ae9190613796565b604051639c747c8560e01b81529091503090639c747c85906129d69087908790600401613dd3565b600060405180830381600087803b1580156129f057600080fd5b505af1925050508015612a01575060015b612a5557600f8054906000612a1583613a57565b909155505060405162461bcd60e51b815260206004820152601060248201526f417262697472616765206563686f756560801b6044820152606401610283565b83516040516370a0823160e01b81523060048201526000916001600160a01b0316906370a0823190602401602060405180830381865afa158015612a9d573d6000803e3d6000fd5b505050506040513d601f19601f82011682018060405250810190612ac19190613796565b905081811115612b3f57612ad58282613aa9565b925060006127108660a0015186612aec9190613a70565b612af69190613a87565b905080841015612b3d5760405162461bcd60e51b8152602060048201526012602482015271141c9bd99a5d081a5b9cdd59999a5cd85b9d60721b6044820152606401610283565b505b505092915050565b60005a612b549083613aa9565b9050600061271060115486612b699190613a70565b612b739190613a87565b9050600061271060125487612b889190613a70565b612b929190613a87565b9050600081612ba18489613aa9565b612bab9190613aa9565b90506000612bb9898b613a44565b6040516370a0823160e01b815230600482015290915081906001600160a01b038d16906370a0823190602401602060405180830381865afa158015612c02573d6000803e3d6000fd5b505050506040513d601f19601f82011682018060405250810190612c269190613796565b1015612c825760405162461bcd60e51b815260206004820152602560248201527f466f6e647320696e737566666973616e747320706f75722072656d626f757273604482015264195b595b9d60da1b6064820152608401610283565b8115612d2d5760405163a9059cbb60e01b81526001600160a01b038881166004830152602482018490528c169063a9059cbb906044016020604051808303816000875af1158015612cd7573d6000803e3d6000fd5b505050506040513d601f19601f82011682018060405250810190612cfb91906137d9565b506001600160a01b03871660009081526003602052604081206004018054849290612d27908490613a44565b90915550505b8315612dc7578a6001600160a01b031663a9059cbb612d546000546001600160a01b031690565b6040516001600160e01b031960e084901b1681526001600160a01b039091166004820152602481018790526044016020604051808303816000875af1158015612da1573d6000803e3d6000fd5b505050506040513d601f19601f82011682018060405250810190612dc591906137d9565b505b600083118015612de157506007546001600160a01b031615155b15612e5f5760075460405163a9059cbb60e01b81526001600160a01b03918216600482015260248101859052908c169063a9059cbb906044016020604051808303816000875af1158015612e39573d6000803e3d6000fd5b505050506040513d601f19601f82011682018060405250810190612e5d91906137d9565b505b60405163095ea7b360e01b81526001600160a01b037f000000000000000000000000000000000000000000000000000000000000000081166004830152602482018390528c169063095ea7b3906044016020604051808303816000875af1158015612ece573d6000803e3d6000fd5b505050506040513d601f19601f82011682018060405250810190612ef291906137d9565b508760086004016000828254612f089190613a44565b9091555050600d80548b9190600090612f22908490613a44565b9091555050600e8054906000612f3783613a57565b9091555050426010556001600160a01b03808c169088167fb676027c562ed2163771f91bcfee631c90608250147f574f5c86a6fc489aeada8c8b86612f7c898b613a44565b604080519485526020850193909352918301526060820152608081018990524260a082015260c00160405180910390a37f749b2ac8562325522ef7e1cba0d73b4a39482ab91e980ceb669fb9913a6f93fb88612fd88587613a44565b604080519283526020830191909152810184905242606082015260800160405180910390a15050505050505050505050565b60026001540361302d57604051633ee5aeb560e01b815260040160405180910390fd5b6002600155565b60025460ff16156115a15760405163d93c066560e01b815260040160405180910390fd5b613060613034565b6002805460ff191660011790557f62e78cea01bee320cd4e420270b5ea74000d11b0c9f74754ebdbfc544b05a2586130953390565b6040516001600160a01b03909116815260200160405180910390a1565b6130ba61338c565b6002805460ff191690557f5db9ee0a495bf2e6ff9c91a7834c1ba4fdd244a5e8aa4e537bd38aeae4b073aa33613095565b600080546001600160a01b038381166001600160a01b0319831681178455604051919092169283917f8be0079c531659141344cd1fd0a4f28419497f9722a3daafe3b4186f6b6457e09190a35050565b60405163095ea7b360e01b81526001600160a01b038781166004830152602482018590526000919087169063095ea7b3906044016020604051808303816000875af115801561318e573d6000803e3d6000fd5b505050506040513d601f19601f820116820180604052508101906131b291906137d9565b5060408051600280825260608201835260009260208301908036833701905050905086816000815181106131e8576131e8613cd2565b60200260200101906001600160a01b031690816001600160a01b031681525050858160018151811061321c5761321c613cd2565b6001600160a01b03928316602091820292909201015260405163d06ca61f60e01b81526000918a169063d06ca61f9061325b9089908690600401613d21565b600060405180830381865afa158015613278573d6000803e3d6000fd5b505050506040513d6000823e601f3d908101601f191682016040526132a09190810190613d42565b905060006127106132b18782613aa9565b836001815181106132c4576132c4613cd2565b60200260200101516132d69190613a70565b6132e09190613a87565b905060008a6001600160a01b03166338ed1739898487308b6040518663ffffffff1660e01b8152600401613318959493929190613df0565b6000604051808303816000875af1158015613337573d6000803e3d6000fd5b505050506040513d6000823e601f3d908101601f1916820160405261335f9190810190613d42565b90508060018151811061337457613374613cd2565b60200260200101519450505050509695505050505050565b60025460ff166115a157604051638dfc202b60e01b815260040160405180910390fd5b600061012082840312156120d257600080fd5b80356001600160a01b0381168114610a0257600080fd5b6000806000606084860312156133ee57600080fd5b6133f7846133c2565b92506020840135915061340c604085016133c2565b90509250925092565b60008060008060008060a0878903121561342e57600080fd5b613437876133c2565b95506020870135945060408701359350613453606088016133c2565b9250608087013567ffffffffffffffff8082111561347057600080fd5b818901915089601f83011261348457600080fd5b81358181111561349357600080fd5b8a60208285010111156134a557600080fd5b6020830194508093505050509295509295509295565b600080604083850312156134ce57600080fd5b6134d7836133c2565b946020939093013593505050565b6000602082840312156134f757600080fd5b5035919050565b60006020828403121561351057600080fd5b613519826133c2565b9392505050565b6000806040838503121561353357600080fd5b50508035926020909101359150565b8015158114611aa457600080fd5b8035610a0281613542565b6000806040838503121561356e57600080fd5b613577836133c2565b9150602083013561358781613542565b809150509250929050565b634e487b7160e01b600052604160045260246000fd5b604051610120810167ffffffffffffffff811182821017156135cc576135cc613592565b60405290565b60405160c0810167ffffffffffffffff811182821017156135cc576135cc613592565b604051601f8201601f1916810167ffffffffffffffff8111828210171561361e5761361e613592565b604052919050565b6000610120828403121561363957600080fd5b6136416135a8565b905061364c826133c2565b815261365a602083016133c2565b602082015261366b604083016133c2565b604082015261367c606083016133c2565b60608201526080820135608082015260a082013560a08201526136a160c08301613550565b60c082015260e082013560e082015261010080830135818301525092915050565b60008061014083850312156136d657600080fd5b6136e08484613626565b94610120939093013593505050565b61012081016001600160a01b0380613706856133c2565b16835280613716602086016133c2565b16602084015250613729604084016133c2565b6001600160a01b03166040830152613743606084016133c2565b6001600160a01b0381166060840152506080830135608083015260a083013560a083015261377360c08401613550565b151560c083015260e0838101359083015261010092830135929091019190915290565b6000602082840312156137a857600080fd5b5051919050565b60208082526010908201526f4d6f6e74616e7420696e76616c69646560801b604082015260600190565b6000602082840312156137eb57600080fd5b815161351981613542565b60208082526010908201526f5472616e7366657274206563686f756560801b604082015260600190565b600067ffffffffffffffff82111561383a5761383a613592565b5060051b60200190565b600082601f83011261385557600080fd5b8135602061386a61386583613820565b6135f5565b82815260059290921b8401810191818101908684111561388957600080fd5b8286015b848110156138ab5761389e816133c2565b835291830191830161388d565b509695505050505050565b600082601f8301126138c757600080fd5b813560206138d761386583613820565b82815260059290921b840181019181810190868411156138f657600080fd5b8286015b848110156138ab57803583529183019183016138fa565b60006020828403121561392357600080fd5b813567ffffffffffffffff8082111561393b57600080fd5b908301906101c0828603121561395057600080fd5b6139586135d2565b6139628684613626565b815261397161012084016133c2565b6020820152610140830135604082015261016083013560608201526101808301358281111561399f57600080fd5b6139ab87828601613844565b6080830152506101a0830135828111156139c457600080fd5b6139d0878286016138b6565b60a08301525095945050505050565b602080825260129082015271546f6b656e206e6f6e206175746f7269736560701b604082015260600190565b600060208284031215613a1d57600080fd5b815160ff8116811461351957600080fd5b634e487b7160e01b600052601160045260246000fd5b808201808211156109fc576109fc613a2e565b600060018201613a6957613a69613a2e565b5060010190565b80820281158282048414176109fc576109fc613a2e565b600082613aa457634e487b7160e01b600052601260045260246000fd5b500490565b818103818111156109fc576109fc613a2e565b60006101208284031215613acf57600080fd5b6135198383613626565b80516001600160a01b03908116835260208083015182169084015260408083015182169084015260608083015191821690840152506080810151608083015260a081015160a083015260c0810151613b3560c084018215159052565b5060e0818101519083015261010090810151910152565b600081518084526020808501945080840160005b83811015613b7c57815187529582019590820190600101613b60565b509495945050505050565b600060208083526101e08301613ba08285018651613ad9565b848201516001600160a01b039081166101408601526040860151610160860152606086015161018086015260808601516101c06101a087018190528151938490529084019260009291906102008801905b80851015613c1357855184168252948601946001949094019390860190613bf1565b5060a0890151888203601f1901838a01529550613c308187613b4c565b9998505050505050505050565b600060018060a01b03808816835260208188168185015286604085015260a06060850152855191508160a085015260005b82811015613c8a5786810182015185820160c001528101613c6e565b5050600060c0828501015260c0601f19601f830116840101915050610e4f608083018461ffff169052565b600060208284031215613cc757600080fd5b813561351981613542565b634e487b7160e01b600052603260045260246000fd5b600081518084526020808501945080840160005b83811015613b7c5781516001600160a01b031687529582019590820190600101613cfc565b828152604060208201526000613d3a6040830184613ce8565b949350505050565b60006020808385031215613d5557600080fd5b825167ffffffffffffffff811115613d6c57600080fd5b8301601f81018513613d7d57600080fd5b8051613d8b61386582613820565b81815260059190911b82018301908381019087831115613daa57600080fd5b928401925b82841015613dc857835182529284019290840190613daf565b979650505050505050565b6101408101613de28285613ad9565b826101208301529392505050565b85815284602082015260a060408201526000613e0f60a0830186613ce8565b6001600160a01b039490941660608301525060800152939250505056fea26469706673582212201bdd1d94e9d92f7407003e478438731a2f2a232e14923b5a8c17b605a05fd71364736f6c63430008140033","opcodes":"PUSH2 0x100 PUSH1 0x40 MSTORE PUSH1 0x64 PUSH1 0x11 SSTORE PUSH1 0x32 PUSH1 0x12 SSTORE PUSH5 0xE8D4A51000 PUSH1 0x13 SSTORE PUSH4 0x5F5E100 PUSH1 0x14 SSTORE PUSH1 0x15 DUP1 SLOAD PUSH1 0xFF NOT AND SWAP1 SSTORE PUSH3 0x15180 PUSH1 0x17 SSTORE CALLVALUE DUP1 ISZERO PUSH3 0x3E JUMPI PUSH1 0x0 DUP1 REVERT JUMPDEST POP PUSH1 0x40 MLOAD PUSH3 0x41F6 CODESIZE SUB DUP1 PUSH3 0x41F6 DUP4 CODECOPY DUP2 ADD PUSH1 0x40 DUP2 SWAP1 MSTORE PUSH3 0x61 SWAP2 PUSH3 0x292 JUMP JUMPDEST CALLER DUP5 DUP1 PUSH1 0x1 PUSH1 0x1 PUSH1 0xA0 SHL SUB AND PUSH1 0x80 DUP2 PUSH1 0x1 PUSH1 0x1 PUSH1 0xA0 SHL SUB AND DUP2 MSTORE POP POP DUP1 PUSH1 0x1 PUSH1 0x1 PUSH1 0xA0 SHL SUB AND PUSH4 0x26B1D5F PUSH1 0x40 MLOAD DUP2 PUSH4 0xFFFFFFFF AND PUSH1 0xE0 SHL DUP2 MSTORE PUSH1 0x4 ADD PUSH1 0x20 PUSH1 0x40 MLOAD DUP1 DUP4 SUB DUP2 DUP7 GAS STATICCALL ISZERO DUP1 ISZERO PUSH3 0xBC JUMPI RETURNDATASIZE PUSH1 0x0 DUP1 RETURNDATACOPY RETURNDATASIZE PUSH1 0x0 REVERT JUMPDEST POP POP POP POP PUSH1 0x40 MLOAD RETURNDATASIZE PUSH1 0x1F NOT PUSH1 0x1F DUP3 ADD AND DUP3 ADD DUP1 PUSH1 0x40 MSTORE POP DUP2 ADD SWAP1 PUSH3 0xE2 SWAP2 SWAP1 PUSH3 0x2EF JUMP JUMPDEST PUSH1 0x1 PUSH1 0x1 PUSH1 0xA0 SHL SUB SWAP1 DUP2 AND PUSH1 0xA0 MSTORE DUP3 AND SWAP1 POP PUSH3 0x119 JUMPI PUSH1 0x40 MLOAD PUSH4 0x1E4FBDF7 PUSH1 0xE0 SHL DUP2 MSTORE PUSH1 0x0 PUSH1 0x4 DUP3 ADD MSTORE PUSH1 0x24 ADD PUSH1 0x40 MLOAD DUP1 SWAP2 SUB SWAP1 REVERT JUMPDEST PUSH3 0x124 DUP2 PUSH3 0x225 JUMP JUMPDEST POP PUSH1 0x1 DUP1 DUP1 SSTORE PUSH1 0x1 PUSH1 0x1 PUSH1 0xA0 SHL SUB SWAP4 DUP5 AND PUSH1 0xC0 DUP2 SWAP1 MSTORE SWAP3 DUP5 AND PUSH1 0xE0 DUP2 SWAP1 MSTORE PUSH1 0x7 DUP1 SLOAD PUSH1 0x1 PUSH1 0x1 PUSH1 0xA0 SHL SUB NOT AND SWAP4 SWAP1 SWAP6 AND SWAP3 SWAP1 SWAP3 OR SWAP1 SWAP4 SSTORE PUSH1 0x0 DUP3 DUP2 MSTORE PUSH1 0x4 PUSH1 0x20 SWAP1 DUP2 MSTORE PUSH1 0x40 DUP1 DUP4 KECCAK256 DUP1 SLOAD PUSH1 0xFF NOT SWAP1 DUP2 AND DUP9 OR SWAP1 SWAP2 SSTORE DUP5 DUP5 MSTORE DUP2 DUP5 KECCAK256 DUP1 SLOAD DUP3 AND DUP9 OR SWAP1 SSTORE SWAP5 DUP4 MSTORE PUSH1 0x6 DUP3 MSTORE DUP1 DUP4 KECCAK256 PUSH6 0x9184E72A000 SWAP1 DUP2 SWAP1 SSTORE SWAP4 DUP4 MSTORE DUP3 KECCAK256 SWAP3 SWAP1 SWAP3 SSTORE PUSH1 0x5 SWAP1 SWAP2 MSTORE PUSH32 0x6B06D1B1436148B0ED3F9ED42B441D0872C0B0013EFD7D640E17EDA5F965B2A0 DUP1 SLOAD DUP4 AND DUP5 OR SWAP1 SSTORE PUSH20 0x1B02DA8CB0D097EB8D57A175B88C7D8B47997506 SWAP1 MSTORE PUSH32 0x7FC1519B5BBE4FA8FDFAB567D9BD97AF5435A3186F82D704DCE933F5BC455C1F DUP1 SLOAD SWAP1 SWAP2 AND SWAP1 SWAP2 OR SWAP1 SSTORE POP TIMESTAMP PUSH1 0x10 DUP2 SWAP1 SSTORE PUSH1 0x16 SSTORE PUSH3 0x314 JUMP JUMPDEST PUSH1 0x0 DUP1 SLOAD PUSH1 0x1 PUSH1 0x1 PUSH1 0xA0 SHL SUB DUP4 DUP2 AND PUSH1 0x1 PUSH1 0x1 PUSH1 0xA0 SHL SUB NOT DUP4 AND DUP2 OR DUP5 SSTORE PUSH1 0x40 MLOAD SWAP2 SWAP1 SWAP3 AND SWAP3 DUP4 SWAP2 PUSH32 0x8BE0079C531659141344CD1FD0A4F28419497F9722A3DAAFE3B4186F6B6457E0 SWAP2 SWAP1 LOG3 POP POP JUMP JUMPDEST DUP1 MLOAD PUSH1 0x1 PUSH1 0x1 PUSH1 0xA0 SHL SUB DUP2 AND DUP2 EQ PUSH3 0x28D JUMPI PUSH1 0x0 DUP1 REVERT JUMPDEST SWAP2 SWAP1 POP JUMP JUMPDEST PUSH1 0x0 DUP1 PUSH1 0x0 DUP1 PUSH1 0x80 DUP6 DUP8 SUB SLT ISZERO PUSH3 0x2A9 JUMPI PUSH1 0x0 DUP1 REVERT JUMPDEST PUSH3 0x2B4 DUP6 PUSH3 0x275 JUMP JUMPDEST SWAP4 POP PUSH3 0x2C4 PUSH1 0x20 DUP7 ADD PUSH3 0x275 JUMP JUMPDEST SWAP3 POP PUSH3 0x2D4 PUSH1 0x40 DUP7 ADD PUSH3 0x275 JUMP JUMPDEST SWAP2 POP PUSH3 0x2E4 PUSH1 0x60 DUP7 ADD PUSH3 0x275 JUMP JUMPDEST SWAP1 POP SWAP3 SWAP6 SWAP2 SWAP5 POP SWAP3 POP JUMP JUMPDEST PUSH1 0x0 PUSH1 0x20 DUP3 DUP5 SUB SLT ISZERO PUSH3 0x302 JUMPI PUSH1 0x0 DUP1 REVERT JUMPDEST PUSH3 0x30D DUP3 PUSH3 0x275 JUMP JUMPDEST SWAP4 SWAP3 POP POP POP JUMP JUMPDEST PUSH1 0x80 MLOAD PUSH1 0xA0 MLOAD PUSH1 0xC0 MLOAD PUSH1 0xE0 MLOAD PUSH2 0x3E62 PUSH3 0x394 PUSH1 0x0 CODECOPY PUSH1 0x0 DUP2 DUP2 PUSH2 0x822 ADD MSTORE DUP2 DUP2 PUSH2 0x1456 ADD MSTORE DUP2 DUP2 PUSH2 0x239C ADD MSTORE PUSH2 0x2521 ADD MSTORE PUSH1 0x0 DUP2 DUP2 PUSH2 0x714 ADD MSTORE DUP2 DUP2 PUSH2 0x13D8 ADD MSTORE DUP2 DUP2 PUSH2 0x2331 ADD MSTORE DUP2 DUP2 PUSH2 0x24EA ADD MSTORE PUSH2 0x2713 ADD MSTORE PUSH1 0x0 DUP2 DUP2 PUSH2 0x6C0 ADD MSTORE DUP2 DUP2 PUSH2 0xCF1 ADD MSTORE DUP2 DUP2 PUSH2 0x1A08 ADD MSTORE PUSH2 0x2E76 ADD MSTORE PUSH1 0x0 PUSH2 0x2F3 ADD MSTORE PUSH2 0x3E62 PUSH1 0x0 RETURN INVALID PUSH1 0x80 PUSH1 0x40 MSTORE PUSH1 0x4 CALLDATASIZE LT PUSH2 0x23F JUMPI PUSH1 0x0 CALLDATALOAD PUSH1 0xE0 SHR DUP1 PUSH4 0x74B3371F GT PUSH2 0x12E JUMPI DUP1 PUSH4 0xA90B538E GT PUSH2 0xAB JUMPI DUP1 PUSH4 0xEBBF0671 GT PUSH2 0x6F JUMPI DUP1 PUSH4 0xEBBF0671 EQ PUSH2 0x8AA JUMPI DUP1 PUSH4 0xF2FDE38B EQ PUSH2 0x8C0 JUMPI DUP1 PUSH4 0xF3FEF3A3 EQ PUSH2 0x8E0 JUMPI DUP1 PUSH4 0xFCECC4DF EQ PUSH2 0x900 JUMPI DUP1 PUSH4 0xFD967F47 EQ PUSH2 0x97B JUMPI PUSH2 0x246 JUMP JUMPDEST DUP1 PUSH4 0xA90B538E EQ PUSH2 0x7FA JUMPI DUP1 PUSH4 0xC54E44EB EQ PUSH2 0x810 JUMPI DUP1 PUSH4 0xC61F01D2 EQ PUSH2 0x844 JUMPI DUP1 PUSH4 0xE0115D0D EQ PUSH2 0x874 JUMPI DUP1 PUSH4 0xE6FC7AFE EQ PUSH2 0x88A JUMPI PUSH2 0x246 JUMP JUMPDEST DUP1 PUSH4 0x8DA5CB5B GT PUSH2 0xF2 JUMPI DUP1 PUSH4 0x8DA5CB5B EQ PUSH2 0x756 JUMPI DUP1 PUSH4 0x96FBDC43 EQ PUSH2 0x774 JUMPI DUP1 PUSH4 0x9BC7C586 EQ PUSH2 0x794 JUMPI DUP1 PUSH4 0x9C747C85 EQ PUSH2 0x7C4 JUMPI DUP1 PUSH4 0xA140EDB4 EQ PUSH2 0x7E4 JUMPI PUSH2 0x246 JUMP JUMPDEST DUP1 PUSH4 0x74B3371F EQ PUSH2 0x68E JUMPI DUP1 PUSH4 0x7535D246 EQ PUSH2 0x6AE JUMPI DUP1 PUSH4 0x804F7B6F EQ PUSH2 0x6E2 JUMPI DUP1 PUSH4 0x89A30271 EQ PUSH2 0x702 JUMPI DUP1 PUSH4 0x89A56B2F EQ PUSH2 0x736 JUMPI PUSH2 0x246 JUMP JUMPDEST DUP1 PUSH4 0x570D2F8F GT PUSH2 0x1BC JUMPI DUP1 PUSH4 0x63A599A4 GT PUSH2 0x180 JUMPI DUP1 PUSH4 0x63A599A4 EQ PUSH2 0x5FC JUMPI DUP1 PUSH4 0x645006CA EQ PUSH2 0x616 JUMPI DUP1 PUSH4 0x6DB79437 EQ PUSH2 0x62C JUMPI DUP1 PUSH4 0x715018A6 EQ PUSH2 0x64C JUMPI DUP1 PUSH4 0x7416B8E7 EQ PUSH2 0x661 JUMPI PUSH2 0x246 JUMP JUMPDEST DUP1 PUSH4 0x570D2F8F EQ PUSH2 0x485 JUMPI DUP1 PUSH4 0x5B7C2DAD EQ PUSH2 0x4A5 JUMPI DUP1 PUSH4 0x5C975ABB EQ PUSH2 0x526 JUMPI DUP1 PUSH4 0x613CF420 EQ PUSH2 0x53E JUMPI DUP1 PUSH4 0x6275AFF8 EQ PUSH2 0x5DC JUMPI PUSH2 0x246 JUMP JUMPDEST DUP1 PUSH4 0x22DCD13E GT PUSH2 0x203 JUMPI DUP1 PUSH4 0x22DCD13E EQ PUSH2 0x3DF JUMPI DUP1 PUSH4 0x43790763 EQ PUSH2 0x3F5 JUMPI DUP1 PUSH4 0x47E7EF24 EQ PUSH2 0x415 JUMPI DUP1 PUSH4 0x4B7AAC94 EQ PUSH2 0x435 JUMPI DUP1 PUSH4 0x52238FDD EQ PUSH2 0x44A JUMPI PUSH2 0x246 JUMP JUMPDEST DUP1 PUSH4 0x23639BE EQ PUSH2 0x28C JUMPI DUP1 PUSH4 0x44EDC3C EQ PUSH2 0x2BF JUMPI DUP1 PUSH4 0x542975C EQ PUSH2 0x2E1 JUMPI DUP1 PUSH4 0x1866509F EQ PUSH2 0x32D JUMPI DUP1 PUSH4 0x1B11D0FF EQ PUSH2 0x3AF JUMPI PUSH2 0x246 JUMP JUMPDEST CALLDATASIZE PUSH2 0x246 JUMPI STOP JUMPDEST PUSH1 0x40 MLOAD PUSH3 0x461BCD PUSH1 0xE5 SHL DUP2 MSTORE PUSH1 0x20 PUSH1 0x4 DUP3 ADD MSTORE PUSH1 0x16 PUSH1 0x24 DUP3 ADD MSTORE PUSH22 0x466F6E6374696F6E206E6F6E20737570706F72746565 PUSH1 0x50 SHL PUSH1 0x44 DUP3 ADD MSTORE PUSH1 0x64 ADD JUMPDEST PUSH1 0x40 MLOAD DUP1 SWAP2 SUB SWAP1 REVERT JUMPDEST CALLVALUE DUP1 ISZERO PUSH2 0x298 JUMPI PUSH1 0x0 DUP1 REVERT JUMPDEST POP PUSH2 0x2AC PUSH2 0x2A7 CALLDATASIZE PUSH1 0x4 PUSH2 0x33AF JUMP JUMPDEST PUSH2 0x991 JUMP JUMPDEST PUSH1 0x40 MLOAD SWAP1 DUP2 MSTORE PUSH1 0x20 ADD JUMPDEST PUSH1 0x40 MLOAD DUP1 SWAP2 SUB SWAP1 RETURN JUMPDEST CALLVALUE DUP1 ISZERO PUSH2 0x2CB JUMPI PUSH1 0x0 DUP1 REVERT JUMPDEST POP PUSH2 0x2DF PUSH2 0x2DA CALLDATASIZE PUSH1 0x4 PUSH2 0x33D9 JUMP JUMPDEST PUSH2 0xA07 JUMP JUMPDEST STOP JUMPDEST CALLVALUE DUP1 ISZERO PUSH2 0x2ED JUMPI PUSH1 0x0 DUP1 REVERT JUMPDEST POP PUSH2 0x315 PUSH32 0x0 DUP2 JUMP JUMPDEST PUSH1 0x40 MLOAD PUSH1 0x1 PUSH1 0x1 PUSH1 0xA0 SHL SUB SWAP1 SWAP2 AND DUP2 MSTORE PUSH1 0x20 ADD PUSH2 0x2B6 JUMP JUMPDEST CALLVALUE DUP1 ISZERO PUSH2 0x339 JUMPI PUSH1 0x0 DUP1 REVERT JUMPDEST POP PUSH2 0x342 PUSH2 0xC3E JUMP JUMPDEST PUSH1 0x40 MLOAD PUSH2 0x2B6 SWAP2 SWAP1 PUSH1 0x0 PUSH2 0x120 DUP3 ADD SWAP1 POP DUP3 MLOAD DUP3 MSTORE PUSH1 0x20 DUP4 ADD MLOAD PUSH1 0x20 DUP4 ADD MSTORE PUSH1 0x40 DUP4 ADD MLOAD PUSH1 0x40 DUP4 ADD MSTORE PUSH1 0x60 DUP4 ADD MLOAD PUSH1 0x60 DUP4 ADD MSTORE PUSH1 0x80 DUP4 ADD MLOAD PUSH1 0x80 DUP4 ADD MSTORE PUSH1 0xA0 DUP4 ADD MLOAD PUSH1 0xA0 DUP4 ADD MSTORE PUSH1 0xC0 DUP4 ADD MLOAD PUSH1 0xC0 DUP4 ADD MSTORE PUSH1 0xE0 DUP4 ADD MLOAD PUSH1 0xE0 DUP4 ADD MSTORE PUSH2 0x100 DUP1 DUP5 ADD MLOAD DUP2 DUP5 ADD MSTORE POP SWAP3 SWAP2 POP POP JUMP JUMPDEST CALLVALUE DUP1 ISZERO PUSH2 0x3BB JUMPI PUSH1 0x0 DUP1 REVERT JUMPDEST POP PUSH2 0x3CF PUSH2 0x3CA CALLDATASIZE PUSH1 0x4 PUSH2 0x3415 JUMP JUMPDEST PUSH2 0xCE4 JUMP JUMPDEST PUSH1 0x40 MLOAD SWAP1 ISZERO ISZERO DUP2 MSTORE PUSH1 0x20 ADD PUSH2 0x2B6 JUMP JUMPDEST CALLVALUE DUP1 ISZERO PUSH2 0x3EB JUMPI PUSH1 0x0 DUP1 REVERT JUMPDEST POP PUSH2 0x2AC PUSH1 0x11 SLOAD DUP2 JUMP JUMPDEST CALLVALUE DUP1 ISZERO PUSH2 0x401 JUMPI PUSH1 0x0 DUP1 REVERT JUMPDEST POP PUSH2 0x2DF PUSH2 0x410 CALLDATASIZE PUSH1 0x4 PUSH2 0x34BB JUMP JUMPDEST PUSH2 0xE59 JUMP JUMPDEST CALLVALUE DUP1 ISZERO PUSH2 0x421 JUMPI PUSH1 0x0 DUP1 REVERT JUMPDEST POP PUSH2 0x2DF PUSH2 0x430 CALLDATASIZE PUSH1 0x4 PUSH2 0x34BB JUMP JUMPDEST PUSH2 0x10F6 JUMP JUMPDEST CALLVALUE DUP1 ISZERO PUSH2 0x441 JUMPI PUSH1 0x0 DUP1 REVERT JUMPDEST POP PUSH2 0x2DF PUSH2 0x1576 JUMP JUMPDEST CALLVALUE DUP1 ISZERO PUSH2 0x456 JUMPI PUSH1 0x0 DUP1 REVERT JUMPDEST POP PUSH2 0x46A PUSH2 0x465 CALLDATASIZE PUSH1 0x4 PUSH2 0x34E5 JUMP JUMPDEST PUSH2 0x15AB JUMP JUMPDEST PUSH1 0x40 DUP1 MLOAD SWAP4 DUP5 MSTORE PUSH1 0x20 DUP5 ADD SWAP3 SWAP1 SWAP3 MSTORE SWAP1 DUP3 ADD MSTORE PUSH1 0x60 ADD PUSH2 0x2B6 JUMP JUMPDEST CALLVALUE DUP1 ISZERO PUSH2 0x491 JUMPI PUSH1 0x0 DUP1 REVERT JUMPDEST POP PUSH1 0x7 SLOAD PUSH2 0x315 SWAP1 PUSH1 0x1 PUSH1 0x1 PUSH1 0xA0 SHL SUB AND DUP2 JUMP JUMPDEST CALLVALUE DUP1 ISZERO PUSH2 0x4B1 JUMPI PUSH1 0x0 DUP1 REVERT JUMPDEST POP PUSH2 0x4C5 PUSH2 0x4C0 CALLDATASIZE PUSH1 0x4 PUSH2 0x34FE JUMP JUMPDEST PUSH2 0x1607 JUMP JUMPDEST PUSH1 0x40 MLOAD PUSH2 0x2B6 SWAP2 SWAP1 PUSH1 0x0 PUSH2 0x100 DUP3 ADD SWAP1 POP DUP3 MLOAD DUP3 MSTORE PUSH1 0x20 DUP4 ADD MLOAD PUSH1 0x20 DUP4 ADD MSTORE PUSH1 0x40 DUP4 ADD MLOAD PUSH1 0x40 DUP4 ADD MSTORE PUSH1 0x60 DUP4 ADD MLOAD PUSH1 0x60 DUP4 ADD MSTORE PUSH1 0x80 DUP4 ADD MLOAD PUSH1 0x80 DUP4 ADD MSTORE PUSH1 0xA0 DUP4 ADD MLOAD PUSH1 0xA0 DUP4 ADD MSTORE PUSH1 0xC0 DUP4 ADD MLOAD PUSH1 0xC0 DUP4 ADD MSTORE PUSH1 0xE0 DUP4 ADD MLOAD PUSH1 0xE0 DUP4 ADD MSTORE SWAP3 SWAP2 POP POP JUMP JUMPDEST CALLVALUE DUP1 ISZERO PUSH2 0x532 JUMPI PUSH1 0x0 DUP1 REVERT JUMPDEST POP PUSH1 0x2 SLOAD PUSH1 0xFF AND PUSH2 0x3CF JUMP JUMPDEST CALLVALUE DUP1 ISZERO PUSH2 0x54A JUMPI PUSH1 0x0 DUP1 REVERT JUMPDEST POP PUSH2 0x5A1 PUSH2 0x559 CALLDATASIZE PUSH1 0x4 PUSH2 0x34FE JUMP JUMPDEST PUSH1 0x3 PUSH1 0x20 MSTORE DUP1 PUSH1 0x0 MSTORE PUSH1 0x40 PUSH1 0x0 KECCAK256 PUSH1 0x0 SWAP2 POP SWAP1 POP DUP1 PUSH1 0x0 ADD SLOAD SWAP1 DUP1 PUSH1 0x1 ADD SLOAD SWAP1 DUP1 PUSH1 0x2 ADD SLOAD SWAP1 DUP1 PUSH1 0x3 ADD SLOAD SWAP1 DUP1 PUSH1 0x4 ADD SLOAD SWAP1 DUP1 PUSH1 0x5 ADD SLOAD SWAP1 DUP1 PUSH1 0x6 ADD SLOAD SWAP1 DUP1 PUSH1 0x7 ADD SLOAD SWAP1 POP DUP9 JUMP JUMPDEST PUSH1 0x40 DUP1 MLOAD SWAP9 DUP10 MSTORE PUSH1 0x20 DUP10 ADD SWAP8 SWAP1 SWAP8 MSTORE SWAP6 DUP8 ADD SWAP5 SWAP1 SWAP5 MSTORE PUSH1 0x60 DUP7 ADD SWAP3 SWAP1 SWAP3 MSTORE PUSH1 0x80 DUP6 ADD MSTORE PUSH1 0xA0 DUP5 ADD MSTORE PUSH1 0xC0 DUP4 ADD MSTORE PUSH1 0xE0 DUP3 ADD MSTORE PUSH2 0x100 ADD PUSH2 0x2B6 JUMP JUMPDEST CALLVALUE DUP1 ISZERO PUSH2 0x5E8 JUMPI PUSH1 0x0 DUP1 REVERT JUMPDEST POP PUSH2 0x2DF PUSH2 0x5F7 CALLDATASIZE PUSH1 0x4 PUSH2 0x33AF JUMP JUMPDEST PUSH2 0x16C5 JUMP JUMPDEST CALLVALUE DUP1 ISZERO PUSH2 0x608 JUMPI PUSH1 0x0 DUP1 REVERT JUMPDEST POP PUSH1 0x15 SLOAD PUSH2 0x3CF SWAP1 PUSH1 0xFF AND DUP2 JUMP JUMPDEST CALLVALUE DUP1 ISZERO PUSH2 0x622 JUMPI PUSH1 0x0 DUP1 REVERT JUMPDEST POP PUSH2 0x2AC PUSH1 0x14 SLOAD DUP2 JUMP JUMPDEST CALLVALUE DUP1 ISZERO PUSH2 0x638 JUMPI PUSH1 0x0 DUP1 REVERT JUMPDEST POP PUSH2 0x2DF PUSH2 0x647 CALLDATASIZE PUSH1 0x4 PUSH2 0x3520 JUMP JUMPDEST PUSH2 0x1AA7 JUMP JUMPDEST CALLVALUE DUP1 ISZERO PUSH2 0x658 JUMPI PUSH1 0x0 DUP1 REVERT JUMPDEST POP PUSH2 0x2DF PUSH2 0x1B49 JUMP JUMPDEST CALLVALUE DUP1 ISZERO PUSH2 0x66D JUMPI PUSH1 0x0 DUP1 REVERT JUMPDEST POP PUSH2 0x2AC PUSH2 0x67C CALLDATASIZE PUSH1 0x4 PUSH2 0x34FE JUMP JUMPDEST PUSH1 0x6 PUSH1 0x20 MSTORE PUSH1 0x0 SWAP1 DUP2 MSTORE PUSH1 0x40 SWAP1 KECCAK256 SLOAD DUP2 JUMP JUMPDEST CALLVALUE DUP1 ISZERO PUSH2 0x69A JUMPI PUSH1 0x0 DUP1 REVERT JUMPDEST POP PUSH2 0x2AC PUSH2 0x6A9 CALLDATASIZE PUSH1 0x4 PUSH2 0x33AF JUMP JUMPDEST PUSH2 0x1B5B JUMP JUMPDEST CALLVALUE DUP1 ISZERO PUSH2 0x6BA JUMPI PUSH1 0x0 DUP1 REVERT JUMPDEST POP PUSH2 0x315 PUSH32 0x0 DUP2 JUMP JUMPDEST CALLVALUE DUP1 ISZERO PUSH2 0x6EE JUMPI PUSH1 0x0 DUP1 REVERT JUMPDEST POP PUSH2 0x2DF PUSH2 0x6FD CALLDATASIZE PUSH1 0x4 PUSH2 0x355B JUMP JUMPDEST PUSH2 0x20D8 JUMP JUMPDEST CALLVALUE DUP1 ISZERO PUSH2 0x70E JUMPI PUSH1 0x0 DUP1 REVERT JUMPDEST POP PUSH2 0x315 PUSH32 0x0 DUP2 JUMP JUMPDEST CALLVALUE DUP1 ISZERO PUSH2 0x742 JUMPI PUSH1 0x0 DUP1 REVERT JUMPDEST POP PUSH2 0x2DF PUSH2 0x751 CALLDATASIZE PUSH1 0x4 PUSH2 0x34FE JUMP JUMPDEST PUSH2 0x2140 JUMP JUMPDEST CALLVALUE DUP1 ISZERO PUSH2 0x762 JUMPI PUSH1 0x0 DUP1 REVERT JUMPDEST POP PUSH1 0x0 SLOAD PUSH1 0x1 PUSH1 0x1 PUSH1 0xA0 SHL SUB AND PUSH2 0x315 JUMP JUMPDEST CALLVALUE DUP1 ISZERO PUSH2 0x780 JUMPI PUSH1 0x0 DUP1 REVERT JUMPDEST POP PUSH2 0x2DF PUSH2 0x78F CALLDATASIZE PUSH1 0x4 PUSH2 0x355B JUMP JUMPDEST PUSH2 0x21E3 JUMP JUMPDEST CALLVALUE DUP1 ISZERO PUSH2 0x7A0 JUMPI PUSH1 0x0 DUP1 REVERT JUMPDEST POP PUSH2 0x3CF PUSH2 0x7AF CALLDATASIZE PUSH1 0x4 PUSH2 0x34FE JUMP JUMPDEST PUSH1 0x4 PUSH1 0x20 MSTORE PUSH1 0x0 SWAP1 DUP2 MSTORE PUSH1 0x40 SWAP1 KECCAK256 SLOAD PUSH1 0xFF AND DUP2 JUMP JUMPDEST CALLVALUE DUP1 ISZERO PUSH2 0x7D0 JUMPI PUSH1 0x0 DUP1 REVERT JUMPDEST POP PUSH2 0x2DF PUSH2 0x7DF CALLDATASIZE PUSH1 0x4 PUSH2 0x36C2 JUMP JUMPDEST PUSH2 0x2243 JUMP JUMPDEST CALLVALUE DUP1 ISZERO PUSH2 0x7F0 JUMPI PUSH1 0x0 DUP1 REVERT JUMPDEST POP PUSH2 0x2AC PUSH1 0x13 SLOAD DUP2 JUMP JUMPDEST CALLVALUE DUP1 ISZERO PUSH2 0x806 JUMPI PUSH1 0x0 DUP1 REVERT JUMPDEST POP PUSH2 0x2AC PUSH1 0x17 SLOAD DUP2 JUMP JUMPDEST CALLVALUE DUP1 ISZERO PUSH2 0x81C JUMPI PUSH1 0x0 DUP1 REVERT JUMPDEST POP PUSH2 0x315 PUSH32 0x0 DUP2 JUMP JUMPDEST CALLVALUE DUP1 ISZERO PUSH2 0x850 JUMPI PUSH1 0x0 DUP1 REVERT JUMPDEST POP PUSH2 0x3CF PUSH2 0x85F CALLDATASIZE PUSH1 0x4 PUSH2 0x34FE JUMP JUMPDEST PUSH1 0x5 PUSH1 0x20 MSTORE PUSH1 0x0 SWAP1 DUP2 MSTORE PUSH1 0x40 SWAP1 KECCAK256 SLOAD PUSH1 0xFF AND DUP2 JUMP JUMPDEST CALLVALUE DUP1 ISZERO PUSH2 0x880 JUMPI PUSH1 0x0 DUP1 REVERT JUMPDEST POP PUSH2 0x2AC PUSH1 0x16 SLOAD DUP2 JUMP JUMPDEST CALLVALUE DUP1 ISZERO PUSH2 0x896 JUMPI PUSH1 0x0 DUP1 REVERT JUMPDEST POP PUSH2 0x2AC PUSH2 0x8A5 CALLDATASIZE PUSH1 0x4 PUSH2 0x34BB JUMP JUMPDEST PUSH2 0x232D JUMP JUMPDEST CALLVALUE DUP1 ISZERO PUSH2 0x8B6 JUMPI PUSH1 0x0 DUP1 REVERT JUMPDEST POP PUSH2 0x2AC PUSH1 0x12 SLOAD DUP2 JUMP JUMPDEST CALLVALUE DUP1 ISZERO PUSH2 0x8CC JUMPI PUSH1 0x0 DUP1 REVERT JUMPDEST POP PUSH2 0x2DF PUSH2 0x8DB CALLDATASIZE PUSH1 0x4 PUSH2 0x34FE JUMP JUMPDEST PUSH2 0x2431 JUMP JUMPDEST CALLVALUE DUP1 ISZERO PUSH2 0x8EC JUMPI PUSH1 0x0 DUP1 REVERT JUMPDEST POP PUSH2 0x2DF PUSH2 0x8FB CALLDATASIZE PUSH1 0x4 PUSH2 0x34BB JUMP JUMPDEST PUSH2 0x246C JUMP JUMPDEST CALLVALUE DUP1 ISZERO PUSH2 0x90C JUMPI PUSH1 0x0 DUP1 REVERT JUMPDEST POP PUSH1 0x8 SLOAD PUSH1 0x9 SLOAD PUSH1 0xA SLOAD PUSH1 0xB SLOAD PUSH1 0xC SLOAD PUSH1 0xD SLOAD PUSH1 0xE SLOAD PUSH1 0xF SLOAD PUSH1 0x10 SLOAD PUSH2 0x937 SWAP9 SWAP8 SWAP7 SWAP6 SWAP5 SWAP4 SWAP3 SWAP2 SWAP1 DUP10 JUMP JUMPDEST PUSH1 0x40 DUP1 MLOAD SWAP10 DUP11 MSTORE PUSH1 0x20 DUP11 ADD SWAP9 SWAP1 SWAP9 MSTORE SWAP7 DUP9 ADD SWAP6 SWAP1 SWAP6 MSTORE PUSH1 0x60 DUP8 ADD SWAP4 SWAP1 SWAP4 MSTORE PUSH1 0x80 DUP7 ADD SWAP2 SWAP1 SWAP2 MSTORE PUSH1 0xA0 DUP6 ADD MSTORE PUSH1 0xC0 DUP5 ADD MSTORE PUSH1 0xE0 DUP4 ADD MSTORE PUSH2 0x100 DUP3 ADD MSTORE PUSH2 0x120 ADD PUSH2 0x2B6 JUMP JUMPDEST CALLVALUE DUP1 ISZERO PUSH2 0x987 JUMPI PUSH1 0x0 DUP1 REVERT JUMPDEST POP PUSH2 0x2AC PUSH2 0x2710 DUP2 JUMP JUMPDEST PUSH1 0x40 MLOAD PUSH4 0x74B3371F PUSH1 0xE0 SHL DUP2 MSTORE PUSH1 0x0 SWAP1 ADDRESS SWAP1 PUSH4 0x74B3371F SWAP1 PUSH2 0x9B7 SWAP1 DUP6 SWAP1 PUSH1 0x4 ADD PUSH2 0x36EF JUMP JUMPDEST PUSH1 0x20 PUSH1 0x40 MLOAD DUP1 DUP4 SUB DUP2 DUP7 GAS STATICCALL SWAP3 POP POP POP DUP1 ISZERO PUSH2 0x9F0 JUMPI POP PUSH1 0x40 DUP1 MLOAD PUSH1 0x1F RETURNDATASIZE SWAP1 DUP2 ADD PUSH1 0x1F NOT AND DUP3 ADD SWAP1 SWAP3 MSTORE PUSH2 0x9ED SWAP2 DUP2 ADD SWAP1 PUSH2 0x3796 JUMP JUMPDEST PUSH1 0x1 JUMPDEST PUSH2 0x9FC JUMPI POP PUSH1 0x0 SWAP2 SWAP1 POP JUMP JUMPDEST SWAP3 SWAP2 POP POP JUMP JUMPDEST SWAP2 SWAP1 POP JUMP JUMPDEST PUSH2 0xA0F PUSH2 0x2911 JUMP JUMPDEST DUP2 PUSH1 0x0 DUP2 GT PUSH2 0xA30 JUMPI PUSH1 0x40 MLOAD PUSH3 0x461BCD PUSH1 0xE5 SHL DUP2 MSTORE PUSH1 0x4 ADD PUSH2 0x283 SWAP1 PUSH2 0x37AF JUMP JUMPDEST PUSH1 0x1 PUSH1 0x1 PUSH1 0xA0 SHL SUB DUP3 AND PUSH2 0xA79 JUMPI PUSH1 0x40 MLOAD PUSH3 0x461BCD PUSH1 0xE5 SHL DUP2 MSTORE PUSH1 0x20 PUSH1 0x4 DUP3 ADD MSTORE PUSH1 0x10 PUSH1 0x24 DUP3 ADD MSTORE PUSH16 0x4164726573736520696E76616C696465 PUSH1 0x80 SHL PUSH1 0x44 DUP3 ADD MSTORE PUSH1 0x64 ADD PUSH2 0x283 JUMP JUMPDEST PUSH1 0x40 MLOAD PUSH4 0x70A08231 PUSH1 0xE0 SHL DUP2 MSTORE ADDRESS PUSH1 0x4 DUP3 ADD MSTORE PUSH1 0x0 SWAP1 PUSH1 0x1 PUSH1 0x1 PUSH1 0xA0 SHL SUB DUP7 AND SWAP1 PUSH4 0x70A08231 SWAP1 PUSH1 0x24 ADD PUSH1 0x20 PUSH1 0x40 MLOAD DUP1 DUP4 SUB DUP2 DUP7 GAS STATICCALL ISZERO DUP1 ISZERO PUSH2 0xAC0 JUMPI RETURNDATASIZE PUSH1 0x0 DUP1 RETURNDATACOPY RETURNDATASIZE PUSH1 0x0 REVERT JUMPDEST POP POP POP POP PUSH1 0x40 MLOAD RETURNDATASIZE PUSH1 0x1F NOT PUSH1 0x1F DUP3 ADD AND DUP3 ADD DUP1 PUSH1 0x40 MSTORE POP DUP2 ADD SWAP1 PUSH2 0xAE4 SWAP2 SWAP1 PUSH2 0x3796 JUMP JUMPDEST SWAP1 POP DUP1 DUP5 GT ISZERO PUSH2 0xB2A JUMPI PUSH1 0x40 MLOAD PUSH3 0x461BCD PUSH1 0xE5 SHL DUP2 MSTORE PUSH1 0x20 PUSH1 0x4 DUP3 ADD MSTORE PUSH1 0x11 PUSH1 0x24 DUP3 ADD MSTORE PUSH17 0x14DBDB1919481A5B9CDD59999A5CD85B9D PUSH1 0x7A SHL PUSH1 0x44 DUP3 ADD MSTORE PUSH1 0x64 ADD PUSH2 0x283 JUMP JUMPDEST PUSH1 0x40 MLOAD PUSH4 0xA9059CBB PUSH1 0xE0 SHL DUP2 MSTORE PUSH1 0x1 PUSH1 0x1 PUSH1 0xA0 SHL SUB DUP5 DUP2 AND PUSH1 0x4 DUP4 ADD MSTORE PUSH1 0x24 DUP3 ADD DUP7 SWAP1 MSTORE DUP7 AND SWAP1 PUSH4 0xA9059CBB SWAP1 PUSH1 0x44 ADD PUSH1 0x20 PUSH1 0x40 MLOAD DUP1 DUP4 SUB DUP2 PUSH1 0x0 DUP8 GAS CALL ISZERO DUP1 ISZERO PUSH2 0xB79 JUMPI RETURNDATASIZE PUSH1 0x0 DUP1 RETURNDATACOPY RETURNDATASIZE PUSH1 0x0 REVERT JUMPDEST POP POP POP POP PUSH1 0x40 MLOAD RETURNDATASIZE PUSH1 0x1F NOT PUSH1 0x1F DUP3 ADD AND DUP3 ADD DUP1 PUSH1 0x40 MSTORE POP DUP2 ADD SWAP1 PUSH2 0xB9D SWAP2 SWAP1 PUSH2 0x37D9 JUMP JUMPDEST PUSH2 0xBB9 JUMPI PUSH1 0x40 MLOAD PUSH3 0x461BCD PUSH1 0xE5 SHL DUP2 MSTORE PUSH1 0x4 ADD PUSH2 0x283 SWAP1 PUSH2 0x37F6 JUMP JUMPDEST DUP3 PUSH1 0x1 PUSH1 0x1 PUSH1 0xA0 SHL SUB AND DUP6 PUSH1 0x1 PUSH1 0x1 PUSH1 0xA0 SHL SUB AND PUSH32 0xF15709E6648C1E4BCA994535D6D1BD2A88CD17ED5BCD5A187B2AD634720C7564 DUP7 TIMESTAMP PUSH1 0x40 MLOAD PUSH2 0xC2F SWAP3 SWAP2 SWAP1 SWAP2 DUP3 MSTORE PUSH1 0x60 PUSH1 0x20 DUP4 ADD DUP2 SWAP1 MSTORE PUSH1 0x10 SWAP1 DUP4 ADD MSTORE PUSH16 0x13DDDB995C881DDA5D1A191C985DD85B PUSH1 0x82 SHL PUSH1 0x80 DUP4 ADD MSTORE PUSH1 0x40 DUP3 ADD MSTORE PUSH1 0xA0 ADD SWAP1 JUMP JUMPDEST PUSH1 0x40 MLOAD DUP1 SWAP2 SUB SWAP1 LOG3 POP POP POP POP POP JUMP JUMPDEST PUSH2 0xC8D PUSH1 0x40 MLOAD DUP1 PUSH2 0x120 ADD PUSH1 0x40 MSTORE DUP1 PUSH1 0x0 DUP2 MSTORE PUSH1 0x20 ADD PUSH1 0x0 DUP2 MSTORE PUSH1 0x20 ADD PUSH1 0x0 DUP2 MSTORE PUSH1 0x20 ADD PUSH1 0x0 DUP2 MSTORE PUSH1 0x20 ADD PUSH1 0x0 DUP2 MSTORE PUSH1 0x20 ADD PUSH1 0x0 DUP2 MSTORE PUSH1 0x20 ADD PUSH1 0x0 DUP2 MSTORE PUSH1 0x20 ADD PUSH1 0x0 DUP2 MSTORE PUSH1 0x20 ADD PUSH1 0x0 DUP2 MSTORE POP SWAP1 JUMP JUMPDEST POP PUSH1 0x40 DUP1 MLOAD PUSH2 0x120 DUP2 ADD DUP3 MSTORE PUSH1 0x8 SLOAD DUP2 MSTORE PUSH1 0x9 SLOAD PUSH1 0x20 DUP3 ADD MSTORE PUSH1 0xA SLOAD SWAP2 DUP2 ADD SWAP2 SWAP1 SWAP2 MSTORE PUSH1 0xB SLOAD PUSH1 0x60 DUP3 ADD MSTORE PUSH1 0xC SLOAD PUSH1 0x80 DUP3 ADD MSTORE PUSH1 0xD SLOAD PUSH1 0xA0 DUP3 ADD MSTORE PUSH1 0xE SLOAD PUSH1 0xC0 DUP3 ADD MSTORE PUSH1 0xF SLOAD PUSH1 0xE0 DUP3 ADD MSTORE PUSH1 0x10 SLOAD PUSH2 0x100 DUP3 ADD MSTORE SWAP1 JUMP JUMPDEST PUSH1 0x0 CALLER PUSH1 0x1 PUSH1 0x1 PUSH1 0xA0 SHL SUB PUSH32 0x0 AND EQ PUSH2 0xD56 JUMPI PUSH1 0x40 MLOAD PUSH3 0x461BCD PUSH1 0xE5 SHL DUP2 MSTORE PUSH1 0x20 PUSH1 0x4 DUP3 ADD MSTORE PUSH1 0x15 PUSH1 0x24 DUP3 ADD MSTORE PUSH21 0x417070656C616E74206E6F6E206175746F72697365 PUSH1 0x58 SHL PUSH1 0x44 DUP3 ADD MSTORE PUSH1 0x64 ADD PUSH2 0x283 JUMP JUMPDEST PUSH1 0x1 PUSH1 0x1 PUSH1 0xA0 SHL SUB DUP5 AND ADDRESS EQ PUSH2 0xDAE JUMPI PUSH1 0x40 MLOAD PUSH3 0x461BCD PUSH1 0xE5 SHL DUP2 MSTORE PUSH1 0x20 PUSH1 0x4 DUP3 ADD MSTORE PUSH1 0x17 PUSH1 0x24 DUP3 ADD MSTORE PUSH32 0x496E6974696174657572206E6F6E206175746F72697365000000000000000000 PUSH1 0x44 DUP3 ADD MSTORE PUSH1 0x64 ADD PUSH2 0x283 JUMP JUMPDEST PUSH1 0x0 GAS SWAP1 POP PUSH1 0x0 PUSH2 0xDC1 DUP5 DUP7 ADD DUP7 PUSH2 0x3911 JUMP JUMPDEST SWAP1 POP PUSH1 0x0 DUP2 PUSH1 0x60 ADD MLOAD PUSH1 0x0 SUB PUSH2 0xDE0 JUMPI DUP2 MLOAD PUSH2 0xDDD SWAP1 DUP11 PUSH2 0x293E JUMP JUMPDEST SWAP1 POP JUMPDEST PUSH2 0xDF2 DUP11 DUP11 DUP11 DUP5 DUP7 PUSH1 0x20 ADD MLOAD DUP9 PUSH2 0x2B47 JUMP JUMPDEST PUSH1 0x20 DUP1 DUP4 ADD MLOAD PUSH1 0x40 DUP1 MLOAD DUP13 DUP2 MSTORE SWAP3 DUP4 ADD DUP12 SWAP1 MSTORE TIMESTAMP SWAP1 DUP4 ADD MSTORE PUSH1 0x1 PUSH1 0x1 PUSH1 0xA0 SHL SUB SWAP1 DUP2 AND SWAP2 SWAP1 DUP13 AND SWAP1 PUSH32 0x186B20B8E4DD95AA0C31CA25F084A84C19A2EA03C593BC299B023784D389BA9D SWAP1 PUSH1 0x60 ADD PUSH1 0x40 MLOAD DUP1 SWAP2 SUB SWAP1 LOG3 PUSH1 0x1 SWAP4 POP POP POP POP JUMPDEST SWAP7 SWAP6 POP POP POP POP POP POP JUMP JUMPDEST DUP1 PUSH1 0x0 DUP2 GT PUSH2 0xE7A JUMPI PUSH1 0x40 MLOAD PUSH3 0x461BCD PUSH1 0xE5 SHL DUP2 MSTORE PUSH1 0x4 ADD PUSH2 0x283 SWAP1 PUSH2 0x37AF JUMP JUMPDEST PUSH1 0x7 SLOAD PUSH1 0x1 PUSH1 0x1 PUSH1 0xA0 SHL SUB AND CALLER EQ PUSH2 0xED4 JUMPI PUSH1 0x40 MLOAD PUSH3 0x461BCD PUSH1 0xE5 SHL DUP2 MSTORE PUSH1 0x20 PUSH1 0x4 DUP3 ADD MSTORE PUSH1 0x1B PUSH1 0x24 DUP3 ADD MSTORE PUSH32 0x5365756C206C652077616C6C657420646520636F6E6669616E63650000000000 PUSH1 0x44 DUP3 ADD MSTORE PUSH1 0x64 ADD PUSH2 0x283 JUMP JUMPDEST PUSH1 0x7 SLOAD PUSH1 0x1 PUSH1 0x1 PUSH1 0xA0 SHL SUB AND PUSH2 0xF2C JUMPI PUSH1 0x40 MLOAD PUSH3 0x461BCD PUSH1 0xE5 SHL DUP2 MSTORE PUSH1 0x20 PUSH1 0x4 DUP3 ADD MSTORE PUSH1 0x1E PUSH1 0x24 DUP3 ADD MSTORE PUSH32 0x57616C6C657420646520636F6E6669616E6365206E6F6E20646566696E690000 PUSH1 0x44 DUP3 ADD MSTORE PUSH1 0x64 ADD PUSH2 0x283 JUMP JUMPDEST PUSH1 0x40 MLOAD PUSH4 0x70A08231 PUSH1 0xE0 SHL DUP2 MSTORE ADDRESS PUSH1 0x4 DUP3 ADD MSTORE PUSH1 0x0 SWAP1 PUSH1 0x1 PUSH1 0x1 PUSH1 0xA0 SHL SUB DUP6 AND SWAP1 PUSH4 0x70A08231 SWAP1 PUSH1 0x24 ADD PUSH1 0x20 PUSH1 0x40 MLOAD DUP1 DUP4 SUB DUP2 DUP7 GAS STATICCALL ISZERO DUP1 ISZERO PUSH2 0xF73 JUMPI RETURNDATASIZE PUSH1 0x0 DUP1 RETURNDATACOPY RETURNDATASIZE PUSH1 0x0 REVERT JUMPDEST POP POP POP POP PUSH1 0x40 MLOAD RETURNDATASIZE PUSH1 0x1F NOT PUSH1 0x1F DUP3 ADD AND DUP3 ADD DUP1 PUSH1 0x40 MSTORE POP DUP2 ADD SWAP1 PUSH2 0xF97 SWAP2 SWAP1 PUSH2 0x3796 JUMP JUMPDEST SWAP1 POP DUP1 DUP4 GT ISZERO PUSH2 0xFDD JUMPI PUSH1 0x40 MLOAD PUSH3 0x461BCD PUSH1 0xE5 SHL DUP2 MSTORE PUSH1 0x20 PUSH1 0x4 DUP3 ADD MSTORE PUSH1 0x11 PUSH1 0x24 DUP3 ADD MSTORE PUSH17 0x14DBDB1919481A5B9CDD59999A5CD85B9D PUSH1 0x7A SHL PUSH1 0x44 DUP3 ADD MSTORE PUSH1 0x64 ADD PUSH2 0x283 JUMP JUMPDEST PUSH1 0x7 SLOAD PUSH1 0x40 MLOAD PUSH4 0xA9059CBB PUSH1 0xE0 SHL DUP2 MSTORE PUSH1 0x1 PUSH1 0x1 PUSH1 0xA0 SHL SUB SWAP2 DUP3 AND PUSH1 0x4 DUP3 ADD MSTORE PUSH1 0x24 DUP2 ADD DUP6 SWAP1 MSTORE SWAP1 DUP6 AND SWAP1 PUSH4 0xA9059CBB SWAP1 PUSH1 0x44 ADD PUSH1 0x20 PUSH1 0x40 MLOAD DUP1 DUP4 SUB DUP2 PUSH1 0x0 DUP8 GAS CALL ISZERO DUP1 ISZERO PUSH2 0x1030 JUMPI RETURNDATASIZE PUSH1 0x0 DUP1 RETURNDATACOPY RETURNDATASIZE PUSH1 0x0 REVERT JUMPDEST POP POP POP POP PUSH1 0x40 MLOAD RETURNDATASIZE PUSH1 0x1F NOT PUSH1 0x1F DUP3 ADD AND DUP3 ADD DUP1 PUSH1 0x40 MSTORE POP DUP2 ADD SWAP1 PUSH2 0x1054 SWAP2 SWAP1 PUSH2 0x37D9 JUMP JUMPDEST PUSH2 0x1070 JUMPI PUSH1 0x40 MLOAD PUSH3 0x461BCD PUSH1 0xE5 SHL DUP2 MSTORE PUSH1 0x4 ADD PUSH2 0x283 SWAP1 PUSH2 0x37F6 JUMP JUMPDEST PUSH1 0x7 SLOAD PUSH1 0x40 DUP1 MLOAD DUP6 DUP2 MSTORE PUSH1 0x60 PUSH1 0x20 DUP3 ADD DUP2 SWAP1 MSTORE PUSH1 0x19 SWAP1 DUP3 ADD MSTORE PUSH32 0x547275737465642077616C6C6574207769746864726177616C00000000000000 PUSH1 0x80 DUP3 ADD MSTORE TIMESTAMP DUP2 DUP4 ADD MSTORE SWAP1 MLOAD PUSH1 0x1 PUSH1 0x1 PUSH1 0xA0 SHL SUB SWAP3 DUP4 AND SWAP3 DUP8 AND SWAP2 PUSH32 0xF15709E6648C1E4BCA994535D6D1BD2A88CD17ED5BCD5A187B2AD634720C7564 SWAP2 SWAP1 DUP2 SWAP1 SUB PUSH1 0xA0 ADD SWAP1 LOG3 POP POP POP POP JUMP JUMPDEST PUSH2 0x10FE PUSH2 0x300A JUMP JUMPDEST PUSH2 0x1106 PUSH2 0x3034 JUMP JUMPDEST PUSH1 0x15 SLOAD PUSH1 0xFF AND ISZERO PUSH2 0x114F JUMPI PUSH1 0x40 MLOAD PUSH3 0x461BCD PUSH1 0xE5 SHL DUP2 MSTORE PUSH1 0x20 PUSH1 0x4 DUP3 ADD MSTORE PUSH1 0x13 PUSH1 0x24 DUP3 ADD MSTORE PUSH19 0x4D6F646520757267656E636520616374697665 PUSH1 0x68 SHL PUSH1 0x44 DUP3 ADD MSTORE PUSH1 0x64 ADD PUSH2 0x283 JUMP JUMPDEST PUSH1 0x1 PUSH1 0x1 PUSH1 0xA0 SHL SUB DUP3 AND PUSH1 0x0 SWAP1 DUP2 MSTORE PUSH1 0x4 PUSH1 0x20 MSTORE PUSH1 0x40 SWAP1 KECCAK256 SLOAD DUP3 SWAP1 PUSH1 0xFF AND PUSH2 0x1189 JUMPI PUSH1 0x40 MLOAD PUSH3 0x461BCD PUSH1 0xE5 SHL DUP2 MSTORE PUSH1 0x4 ADD PUSH2 0x283 SWAP1 PUSH2 0x39DF JUMP JUMPDEST DUP2 PUSH1 0x0 DUP2 GT PUSH2 0x11AA JUMPI PUSH1 0x40 MLOAD PUSH3 0x461BCD PUSH1 0xE5 SHL DUP2 MSTORE PUSH1 0x4 ADD PUSH2 0x283 SWAP1 PUSH2 0x37AF JUMP JUMPDEST PUSH1 0x14 SLOAD DUP4 LT ISZERO PUSH2 0x11FC JUMPI PUSH1 0x40 MLOAD PUSH3 0x461BCD PUSH1 0xE5 SHL DUP2 MSTORE PUSH1 0x20 PUSH1 0x4 DUP3 ADD MSTORE PUSH1 0x1C PUSH1 0x24 DUP3 ADD MSTORE PUSH32 0x4D6F6E74616E7420696E66657269657572206175206D696E696D756D00000000 PUSH1 0x44 DUP3 ADD MSTORE PUSH1 0x64 ADD PUSH2 0x283 JUMP JUMPDEST PUSH1 0x1 PUSH1 0x1 PUSH1 0xA0 SHL SUB DUP5 AND PUSH1 0x0 SWAP1 DUP2 MSTORE PUSH1 0x6 PUSH1 0x20 MSTORE PUSH1 0x40 SWAP1 KECCAK256 SLOAD DUP4 GT ISZERO PUSH2 0x1264 JUMPI PUSH1 0x40 MLOAD PUSH3 0x461BCD PUSH1 0xE5 SHL DUP2 MSTORE PUSH1 0x20 PUSH1 0x4 DUP3 ADD MSTORE PUSH1 0x1C PUSH1 0x24 DUP3 ADD MSTORE PUSH32 0x4D6F6E74616E7420737570657269657572206175206D6178696D756D00000000 PUSH1 0x44 DUP3 ADD MSTORE PUSH1 0x64 ADD PUSH2 0x283 JUMP JUMPDEST PUSH1 0x0 DUP5 PUSH1 0x1 PUSH1 0x1 PUSH1 0xA0 SHL SUB AND PUSH4 0x313CE567 PUSH1 0x40 MLOAD DUP2 PUSH4 0xFFFFFFFF AND PUSH1 0xE0 SHL DUP2 MSTORE PUSH1 0x4 ADD PUSH1 0x20 PUSH1 0x40 MLOAD DUP1 DUP4 SUB DUP2 DUP7 GAS STATICCALL ISZERO DUP1 ISZERO PUSH2 0x12A4 JUMPI RETURNDATASIZE PUSH1 0x0 DUP1 RETURNDATACOPY RETURNDATASIZE PUSH1 0x0 REVERT JUMPDEST POP POP POP POP PUSH1 0x40 MLOAD RETURNDATASIZE PUSH1 0x1F NOT PUSH1 0x1F DUP3 ADD AND DUP3 ADD DUP1 PUSH1 0x40 MSTORE POP DUP2 ADD SWAP1 PUSH2 0x12C8 SWAP2 SWAP1 PUSH2 0x3A0B JUMP JUMPDEST SWAP1 POP DUP1 PUSH1 0xFF AND PUSH1 0x6 EQ PUSH2 0x131D JUMPI PUSH1 0x40 MLOAD PUSH3 0x461BCD PUSH1 0xE5 SHL DUP2 MSTORE PUSH1 0x20 PUSH1 0x4 DUP3 ADD MSTORE PUSH1 0x1C PUSH1 0x24 DUP3 ADD MSTORE PUSH32 0x546F6B656E20646F69742061766F6972203620646563696D616C657300000000 PUSH1 0x44 DUP3 ADD MSTORE PUSH1 0x64 ADD PUSH2 0x283 JUMP JUMPDEST PUSH1 0x40 MLOAD PUSH4 0x23B872DD PUSH1 0xE0 SHL DUP2 MSTORE CALLER PUSH1 0x4 DUP3 ADD MSTORE ADDRESS PUSH1 0x24 DUP3 ADD MSTORE PUSH1 0x44 DUP2 ADD DUP6 SWAP1 MSTORE PUSH1 0x1 PUSH1 0x1 PUSH1 0xA0 SHL SUB DUP7 AND SWAP1 PUSH4 0x23B872DD SWAP1 PUSH1 0x64 ADD PUSH1 0x20 PUSH1 0x40 MLOAD DUP1 DUP4 SUB DUP2 PUSH1 0x0 DUP8 GAS CALL ISZERO DUP1 ISZERO PUSH2 0x1370 JUMPI RETURNDATASIZE PUSH1 0x0 DUP1 RETURNDATACOPY RETURNDATASIZE PUSH1 0x0 REVERT JUMPDEST POP POP POP POP PUSH1 0x40 MLOAD RETURNDATASIZE PUSH1 0x1F NOT PUSH1 0x1F DUP3 ADD AND DUP3 ADD DUP1 PUSH1 0x40 MSTORE POP DUP2 ADD SWAP1 PUSH2 0x1394 SWAP2 SWAP1 PUSH2 0x37D9 JUMP JUMPDEST PUSH2 0x13B0 JUMPI PUSH1 0x40 MLOAD PUSH3 0x461BCD PUSH1 0xE5 SHL DUP2 MSTORE PUSH1 0x4 ADD PUSH2 0x283 SWAP1 PUSH2 0x37F6 JUMP JUMPDEST PUSH1 0x0 PUSH2 0x13BC DUP7 DUP7 PUSH2 0x232D JUMP JUMPDEST CALLER PUSH1 0x0 SWAP1 DUP2 MSTORE PUSH1 0x3 PUSH1 0x20 MSTORE PUSH1 0x40 SWAP1 KECCAK256 SWAP1 SWAP2 POP PUSH1 0x1 PUSH1 0x1 PUSH1 0xA0 SHL SUB PUSH32 0x0 DUP2 AND SWAP1 DUP9 AND SUB PUSH2 0x1454 JUMPI DUP2 DUP2 PUSH1 0x0 ADD PUSH1 0x0 DUP3 DUP3 SLOAD PUSH2 0x1415 SWAP2 SWAP1 PUSH2 0x3A44 JUMP JUMPDEST SWAP1 SWAP2 SSTORE POP POP PUSH1 0x8 DUP1 SLOAD DUP8 SWAP2 SWAP1 PUSH1 0x0 SWAP1 PUSH2 0x142F SWAP1 DUP5 SWAP1 PUSH2 0x3A44 JUMP JUMPDEST SWAP1 SWAP2 SSTORE POP POP PUSH1 0xA DUP1 SLOAD DUP4 SWAP2 SWAP1 PUSH1 0x0 SWAP1 PUSH2 0x1449 SWAP1 DUP5 SWAP1 PUSH2 0x3A44 JUMP JUMPDEST SWAP1 SWAP2 SSTORE POP PUSH2 0x14DB SWAP1 POP JUMP JUMPDEST PUSH32 0x0 PUSH1 0x1 PUSH1 0x1 PUSH1 0xA0 SHL SUB AND DUP8 PUSH1 0x1 PUSH1 0x1 PUSH1 0xA0 SHL SUB AND SUB PUSH2 0x14DB JUMPI DUP2 DUP2 PUSH1 0x1 ADD PUSH1 0x0 DUP3 DUP3 SLOAD PUSH2 0x14A1 SWAP2 SWAP1 PUSH2 0x3A44 JUMP JUMPDEST SWAP1 SWAP2 SSTORE POP POP PUSH1 0x9 DUP1 SLOAD DUP8 SWAP2 SWAP1 PUSH1 0x0 SWAP1 PUSH2 0x14BB SWAP1 DUP5 SWAP1 PUSH2 0x3A44 JUMP JUMPDEST SWAP1 SWAP2 SSTORE POP POP PUSH1 0xB DUP1 SLOAD DUP4 SWAP2 SWAP1 PUSH1 0x0 SWAP1 PUSH2 0x14D5 SWAP1 DUP5 SWAP1 PUSH2 0x3A44 JUMP JUMPDEST SWAP1 SWAP2 SSTORE POP POP JUMPDEST DUP6 DUP2 PUSH1 0x2 ADD PUSH1 0x0 DUP3 DUP3 SLOAD PUSH2 0x14EF SWAP2 SWAP1 PUSH2 0x3A44 JUMP JUMPDEST SWAP1 SWAP2 SSTORE POP POP TIMESTAMP PUSH1 0x5 DUP3 ADD SSTORE PUSH1 0x6 DUP2 ADD DUP1 SLOAD SWAP1 PUSH1 0x0 PUSH2 0x150C DUP4 PUSH2 0x3A57 JUMP JUMPDEST SWAP1 SWAP2 SSTORE POP POP TIMESTAMP PUSH1 0x10 DUP2 SWAP1 SSTORE PUSH1 0x40 DUP1 MLOAD DUP9 DUP2 MSTORE PUSH1 0x20 DUP2 ADD DUP6 SWAP1 MSTORE DUP1 DUP3 ADD SWAP3 SWAP1 SWAP3 MSTORE MLOAD PUSH1 0x1 PUSH1 0x1 PUSH1 0xA0 SHL SUB DUP10 AND SWAP2 CALLER SWAP2 PUSH32 0x4E2CA0515ED1AEF1395F66B5303BB5D6F1BF9D61A353FA53F73F8AC9973FA9F6 SWAP2 DUP2 SWAP1 SUB PUSH1 0x60 ADD SWAP1 LOG3 POP POP POP POP POP PUSH2 0x1572 PUSH1 0x1 DUP1 SSTORE JUMP JUMPDEST POP POP JUMP JUMPDEST PUSH2 0x157E PUSH2 0x2911 JUMP JUMPDEST PUSH1 0x15 DUP1 SLOAD PUSH1 0xFF NOT DUP2 AND PUSH1 0xFF SWAP2 DUP3 AND ISZERO SWAP1 DUP2 OR SWAP1 SWAP3 SSTORE AND ISZERO PUSH2 0x15A3 JUMPI PUSH2 0x15A1 PUSH2 0x3058 JUMP JUMPDEST JUMP JUMPDEST PUSH2 0x15A1 PUSH2 0x30B2 JUMP JUMPDEST PUSH1 0x0 DUP1 PUSH1 0x0 PUSH2 0x2710 PUSH1 0x11 SLOAD DUP6 PUSH2 0x15C1 SWAP2 SWAP1 PUSH2 0x3A70 JUMP JUMPDEST PUSH2 0x15CB SWAP2 SWAP1 PUSH2 0x3A87 JUMP JUMPDEST SWAP3 POP PUSH2 0x2710 PUSH1 0x12 SLOAD DUP6 PUSH2 0x15DE SWAP2 SWAP1 PUSH2 0x3A70 JUMP JUMPDEST PUSH2 0x15E8 SWAP2 SWAP1 PUSH2 0x3A87 JUMP JUMPDEST SWAP2 POP DUP2 PUSH2 0x15F5 DUP5 DUP7 PUSH2 0x3AA9 JUMP JUMPDEST PUSH2 0x15FF SWAP2 SWAP1 PUSH2 0x3AA9 JUMP JUMPDEST SWAP3 SWAP5 SWAP2 SWAP4 POP POP JUMP JUMPDEST PUSH2 0x164F PUSH1 0x40 MLOAD DUP1 PUSH2 0x100 ADD PUSH1 0x40 MSTORE DUP1 PUSH1 0x0 DUP2 MSTORE PUSH1 0x20 ADD PUSH1 0x0 DUP2 MSTORE PUSH1 0x20 ADD PUSH1 0x0 DUP2 MSTORE PUSH1 0x20 ADD PUSH1 0x0 DUP2 MSTORE PUSH1 0x20 ADD PUSH1 0x0 DUP2 MSTORE PUSH1 0x20 ADD PUSH1 0x0 DUP2 MSTORE PUSH1 0x20 ADD PUSH1 0x0 DUP2 MSTORE PUSH1 0x20 ADD PUSH1 0x0 DUP2 MSTORE POP SWAP1 JUMP JUMPDEST POP PUSH1 0x1 PUSH1 0x1 PUSH1 0xA0 SHL SUB AND PUSH1 0x0 SWAP1 DUP2 MSTORE PUSH1 0x3 PUSH1 0x20 DUP2 DUP2 MSTORE PUSH1 0x40 SWAP3 DUP4 SWAP1 KECCAK256 DUP4 MLOAD PUSH2 0x100 DUP2 ADD DUP6 MSTORE DUP2 SLOAD DUP2 MSTORE PUSH1 0x1 DUP3 ADD SLOAD SWAP3 DUP2 ADD SWAP3 SWAP1 SWAP3 MSTORE PUSH1 0x2 DUP2 ADD SLOAD SWAP4 DUP3 ADD SWAP4 SWAP1 SWAP4 MSTORE SWAP1 DUP3 ADD SLOAD PUSH1 0x60 DUP3 ADD MSTORE PUSH1 0x4 DUP3 ADD SLOAD PUSH1 0x80 DUP3 ADD MSTORE PUSH1 0x5 DUP3 ADD SLOAD PUSH1 0xA0 DUP3 ADD MSTORE PUSH1 0x6 DUP3 ADD SLOAD PUSH1 0xC0 DUP3 ADD MSTORE PUSH1 0x7 SWAP1 SWAP2 ADD SLOAD PUSH1 0xE0 DUP3 ADD MSTORE SWAP1 JUMP JUMPDEST PUSH2 0x16CD PUSH2 0x300A JUMP JUMPDEST PUSH2 0x16D5 PUSH2 0x3034 JUMP JUMPDEST PUSH1 0x15 SLOAD PUSH1 0xFF AND ISZERO PUSH2 0x171E JUMPI PUSH1 0x40 MLOAD PUSH3 0x461BCD PUSH1 0xE5 SHL DUP2 MSTORE PUSH1 0x20 PUSH1 0x4 DUP3 ADD MSTORE PUSH1 0x13 PUSH1 0x24 DUP3 ADD MSTORE PUSH19 0x4D6F646520757267656E636520616374697665 PUSH1 0x68 SHL PUSH1 0x44 DUP3 ADD MSTORE PUSH1 0x64 ADD PUSH2 0x283 JUMP JUMPDEST PUSH2 0x172B PUSH1 0x20 DUP3 ADD DUP3 PUSH2 0x34FE JUMP JUMPDEST PUSH1 0x1 PUSH1 0x1 PUSH1 0xA0 SHL SUB DUP2 AND PUSH1 0x0 SWAP1 DUP2 MSTORE PUSH1 0x4 PUSH1 0x20 MSTORE PUSH1 0x40 SWAP1 KECCAK256 SLOAD PUSH1 0xFF AND PUSH2 0x1763 JUMPI PUSH1 0x40 MLOAD PUSH3 0x461BCD PUSH1 0xE5 SHL DUP2 MSTORE PUSH1 0x4 ADD PUSH2 0x283 SWAP1 PUSH2 0x39DF JUMP JUMPDEST PUSH2 0x1773 PUSH1 0x60 DUP4 ADD PUSH1 0x40 DUP5 ADD PUSH2 0x34FE JUMP JUMPDEST PUSH1 0x1 PUSH1 0x1 PUSH1 0xA0 SHL SUB DUP2 AND PUSH1 0x0 SWAP1 DUP2 MSTORE PUSH1 0x5 PUSH1 0x20 MSTORE PUSH1 0x40 SWAP1 KECCAK256 SLOAD PUSH1 0xFF AND PUSH2 0x17CE JUMPI PUSH1 0x40 MLOAD PUSH3 0x461BCD PUSH1 0xE5 SHL DUP2 MSTORE PUSH1 0x20 PUSH1 0x4 DUP3 ADD MSTORE PUSH1 0x10 PUSH1 0x24 DUP3 ADD MSTORE PUSH16 0x444558206E6F6E206175746F72697365 PUSH1 0x80 SHL PUSH1 0x44 DUP3 ADD MSTORE PUSH1 0x64 ADD PUSH2 0x283 JUMP JUMPDEST PUSH2 0x17DE PUSH1 0x80 DUP5 ADD PUSH1 0x60 DUP6 ADD PUSH2 0x34FE JUMP JUMPDEST PUSH1 0x1 PUSH1 0x1 PUSH1 0xA0 SHL SUB DUP2 AND PUSH1 0x0 SWAP1 DUP2 MSTORE PUSH1 0x5 PUSH1 0x20 MSTORE PUSH1 0x40 SWAP1 KECCAK256 SLOAD PUSH1 0xFF AND PUSH2 0x1839 JUMPI PUSH1 0x40 MLOAD PUSH3 0x461BCD PUSH1 0xE5 SHL DUP2 MSTORE PUSH1 0x20 PUSH1 0x4 DUP3 ADD MSTORE PUSH1 0x10 PUSH1 0x24 DUP3 ADD MSTORE PUSH16 0x444558206E6F6E206175746F72697365 PUSH1 0x80 SHL PUSH1 0x44 DUP3 ADD MSTORE PUSH1 0x64 ADD PUSH2 0x283 JUMP JUMPDEST PUSH1 0x13 SLOAD DUP5 PUSH1 0x80 ADD CALLDATALOAD GT ISZERO PUSH2 0x1884 JUMPI PUSH1 0x40 MLOAD PUSH3 0x461BCD PUSH1 0xE5 SHL DUP2 MSTORE PUSH1 0x20 PUSH1 0x4 DUP3 ADD MSTORE PUSH1 0x12 PUSH1 0x24 DUP3 ADD MSTORE PUSH18 0x4D6F6E74616E742074726F7020656C657665 PUSH1 0x70 SHL PUSH1 0x44 DUP3 ADD MSTORE PUSH1 0x64 ADD PUSH2 0x283 JUMP JUMPDEST PUSH1 0xA DUP5 PUSH1 0xA0 ADD CALLDATALOAD LT ISZERO PUSH2 0x18D9 JUMPI PUSH1 0x40 MLOAD PUSH3 0x461BCD PUSH1 0xE5 SHL DUP2 MSTORE PUSH1 0x20 PUSH1 0x4 DUP3 ADD MSTORE PUSH1 0x1A PUSH1 0x24 DUP3 ADD MSTORE PUSH32 0x50726F666974206D696E696D756D2074726F7020666169626C65000000000000 PUSH1 0x44 DUP3 ADD MSTORE PUSH1 0x64 ADD PUSH2 0x283 JUMP JUMPDEST TIMESTAMP DUP5 PUSH2 0x100 ADD CALLDATALOAD GT PUSH2 0x1920 JUMPI PUSH1 0x40 MLOAD PUSH3 0x461BCD PUSH1 0xE5 SHL DUP2 MSTORE PUSH1 0x20 PUSH1 0x4 DUP3 ADD MSTORE PUSH1 0x10 PUSH1 0x24 DUP3 ADD MSTORE PUSH16 0x446561646C696E652065787069726565 PUSH1 0x80 SHL PUSH1 0x44 DUP3 ADD MSTORE PUSH1 0x64 ADD PUSH2 0x283 JUMP JUMPDEST PUSH1 0x0 PUSH2 0x192B DUP6 PUSH2 0x991 JUMP JUMPDEST SWAP1 POP PUSH1 0x0 DUP2 GT PUSH2 0x197D JUMPI PUSH1 0x40 MLOAD PUSH3 0x461BCD PUSH1 0xE5 SHL DUP2 MSTORE PUSH1 0x20 PUSH1 0x4 DUP3 ADD MSTORE PUSH1 0x18 PUSH1 0x24 DUP3 ADD MSTORE PUSH32 0x417262697472616765206E6F6E2070726F66697461626C650000000000000000 PUSH1 0x44 DUP3 ADD MSTORE PUSH1 0x64 ADD PUSH2 0x283 JUMP JUMPDEST PUSH1 0x0 PUSH1 0x40 MLOAD DUP1 PUSH1 0xC0 ADD PUSH1 0x40 MSTORE DUP1 DUP8 DUP1 CALLDATASIZE SUB DUP2 ADD SWAP1 PUSH2 0x199B SWAP2 SWAP1 PUSH2 0x3ABC JUMP JUMPDEST DUP2 MSTORE CALLER PUSH1 0x20 DUP1 DUP4 ADD SWAP2 SWAP1 SWAP2 MSTORE PUSH1 0x40 DUP1 DUP4 ADD DUP7 SWAP1 MSTORE PUSH1 0x0 PUSH1 0x60 DUP5 ADD DUP2 SWAP1 MSTORE DUP2 MLOAD DUP2 DUP2 MSTORE DUP1 DUP5 ADD DUP4 MSTORE PUSH1 0x80 DUP6 ADD MSTORE DUP2 MLOAD DUP2 DUP2 MSTORE DUP1 DUP5 ADD DUP4 MSTORE PUSH1 0xA0 SWAP1 SWAP5 ADD SWAP4 SWAP1 SWAP4 MSTORE MLOAD SWAP3 SWAP4 POP SWAP1 SWAP2 PUSH2 0x19EC SWAP2 DUP5 SWAP2 ADD PUSH2 0x3B87 JUMP JUMPDEST PUSH1 0x40 DUP1 MLOAD PUSH1 0x1F NOT DUP2 DUP5 SUB ADD DUP2 MSTORE SWAP2 SWAP1 MSTORE SWAP1 POP PUSH1 0x1 PUSH1 0x1 PUSH1 0xA0 SHL SUB PUSH32 0x0 AND PUSH4 0x42B0B77C ADDRESS PUSH2 0x1A3B PUSH1 0x20 DUP12 ADD DUP12 PUSH2 0x34FE JUMP JUMPDEST DUP11 PUSH1 0x80 ADD CALLDATALOAD DUP6 PUSH1 0x0 PUSH1 0x40 MLOAD DUP7 PUSH4 0xFFFFFFFF AND PUSH1 0xE0 SHL DUP2 MSTORE PUSH1 0x4 ADD PUSH2 0x1A63 SWAP6 SWAP5 SWAP4 SWAP3 SWAP2 SWAP1 PUSH2 0x3C3D JUMP JUMPDEST PUSH1 0x0 PUSH1 0x40 MLOAD DUP1 DUP4 SUB DUP2 PUSH1 0x0 DUP8 DUP1 EXTCODESIZE ISZERO DUP1 ISZERO PUSH2 0x1A7D JUMPI PUSH1 0x0 DUP1 REVERT JUMPDEST POP GAS CALL ISZERO DUP1 ISZERO PUSH2 0x1A91 JUMPI RETURNDATASIZE PUSH1 0x0 DUP1 RETURNDATACOPY RETURNDATASIZE PUSH1 0x0 REVERT JUMPDEST POP POP POP POP POP POP POP POP POP POP PUSH2 0x1AA4 PUSH1 0x1 DUP1 SSTORE JUMP JUMPDEST POP JUMP JUMPDEST PUSH2 0x1AAF PUSH2 0x2911 JUMP JUMPDEST PUSH2 0x3E8 PUSH2 0x1ABC DUP3 DUP5 PUSH2 0x3A44 JUMP JUMPDEST GT ISZERO PUSH2 0x1AFE JUMPI PUSH1 0x40 MLOAD PUSH3 0x461BCD PUSH1 0xE5 SHL DUP2 MSTORE PUSH1 0x20 PUSH1 0x4 DUP3 ADD MSTORE PUSH1 0x11 PUSH1 0x24 DUP3 ADD MSTORE PUSH17 0x46726169732074726F7020656C65766573 PUSH1 0x78 SHL PUSH1 0x44 DUP3 ADD MSTORE PUSH1 0x64 ADD PUSH2 0x283 JUMP JUMPDEST PUSH1 0x11 DUP1 SLOAD SWAP1 DUP4 SWAP1 SSTORE PUSH1 0x12 DUP3 SWAP1 SSTORE PUSH1 0x40 DUP1 MLOAD DUP3 DUP2 MSTORE PUSH1 0x20 DUP2 ADD DUP6 SWAP1 MSTORE PUSH32 0xD347E206F25A89B917FC9482F1A2D294D749BAA4DC9BDE7FB495EE11FE491643 SWAP2 ADD PUSH1 0x40 MLOAD DUP1 SWAP2 SUB SWAP1 LOG1 POP POP POP JUMP JUMPDEST PUSH2 0x1B51 PUSH2 0x2911 JUMP JUMPDEST PUSH2 0x15A1 PUSH1 0x0 PUSH2 0x30EB JUMP JUMPDEST PUSH1 0x40 DUP1 MLOAD PUSH1 0x2 DUP1 DUP3 MSTORE PUSH1 0x60 DUP3 ADD DUP4 MSTORE PUSH1 0x0 SWAP3 DUP4 SWAP3 SWAP2 SWAP1 PUSH1 0x20 DUP4 ADD SWAP1 DUP1 CALLDATASIZE DUP4 CALLDATACOPY ADD SWAP1 POP POP SWAP1 POP PUSH2 0x1B90 PUSH1 0xE0 DUP5 ADD PUSH1 0xC0 DUP6 ADD PUSH2 0x3CB5 JUMP JUMPDEST PUSH2 0x1E35 JUMPI PUSH2 0x1BA1 PUSH1 0x20 DUP5 ADD DUP5 PUSH2 0x34FE JUMP JUMPDEST DUP2 PUSH1 0x0 DUP2 MLOAD DUP2 LT PUSH2 0x1BB4 JUMPI PUSH2 0x1BB4 PUSH2 0x3CD2 JUMP JUMPDEST PUSH1 0x1 PUSH1 0x1 PUSH1 0xA0 SHL SUB SWAP1 SWAP3 AND PUSH1 0x20 SWAP3 DUP4 MUL SWAP2 SWAP1 SWAP2 ADD DUP3 ADD MSTORE PUSH2 0x1BDB SWAP1 PUSH1 0x40 DUP6 ADD SWAP1 DUP6 ADD PUSH2 0x34FE JUMP JUMPDEST DUP2 PUSH1 0x1 DUP2 MLOAD DUP2 LT PUSH2 0x1BEE JUMPI PUSH2 0x1BEE PUSH2 0x3CD2 JUMP JUMPDEST PUSH1 0x1 PUSH1 0x1 PUSH1 0xA0 SHL SUB SWAP1 SWAP3 AND PUSH1 0x20 SWAP3 DUP4 MUL SWAP2 SWAP1 SWAP2 ADD SWAP1 SWAP2 ADD MSTORE PUSH1 0x0 PUSH2 0x1C18 PUSH1 0x60 DUP6 ADD PUSH1 0x40 DUP7 ADD PUSH2 0x34FE JUMP JUMPDEST PUSH1 0x1 PUSH1 0x1 PUSH1 0xA0 SHL SUB AND PUSH4 0xD06CA61F DUP6 PUSH1 0x80 ADD CALLDATALOAD DUP5 PUSH1 0x40 MLOAD DUP4 PUSH4 0xFFFFFFFF AND PUSH1 0xE0 SHL DUP2 MSTORE PUSH1 0x4 ADD PUSH2 0x1C49 SWAP3 SWAP2 SWAP1 PUSH2 0x3D21 JUMP JUMPDEST PUSH1 0x0 PUSH1 0x40 MLOAD DUP1 DUP4 SUB DUP2 DUP7 GAS STATICCALL ISZERO DUP1 ISZERO PUSH2 0x1C66 JUMPI RETURNDATASIZE PUSH1 0x0 DUP1 RETURNDATACOPY RETURNDATASIZE PUSH1 0x0 REVERT JUMPDEST POP POP POP POP PUSH1 0x40 MLOAD RETURNDATASIZE PUSH1 0x0 DUP3 RETURNDATACOPY PUSH1 0x1F RETURNDATASIZE SWAP1 DUP2 ADD PUSH1 0x1F NOT AND DUP3 ADD PUSH1 0x40 MSTORE PUSH2 0x1C8E SWAP2 SWAP1 DUP2 ADD SWAP1 PUSH2 0x3D42 JUMP JUMPDEST SWAP1 POP PUSH1 0x0 PUSH2 0x2710 PUSH2 0x1CA3 PUSH1 0xE0 DUP8 ADD CALLDATALOAD DUP3 PUSH2 0x3AA9 JUMP JUMPDEST DUP4 PUSH1 0x1 DUP2 MLOAD DUP2 LT PUSH2 0x1CB6 JUMPI PUSH2 0x1CB6 PUSH2 0x3CD2 JUMP JUMPDEST PUSH1 0x20 MUL PUSH1 0x20 ADD ADD MLOAD PUSH2 0x1CC8 SWAP2 SWAP1 PUSH2 0x3A70 JUMP JUMPDEST PUSH2 0x1CD2 SWAP2 SWAP1 PUSH2 0x3A87 JUMP JUMPDEST SWAP1 POP PUSH2 0x1CE4 PUSH1 0x40 DUP7 ADD PUSH1 0x20 DUP8 ADD PUSH2 0x34FE JUMP JUMPDEST DUP4 PUSH1 0x0 DUP2 MLOAD DUP2 LT PUSH2 0x1CF7 JUMPI PUSH2 0x1CF7 PUSH2 0x3CD2 JUMP JUMPDEST PUSH1 0x1 PUSH1 0x1 PUSH1 0xA0 SHL SUB SWAP1 SWAP3 AND PUSH1 0x20 SWAP3 DUP4 MUL SWAP2 SWAP1 SWAP2 ADD DUP3 ADD MSTORE PUSH2 0x1D1A SWAP1 DUP7 ADD DUP7 PUSH2 0x34FE JUMP JUMPDEST DUP4 PUSH1 0x1 DUP2 MLOAD DUP2 LT PUSH2 0x1D2D JUMPI PUSH2 0x1D2D PUSH2 0x3CD2 JUMP JUMPDEST PUSH1 0x1 PUSH1 0x1 PUSH1 0xA0 SHL SUB SWAP1 SWAP3 AND PUSH1 0x20 SWAP3 DUP4 MUL SWAP2 SWAP1 SWAP2 ADD SWAP1 SWAP2 ADD MSTORE PUSH1 0x0 PUSH2 0x1D57 PUSH1 0x80 DUP8 ADD PUSH1 0x60 DUP9 ADD PUSH2 0x34FE JUMP JUMPDEST PUSH1 0x1 PUSH1 0x1 PUSH1 0xA0 SHL SUB AND PUSH4 0xD06CA61F DUP4 DUP7 PUSH1 0x40 MLOAD DUP4 PUSH4 0xFFFFFFFF AND PUSH1 0xE0 SHL DUP2 MSTORE PUSH1 0x4 ADD PUSH2 0x1D84 SWAP3 SWAP2 SWAP1 PUSH2 0x3D21 JUMP JUMPDEST PUSH1 0x0 PUSH1 0x40 MLOAD DUP1 DUP4 SUB DUP2 DUP7 GAS STATICCALL ISZERO DUP1 ISZERO PUSH2 0x1DA1 JUMPI RETURNDATASIZE PUSH1 0x0 DUP1 RETURNDATACOPY RETURNDATASIZE PUSH1 0x0 REVERT JUMPDEST POP POP POP POP PUSH1 0x40 MLOAD RETURNDATASIZE PUSH1 0x0 DUP3 RETURNDATACOPY PUSH1 0x1F RETURNDATASIZE SWAP1 DUP2 ADD PUSH1 0x1F NOT AND DUP3 ADD PUSH1 0x40 MSTORE PUSH2 0x1DC9 SWAP2 SWAP1 DUP2 ADD SWAP1 PUSH2 0x3D42 JUMP JUMPDEST SWAP1 POP PUSH1 0x0 PUSH2 0x2710 PUSH2 0x1DDE PUSH1 0xE0 DUP10 ADD CALLDATALOAD DUP3 PUSH2 0x3AA9 JUMP JUMPDEST DUP4 PUSH1 0x1 DUP2 MLOAD DUP2 LT PUSH2 0x1DF1 JUMPI PUSH2 0x1DF1 PUSH2 0x3CD2 JUMP JUMPDEST PUSH1 0x20 MUL PUSH1 0x20 ADD ADD MLOAD PUSH2 0x1E03 SWAP2 SWAP1 PUSH2 0x3A70 JUMP JUMPDEST PUSH2 0x1E0D SWAP2 SWAP1 PUSH2 0x3A87 JUMP JUMPDEST SWAP1 POP DUP7 PUSH1 0x80 ADD CALLDATALOAD DUP2 GT ISZERO PUSH2 0x1E2C JUMPI PUSH2 0x1E29 PUSH1 0x80 DUP9 ADD CALLDATALOAD DUP3 PUSH2 0x3AA9 JUMP JUMPDEST SWAP6 POP JUMPDEST POP POP POP POP PUSH2 0x20D2 JUMP JUMPDEST PUSH2 0x1E42 PUSH1 0x20 DUP5 ADD DUP5 PUSH2 0x34FE JUMP JUMPDEST DUP2 PUSH1 0x0 DUP2 MLOAD DUP2 LT PUSH2 0x1E55 JUMPI PUSH2 0x1E55 PUSH2 0x3CD2 JUMP JUMPDEST PUSH1 0x1 PUSH1 0x1 PUSH1 0xA0 SHL SUB SWAP1 SWAP3 AND PUSH1 0x20 SWAP3 DUP4 MUL SWAP2 SWAP1 SWAP2 ADD DUP3 ADD MSTORE PUSH2 0x1E7C SWAP1 PUSH1 0x40 DUP6 ADD SWAP1 DUP6 ADD PUSH2 0x34FE JUMP JUMPDEST DUP2 PUSH1 0x1 DUP2 MLOAD DUP2 LT PUSH2 0x1E8F JUMPI PUSH2 0x1E8F PUSH2 0x3CD2 JUMP JUMPDEST PUSH1 0x1 PUSH1 0x1 PUSH1 0xA0 SHL SUB SWAP1 SWAP3 AND PUSH1 0x20 SWAP3 DUP4 MUL SWAP2 SWAP1 SWAP2 ADD SWAP1 SWAP2 ADD MSTORE PUSH1 0x0 PUSH2 0x1EB9 PUSH1 0x80 DUP6 ADD PUSH1 0x60 DUP7 ADD PUSH2 0x34FE JUMP JUMPDEST PUSH1 0x1 PUSH1 0x1 PUSH1 0xA0 SHL SUB AND PUSH4 0xD06CA61F DUP6 PUSH1 0x80 ADD CALLDATALOAD DUP5 PUSH1 0x40 MLOAD DUP4 PUSH4 0xFFFFFFFF AND PUSH1 0xE0 SHL DUP2 MSTORE PUSH1 0x4 ADD PUSH2 0x1EEA SWAP3 SWAP2 SWAP1 PUSH2 0x3D21 JUMP JUMPDEST PUSH1 0x0 PUSH1 0x40 MLOAD DUP1 DUP4 SUB DUP2 DUP7 GAS STATICCALL ISZERO DUP1 ISZERO PUSH2 0x1F07 JUMPI RETURNDATASIZE PUSH1 0x0 DUP1 RETURNDATACOPY RETURNDATASIZE PUSH1 0x0 REVERT JUMPDEST POP POP POP POP PUSH1 0x40 MLOAD RETURNDATASIZE PUSH1 0x0 DUP3 RETURNDATACOPY PUSH1 0x1F RETURNDATASIZE SWAP1 DUP2 ADD PUSH1 0x1F NOT AND DUP3 ADD PUSH1 0x40 MSTORE PUSH2 0x1F2F SWAP2 SWAP1 DUP2 ADD SWAP1 PUSH2 0x3D42 JUMP JUMPDEST SWAP1 POP PUSH1 0x0 PUSH2 0x2710 PUSH2 0x1F44 PUSH1 0xE0 DUP8 ADD CALLDATALOAD DUP3 PUSH2 0x3AA9 JUMP JUMPDEST DUP4 PUSH1 0x1 DUP2 MLOAD DUP2 LT PUSH2 0x1F57 JUMPI PUSH2 0x1F57 PUSH2 0x3CD2 JUMP JUMPDEST PUSH1 0x20 MUL PUSH1 0x20 ADD ADD MLOAD PUSH2 0x1F69 SWAP2 SWAP1 PUSH2 0x3A70 JUMP JUMPDEST PUSH2 0x1F73 SWAP2 SWAP1 PUSH2 0x3A87 JUMP JUMPDEST SWAP1 POP PUSH2 0x1F85 PUSH1 0x40 DUP7 ADD PUSH1 0x20 DUP8 ADD PUSH2 0x34FE JUMP JUMPDEST DUP4 PUSH1 0x0 DUP2 MLOAD DUP2 LT PUSH2 0x1F98 JUMPI PUSH2 0x1F98 PUSH2 0x3CD2 JUMP JUMPDEST PUSH1 0x1 PUSH1 0x1 PUSH1 0xA0 SHL SUB SWAP1 SWAP3 AND PUSH1 0x20 SWAP3 DUP4 MUL SWAP2 SWAP1 SWAP2 ADD DUP3 ADD MSTORE PUSH2 0x1FBB SWAP1 DUP7 ADD DUP7 PUSH2 0x34FE JUMP JUMPDEST DUP4 PUSH1 0x1 DUP2 MLOAD DUP2 LT PUSH2 0x1FCE JUMPI PUSH2 0x1FCE PUSH2 0x3CD2 JUMP JUMPDEST PUSH1 0x1 PUSH1 0x1 PUSH1 0xA0 SHL SUB SWAP1 SWAP3 AND PUSH1 0x20 SWAP3 DUP4 MUL SWAP2 SWAP1 SWAP2 ADD SWAP1 SWAP2 ADD MSTORE PUSH1 0x0 PUSH2 0x1FF8 PUSH1 0x60 DUP8 ADD PUSH1 0x40 DUP9 ADD PUSH2 0x34FE JUMP JUMPDEST PUSH1 0x1 PUSH1 0x1 PUSH1 0xA0 SHL SUB AND PUSH4 0xD06CA61F DUP4 DUP7 PUSH1 0x40 MLOAD DUP4 PUSH4 0xFFFFFFFF AND PUSH1 0xE0 SHL DUP2 MSTORE PUSH1 0x4 ADD PUSH2 0x2025 SWAP3 SWAP2 SWAP1 PUSH2 0x3D21 JUMP JUMPDEST PUSH1 0x0 PUSH1 0x40 MLOAD DUP1 DUP4 SUB DUP2 DUP7 GAS STATICCALL ISZERO DUP1 ISZERO PUSH2 0x2042 JUMPI RETURNDATASIZE PUSH1 0x0 DUP1 RETURNDATACOPY RETURNDATASIZE PUSH1 0x0 REVERT JUMPDEST POP POP POP POP PUSH1 0x40 MLOAD RETURNDATASIZE PUSH1 0x0 DUP3 RETURNDATACOPY PUSH1 0x1F RETURNDATASIZE SWAP1 DUP2 ADD PUSH1 0x1F NOT AND DUP3 ADD PUSH1 0x40 MSTORE PUSH2 0x206A SWAP2 SWAP1 DUP2 ADD SWAP1 PUSH2 0x3D42 JUMP JUMPDEST SWAP1 POP PUSH1 0x0 PUSH2 0x2710 PUSH2 0x207F PUSH1 0xE0 DUP10 ADD CALLDATALOAD DUP3 PUSH2 0x3AA9 JUMP JUMPDEST DUP4 PUSH1 0x1 DUP2 MLOAD DUP2 LT PUSH2 0x2092 JUMPI PUSH2 0x2092 PUSH2 0x3CD2 JUMP JUMPDEST PUSH1 0x20 MUL PUSH1 0x20 ADD ADD MLOAD PUSH2 0x20A4 SWAP2 SWAP1 PUSH2 0x3A70 JUMP JUMPDEST PUSH2 0x20AE SWAP2 SWAP1 PUSH2 0x3A87 JUMP JUMPDEST SWAP1 POP DUP7 PUSH1 0x80 ADD CALLDATALOAD DUP2 GT ISZERO PUSH2 0x20CD JUMPI PUSH2 0x20CA PUSH1 0x80 DUP9 ADD CALLDATALOAD DUP3 PUSH2 0x3AA9 JUMP JUMPDEST SWAP6 POP JUMPDEST POP POP POP POP JUMPDEST POP SWAP2 SWAP1 POP JUMP JUMPDEST PUSH2 0x20E0 PUSH2 0x2911 JUMP JUMPDEST PUSH1 0x1 PUSH1 0x1 PUSH1 0xA0 SHL SUB DUP3 AND PUSH1 0x0 DUP2 DUP2 MSTORE PUSH1 0x4 PUSH1 0x20 SWAP1 DUP2 MSTORE PUSH1 0x40 SWAP2 DUP3 SWAP1 KECCAK256 DUP1 SLOAD PUSH1 0xFF NOT AND DUP6 ISZERO ISZERO SWAP1 DUP2 OR SWAP1 SWAP2 SSTORE SWAP2 MLOAD SWAP2 DUP3 MSTORE PUSH32 0xDCEF1C68F04EB69ACE296DE06030DC89D1110F7D56BCA60EDF1B83D9F402078B SWAP2 ADD JUMPDEST PUSH1 0x40 MLOAD DUP1 SWAP2 SUB SWAP1 LOG2 POP POP JUMP JUMPDEST PUSH2 0x2148 PUSH2 0x2911 JUMP JUMPDEST PUSH1 0x1 PUSH1 0x1 PUSH1 0xA0 SHL SUB DUP2 AND PUSH2 0x2191 JUMPI PUSH1 0x40 MLOAD PUSH3 0x461BCD PUSH1 0xE5 SHL DUP2 MSTORE PUSH1 0x20 PUSH1 0x4 DUP3 ADD MSTORE PUSH1 0x10 PUSH1 0x24 DUP3 ADD MSTORE PUSH16 0x4164726573736520696E76616C696465 PUSH1 0x80 SHL PUSH1 0x44 DUP3 ADD MSTORE PUSH1 0x64 ADD PUSH2 0x283 JUMP JUMPDEST PUSH1 0x7 DUP1 SLOAD PUSH1 0x1 PUSH1 0x1 PUSH1 0xA0 SHL SUB DUP4 DUP2 AND PUSH1 0x1 PUSH1 0x1 PUSH1 0xA0 SHL SUB NOT DUP4 AND DUP2 OR SWAP1 SWAP4 SSTORE PUSH1 0x40 MLOAD SWAP2 AND SWAP2 SWAP1 DUP3 SWAP1 PUSH32 0x823D6745ED2E150FF1AEADF0BD2E0F9BE0DF856118E01FDFE1259434E97BF4F3 SWAP1 PUSH1 0x0 SWAP1 LOG3 POP POP JUMP JUMPDEST PUSH2 0x21EB PUSH2 0x2911 JUMP JUMPDEST PUSH1 0x1 PUSH1 0x1 PUSH1 0xA0 SHL SUB DUP3 AND PUSH1 0x0 DUP2 DUP2 MSTORE PUSH1 0x5 PUSH1 0x20 SWAP1 DUP2 MSTORE PUSH1 0x40 SWAP2 DUP3 SWAP1 KECCAK256 DUP1 SLOAD PUSH1 0xFF NOT AND DUP6 ISZERO ISZERO SWAP1 DUP2 OR SWAP1 SWAP2 SSTORE SWAP2 MLOAD SWAP2 DUP3 MSTORE PUSH32 0x683172DF0051F1948F47D4AA064F9466F2FB2FB5053AF387F29E2CCE3DB8A05B SWAP2 ADD PUSH2 0x2134 JUMP JUMPDEST CALLER ADDRESS EQ PUSH2 0x228A JUMPI PUSH1 0x40 MLOAD PUSH3 0x461BCD PUSH1 0xE5 SHL DUP2 MSTORE PUSH1 0x20 PUSH1 0x4 DUP3 ADD MSTORE PUSH1 0x15 PUSH1 0x24 DUP3 ADD MSTORE PUSH21 0x417070656C616E74206E6F6E206175746F72697365 PUSH1 0x58 SHL PUSH1 0x44 DUP3 ADD MSTORE PUSH1 0x64 ADD PUSH2 0x283 JUMP JUMPDEST DUP2 PUSH1 0xC0 ADD MLOAD PUSH2 0x22E3 JUMPI PUSH1 0x0 PUSH2 0x22B8 DUP4 PUSH1 0x40 ADD MLOAD DUP5 PUSH1 0x0 ADD MLOAD DUP6 PUSH1 0x20 ADD MLOAD DUP6 DUP8 PUSH1 0xE0 ADD MLOAD DUP9 PUSH2 0x100 ADD MLOAD PUSH2 0x313B JUMP JUMPDEST SWAP1 POP PUSH2 0x22DD DUP4 PUSH1 0x60 ADD MLOAD DUP5 PUSH1 0x20 ADD MLOAD DUP6 PUSH1 0x0 ADD MLOAD DUP5 DUP8 PUSH1 0xE0 ADD MLOAD DUP9 PUSH2 0x100 ADD MLOAD PUSH2 0x313B JUMP JUMPDEST POP POP POP POP JUMP JUMPDEST PUSH1 0x0 PUSH2 0x2308 DUP4 PUSH1 0x60 ADD MLOAD DUP5 PUSH1 0x0 ADD MLOAD DUP6 PUSH1 0x20 ADD MLOAD DUP6 DUP8 PUSH1 0xE0 ADD MLOAD DUP9 PUSH2 0x100 ADD MLOAD PUSH2 0x313B JUMP JUMPDEST SWAP1 POP PUSH2 0x22DD DUP4 PUSH1 0x40 ADD MLOAD DUP5 PUSH1 0x20 ADD MLOAD DUP6 PUSH1 0x0 ADD MLOAD DUP5 DUP8 PUSH1 0xE0 ADD MLOAD DUP9 PUSH2 0x100 ADD MLOAD PUSH2 0x313B JUMP JUMPDEST PUSH1 0x0 PUSH32 0x0 PUSH1 0x1 PUSH1 0x1 PUSH1 0xA0 SHL SUB AND DUP4 PUSH1 0x1 PUSH1 0x1 PUSH1 0xA0 SHL SUB AND SUB PUSH2 0x239A JUMPI PUSH1 0xA SLOAD PUSH1 0x0 SUB PUSH2 0x2379 JUMPI POP DUP1 PUSH2 0x9FC JUMP JUMPDEST PUSH1 0x8 SLOAD PUSH1 0xA SLOAD PUSH2 0x2389 SWAP1 DUP5 PUSH2 0x3A70 JUMP JUMPDEST PUSH2 0x2393 SWAP2 SWAP1 PUSH2 0x3A87 JUMP JUMPDEST SWAP1 POP PUSH2 0x9FC JUMP JUMPDEST PUSH32 0x0 PUSH1 0x1 PUSH1 0x1 PUSH1 0xA0 SHL SUB AND DUP4 PUSH1 0x1 PUSH1 0x1 PUSH1 0xA0 SHL SUB AND SUB PUSH2 0x23F4 JUMPI PUSH1 0xB SLOAD PUSH1 0x0 SUB PUSH2 0x23E4 JUMPI POP DUP1 PUSH2 0x9FC JUMP JUMPDEST PUSH1 0x9 SLOAD PUSH1 0xB SLOAD PUSH2 0x2389 SWAP1 DUP5 PUSH2 0x3A70 JUMP JUMPDEST PUSH1 0x40 MLOAD PUSH3 0x461BCD PUSH1 0xE5 SHL DUP2 MSTORE PUSH1 0x20 PUSH1 0x4 DUP3 ADD MSTORE PUSH1 0x12 PUSH1 0x24 DUP3 ADD MSTORE PUSH18 0x546F6B656E206E6F6E20737570706F727465 PUSH1 0x70 SHL PUSH1 0x44 DUP3 ADD MSTORE PUSH1 0x64 ADD PUSH2 0x283 JUMP JUMPDEST PUSH2 0x2439 PUSH2 0x2911 JUMP JUMPDEST PUSH1 0x1 PUSH1 0x1 PUSH1 0xA0 SHL SUB DUP2 AND PUSH2 0x2463 JUMPI PUSH1 0x40 MLOAD PUSH4 0x1E4FBDF7 PUSH1 0xE0 SHL DUP2 MSTORE PUSH1 0x0 PUSH1 0x4 DUP3 ADD MSTORE PUSH1 0x24 ADD PUSH2 0x283 JUMP JUMPDEST PUSH2 0x1AA4 DUP2 PUSH2 0x30EB JUMP JUMPDEST PUSH2 0x2474 PUSH2 0x300A JUMP JUMPDEST PUSH1 0x1 PUSH1 0x1 PUSH1 0xA0 SHL SUB DUP3 AND PUSH1 0x0 SWAP1 DUP2 MSTORE PUSH1 0x4 PUSH1 0x20 MSTORE PUSH1 0x40 SWAP1 KECCAK256 SLOAD DUP3 SWAP1 PUSH1 0xFF AND PUSH2 0x24AE JUMPI PUSH1 0x40 MLOAD PUSH3 0x461BCD PUSH1 0xE5 SHL DUP2 MSTORE PUSH1 0x4 ADD PUSH2 0x283 SWAP1 PUSH2 0x39DF JUMP JUMPDEST DUP2 PUSH1 0x0 DUP2 GT PUSH2 0x24CF JUMPI PUSH1 0x40 MLOAD PUSH3 0x461BCD PUSH1 0xE5 SHL DUP2 MSTORE PUSH1 0x4 ADD PUSH2 0x283 SWAP1 PUSH2 0x37AF JUMP JUMPDEST CALLER PUSH1 0x0 SWAP1 DUP2 MSTORE PUSH1 0x3 PUSH1 0x20 MSTORE PUSH1 0x40 DUP2 KECCAK256 SWAP1 DUP1 PUSH1 0x1 PUSH1 0x1 PUSH1 0xA0 SHL SUB PUSH32 0x0 DUP2 AND SWAP1 DUP9 AND SUB PUSH2 0x251F JUMPI POP POP DUP1 SLOAD PUSH1 0xA SLOAD PUSH2 0x2563 JUMP JUMPDEST PUSH32 0x0 PUSH1 0x1 PUSH1 0x1 PUSH1 0xA0 SHL SUB AND DUP8 PUSH1 0x1 PUSH1 0x1 PUSH1 0xA0 SHL SUB AND SUB PUSH2 0x23F4 JUMPI POP POP PUSH1 0x1 DUP2 ADD SLOAD PUSH1 0xB SLOAD JUMPDEST DUP2 DUP7 GT ISZERO PUSH2 0x25A9 JUMPI PUSH1 0x40 MLOAD PUSH3 0x461BCD PUSH1 0xE5 SHL DUP2 MSTORE PUSH1 0x20 PUSH1 0x4 DUP3 ADD MSTORE PUSH1 0x13 PUSH1 0x24 DUP3 ADD MSTORE PUSH19 0x506172747320696E737566666973616E746573 PUSH1 0x68 SHL PUSH1 0x44 DUP3 ADD MSTORE PUSH1 0x64 ADD PUSH2 0x283 JUMP JUMPDEST PUSH1 0x0 DUP2 GT PUSH2 0x25F9 JUMPI PUSH1 0x40 MLOAD PUSH3 0x461BCD PUSH1 0xE5 SHL DUP2 MSTORE PUSH1 0x20 PUSH1 0x4 DUP3 ADD MSTORE PUSH1 0x1A PUSH1 0x24 DUP3 ADD MSTORE PUSH32 0x417563756E65207061727420656E2063697263756C6174696F6E000000000000 PUSH1 0x44 DUP3 ADD MSTORE PUSH1 0x64 ADD PUSH2 0x283 JUMP JUMPDEST PUSH1 0x40 MLOAD PUSH4 0x70A08231 PUSH1 0xE0 SHL DUP2 MSTORE ADDRESS PUSH1 0x4 DUP3 ADD MSTORE PUSH1 0x0 SWAP1 PUSH1 0x1 PUSH1 0x1 PUSH1 0xA0 SHL SUB DUP10 AND SWAP1 PUSH4 0x70A08231 SWAP1 PUSH1 0x24 ADD PUSH1 0x20 PUSH1 0x40 MLOAD DUP1 DUP4 SUB DUP2 DUP7 GAS STATICCALL ISZERO DUP1 ISZERO PUSH2 0x2640 JUMPI RETURNDATASIZE PUSH1 0x0 DUP1 RETURNDATACOPY RETURNDATASIZE PUSH1 0x0 REVERT JUMPDEST POP POP POP POP PUSH1 0x40 MLOAD RETURNDATASIZE PUSH1 0x1F NOT PUSH1 0x1F DUP3 ADD AND DUP3 ADD DUP1 PUSH1 0x40 MSTORE POP DUP2 ADD SWAP1 PUSH2 0x2664 SWAP2 SWAP1 PUSH2 0x3796 JUMP JUMPDEST SWAP1 POP PUSH1 0x0 DUP3 PUSH2 0x2673 DUP4 DUP11 PUSH2 0x3A70 JUMP JUMPDEST PUSH2 0x267D SWAP2 SWAP1 PUSH2 0x3A87 JUMP JUMPDEST SWAP1 POP PUSH1 0x0 DUP2 GT PUSH2 0x26C8 JUMPI PUSH1 0x40 MLOAD PUSH3 0x461BCD PUSH1 0xE5 SHL DUP2 MSTORE PUSH1 0x20 PUSH1 0x4 DUP3 ADD MSTORE PUSH1 0x16 PUSH1 0x24 DUP3 ADD MSTORE PUSH22 0x135BDB9D185B9D081919481C995D1C985A5D081B9D5B PUSH1 0x52 SHL PUSH1 0x44 DUP3 ADD MSTORE PUSH1 0x64 ADD PUSH2 0x283 JUMP JUMPDEST DUP2 DUP2 GT ISZERO PUSH2 0x2711 JUMPI PUSH1 0x40 MLOAD PUSH3 0x461BCD PUSH1 0xE5 SHL DUP2 MSTORE PUSH1 0x20 PUSH1 0x4 DUP3 ADD MSTORE PUSH1 0x16 PUSH1 0x24 DUP3 ADD MSTORE PUSH22 0x4C697175696469746520696E737566666973616E7465 PUSH1 0x50 SHL PUSH1 0x44 DUP3 ADD MSTORE PUSH1 0x64 ADD PUSH2 0x283 JUMP JUMPDEST PUSH32 0x0 PUSH1 0x1 PUSH1 0x1 PUSH1 0xA0 SHL SUB AND DUP10 PUSH1 0x1 PUSH1 0x1 PUSH1 0xA0 SHL SUB AND SUB PUSH2 0x27A3 JUMPI DUP8 DUP6 PUSH1 0x0 ADD PUSH1 0x0 DUP3 DUP3 SLOAD PUSH2 0x275E SWAP2 SWAP1 PUSH2 0x3AA9 JUMP JUMPDEST SWAP1 SWAP2 SSTORE POP POP PUSH1 0xA DUP1 SLOAD DUP10 SWAP2 SWAP1 PUSH1 0x0 SWAP1 PUSH2 0x2778 SWAP1 DUP5 SWAP1 PUSH2 0x3AA9 JUMP JUMPDEST SWAP1 SWAP2 SSTORE POP POP PUSH1 0x8 SLOAD DUP2 LT PUSH2 0x278D JUMPI PUSH1 0x0 PUSH2 0x279B JUMP JUMPDEST PUSH1 0x8 SLOAD PUSH2 0x279B SWAP1 DUP3 SWAP1 PUSH2 0x3AA9 JUMP JUMPDEST PUSH1 0x8 SSTORE PUSH2 0x27F8 JUMP JUMPDEST DUP8 DUP6 PUSH1 0x1 ADD PUSH1 0x0 DUP3 DUP3 SLOAD PUSH2 0x27B7 SWAP2 SWAP1 PUSH2 0x3AA9 JUMP JUMPDEST SWAP1 SWAP2 SSTORE POP POP PUSH1 0xB DUP1 SLOAD DUP10 SWAP2 SWAP1 PUSH1 0x0 SWAP1 PUSH2 0x27D1 SWAP1 DUP5 SWAP1 PUSH2 0x3AA9 JUMP JUMPDEST SWAP1 SWAP2 SSTORE POP POP PUSH1 0x9 SLOAD DUP2 LT PUSH2 0x27E6 JUMPI PUSH1 0x0 PUSH2 0x27F4 JUMP JUMPDEST PUSH1 0x9 SLOAD PUSH2 0x27F4 SWAP1 DUP3 SWAP1 PUSH2 0x3AA9 JUMP JUMPDEST PUSH1 0x9 SSTORE JUMPDEST DUP1 DUP6 PUSH1 0x3 ADD PUSH1 0x0 DUP3 DUP3 SLOAD PUSH2 0x280C SWAP2 SWAP1 PUSH2 0x3A44 JUMP JUMPDEST SWAP1 SWAP2 SSTORE POP POP PUSH1 0x7 DUP6 ADD DUP1 SLOAD SWAP1 PUSH1 0x0 PUSH2 0x2823 DUP4 PUSH2 0x3A57 JUMP JUMPDEST SWAP1 SWAP2 SSTORE POP POP PUSH1 0x40 MLOAD PUSH4 0xA9059CBB PUSH1 0xE0 SHL DUP2 MSTORE CALLER PUSH1 0x4 DUP3 ADD MSTORE PUSH1 0x24 DUP2 ADD DUP3 SWAP1 MSTORE PUSH1 0x1 PUSH1 0x1 PUSH1 0xA0 SHL SUB DUP11 AND SWAP1 PUSH4 0xA9059CBB SWAP1 PUSH1 0x44 ADD PUSH1 0x20 PUSH1 0x40 MLOAD DUP1 DUP4 SUB DUP2 PUSH1 0x0 DUP8 GAS CALL ISZERO DUP1 ISZERO PUSH2 0x2875 JUMPI RETURNDATASIZE PUSH1 0x0 DUP1 RETURNDATACOPY RETURNDATASIZE PUSH1 0x0 REVERT JUMPDEST POP POP POP POP PUSH1 0x40 MLOAD RETURNDATASIZE PUSH1 0x1F NOT PUSH1 0x1F DUP3 ADD AND DUP3 ADD DUP1 PUSH1 0x40 MSTORE POP DUP2 ADD SWAP1 PUSH2 0x2899 SWAP2 SWAP1 PUSH2 0x37D9 JUMP JUMPDEST PUSH2 0x28B5 JUMPI PUSH1 0x40 MLOAD PUSH3 0x461BCD PUSH1 0xE5 SHL DUP2 MSTORE PUSH1 0x4 ADD PUSH2 0x283 SWAP1 PUSH2 0x37F6 JUMP JUMPDEST PUSH1 0x40 DUP1 MLOAD DUP3 DUP2 MSTORE PUSH1 0x20 DUP2 ADD DUP11 SWAP1 MSTORE TIMESTAMP DUP2 DUP4 ADD MSTORE SWAP1 MLOAD PUSH1 0x1 PUSH1 0x1 PUSH1 0xA0 SHL SUB DUP12 AND SWAP2 CALLER SWAP2 PUSH32 0x373E649C2CD6407BD569D5C66304CCE4B4977C361734B811045F83C7BFE8C8B SWAP2 DUP2 SWAP1 SUB PUSH1 0x60 ADD SWAP1 LOG3 POP POP POP POP POP POP POP PUSH2 0x1572 PUSH1 0x1 DUP1 SSTORE JUMP JUMPDEST PUSH1 0x0 SLOAD PUSH1 0x1 PUSH1 0x1 PUSH1 0xA0 SHL SUB AND CALLER EQ PUSH2 0x15A1 JUMPI PUSH1 0x40 MLOAD PUSH4 0x118CDAA7 PUSH1 0xE0 SHL DUP2 MSTORE CALLER PUSH1 0x4 DUP3 ADD MSTORE PUSH1 0x24 ADD PUSH2 0x283 JUMP JUMPDEST DUP2 MLOAD PUSH1 0x40 MLOAD PUSH4 0x70A08231 PUSH1 0xE0 SHL DUP2 MSTORE ADDRESS PUSH1 0x4 DUP3 ADD MSTORE PUSH1 0x0 SWAP2 DUP3 SWAP2 PUSH1 0x1 PUSH1 0x1 PUSH1 0xA0 SHL SUB SWAP1 SWAP2 AND SWAP1 PUSH4 0x70A08231 SWAP1 PUSH1 0x24 ADD PUSH1 0x20 PUSH1 0x40 MLOAD DUP1 DUP4 SUB DUP2 DUP7 GAS STATICCALL ISZERO DUP1 ISZERO PUSH2 0x298A JUMPI RETURNDATASIZE PUSH1 0x0 DUP1 RETURNDATACOPY RETURNDATASIZE PUSH1 0x0 REVERT JUMPDEST POP POP POP POP PUSH1 0x40 MLOAD RETURNDATASIZE PUSH1 0x1F NOT PUSH1 0x1F DUP3 ADD AND DUP3 ADD DUP1 PUSH1 0x40 MSTORE POP DUP2 ADD SWAP1 PUSH2 0x29AE SWAP2 SWAP1 PUSH2 0x3796 JUMP JUMPDEST PUSH1 0x40 MLOAD PUSH4 0x9C747C85 PUSH1 0xE0 SHL DUP2 MSTORE SWAP1 SWAP2 POP ADDRESS SWAP1 PUSH4 0x9C747C85 SWAP1 PUSH2 0x29D6 SWAP1 DUP8 SWAP1 DUP8 SWAP1 PUSH1 0x4 ADD PUSH2 0x3DD3 JUMP JUMPDEST PUSH1 0x0 PUSH1 0x40 MLOAD DUP1 DUP4 SUB DUP2 PUSH1 0x0 DUP8 DUP1 EXTCODESIZE ISZERO DUP1 ISZERO PUSH2 0x29F0 JUMPI PUSH1 0x0 DUP1 REVERT JUMPDEST POP GAS CALL SWAP3 POP POP POP DUP1 ISZERO PUSH2 0x2A01 JUMPI POP PUSH1 0x1 JUMPDEST PUSH2 0x2A55 JUMPI PUSH1 0xF DUP1 SLOAD SWAP1 PUSH1 0x0 PUSH2 0x2A15 DUP4 PUSH2 0x3A57 JUMP JUMPDEST SWAP1 SWAP2 SSTORE POP POP PUSH1 0x40 MLOAD PUSH3 0x461BCD PUSH1 0xE5 SHL DUP2 MSTORE PUSH1 0x20 PUSH1 0x4 DUP3 ADD MSTORE PUSH1 0x10 PUSH1 0x24 DUP3 ADD MSTORE PUSH16 0x417262697472616765206563686F7565 PUSH1 0x80 SHL PUSH1 0x44 DUP3 ADD MSTORE PUSH1 0x64 ADD PUSH2 0x283 JUMP JUMPDEST DUP4 MLOAD PUSH1 0x40 MLOAD PUSH4 0x70A08231 PUSH1 0xE0 SHL DUP2 MSTORE ADDRESS PUSH1 0x4 DUP3 ADD MSTORE PUSH1 0x0 SWAP2 PUSH1 0x1 PUSH1 0x1 PUSH1 0xA0 SHL SUB AND SWAP1 PUSH4 0x70A08231 SWAP1 PUSH1 0x24 ADD PUSH1 0x20 PUSH1 0x40 MLOAD DUP1 DUP4 SUB DUP2 DUP7 GAS STATICCALL ISZERO DUP1 ISZERO PUSH2 0x2A9D JUMPI RETURNDATASIZE PUSH1 0x0 DUP1 RETURNDATACOPY RETURNDATASIZE PUSH1 0x0 REVERT JUMPDEST POP POP POP POP PUSH1 0x40 MLOAD RETURNDATASIZE PUSH1 0x1F NOT PUSH1 0x1F DUP3 ADD AND DUP3 ADD DUP1 PUSH1 0x40 MSTORE POP DUP2 ADD SWAP1 PUSH2 0x2AC1 SWAP2 SWAP1 PUSH2 0x3796 JUMP JUMPDEST SWAP1 POP DUP2 DUP2 GT ISZERO PUSH2 0x2B3F JUMPI PUSH2 0x2AD5 DUP3 DUP3 PUSH2 0x3AA9 JUMP JUMPDEST SWAP3 POP PUSH1 0x0 PUSH2 0x2710 DUP7 PUSH1 0xA0 ADD MLOAD DUP7 PUSH2 0x2AEC SWAP2 SWAP1 PUSH2 0x3A70 JUMP JUMPDEST PUSH2 0x2AF6 SWAP2 SWAP1 PUSH2 0x3A87 JUMP JUMPDEST SWAP1 POP DUP1 DUP5 LT ISZERO PUSH2 0x2B3D JUMPI PUSH1 0x40 MLOAD PUSH3 0x461BCD PUSH1 0xE5 SHL DUP2 MSTORE PUSH1 0x20 PUSH1 0x4 DUP3 ADD MSTORE PUSH1 0x12 PUSH1 0x24 DUP3 ADD MSTORE PUSH18 0x141C9BD99A5D081A5B9CDD59999A5CD85B9D PUSH1 0x72 SHL PUSH1 0x44 DUP3 ADD MSTORE PUSH1 0x64 ADD PUSH2 0x283 JUMP JUMPDEST POP JUMPDEST POP POP SWAP3 SWAP2 POP POP JUMP JUMPDEST PUSH1 0x0 GAS PUSH2 0x2B54 SWAP1 DUP4 PUSH2 0x3AA9 JUMP JUMPDEST SWAP1 POP PUSH1 0x0 PUSH2 0x2710 PUSH1 0x11 SLOAD DUP7 PUSH2 0x2B69 SWAP2 SWAP1 PUSH2 0x3A70 JUMP JUMPDEST PUSH2 0x2B73 SWAP2 SWAP1 PUSH2 0x3A87 JUMP JUMPDEST SWAP1 POP PUSH1 0x0 PUSH2 0x2710 PUSH1 0x12 SLOAD DUP8 PUSH2 0x2B88 SWAP2 SWAP1 PUSH2 0x3A70 JUMP JUMPDEST PUSH2 0x2B92 SWAP2 SWAP1 PUSH2 0x3A87 JUMP JUMPDEST SWAP1 POP PUSH1 0x0 DUP2 PUSH2 0x2BA1 DUP5 DUP10 PUSH2 0x3AA9 JUMP JUMPDEST PUSH2 0x2BAB SWAP2 SWAP1 PUSH2 0x3AA9 JUMP JUMPDEST SWAP1 POP PUSH1 0x0 PUSH2 0x2BB9 DUP10 DUP12 PUSH2 0x3A44 JUMP JUMPDEST PUSH1 0x40 MLOAD PUSH4 0x70A08231 PUSH1 0xE0 SHL DUP2 MSTORE ADDRESS PUSH1 0x4 DUP3 ADD MSTORE SWAP1 SWAP2 POP DUP2 SWAP1 PUSH1 0x1 PUSH1 0x1 PUSH1 0xA0 SHL SUB DUP14 AND SWAP1 PUSH4 0x70A08231 SWAP1 PUSH1 0x24 ADD PUSH1 0x20 PUSH1 0x40 MLOAD DUP1 DUP4 SUB DUP2 DUP7 GAS STATICCALL ISZERO DUP1 ISZERO PUSH2 0x2C02 JUMPI RETURNDATASIZE PUSH1 0x0 DUP1 RETURNDATACOPY RETURNDATASIZE PUSH1 0x0 REVERT JUMPDEST POP POP POP POP PUSH1 0x40 MLOAD RETURNDATASIZE PUSH1 0x1F NOT PUSH1 0x1F DUP3 ADD AND DUP3 ADD DUP1 PUSH1 0x40 MSTORE POP DUP2 ADD SWAP1 PUSH2 0x2C26 SWAP2 SWAP1 PUSH2 0x3796 JUMP JUMPDEST LT ISZERO PUSH2 0x2C82 JUMPI PUSH1 0x40 MLOAD PUSH3 0x461BCD PUSH1 0xE5 SHL DUP2 MSTORE PUSH1 0x20 PUSH1 0x4 DUP3 ADD MSTORE PUSH1 0x25 PUSH1 0x24 DUP3 ADD MSTORE PUSH32 0x466F6E647320696E737566666973616E747320706F75722072656D626F757273 PUSH1 0x44 DUP3 ADD MSTORE PUSH5 0x195B595B9D PUSH1 0xDA SHL PUSH1 0x64 DUP3 ADD MSTORE PUSH1 0x84 ADD PUSH2 0x283 JUMP JUMPDEST DUP2 ISZERO PUSH2 0x2D2D JUMPI PUSH1 0x40 MLOAD PUSH4 0xA9059CBB PUSH1 0xE0 SHL DUP2 MSTORE PUSH1 0x1 PUSH1 0x1 PUSH1 0xA0 SHL SUB DUP9 DUP2 AND PUSH1 0x4 DUP4 ADD MSTORE PUSH1 0x24 DUP3 ADD DUP5 SWAP1 MSTORE DUP13 AND SWAP1 PUSH4 0xA9059CBB SWAP1 PUSH1 0x44 ADD PUSH1 0x20 PUSH1 0x40 MLOAD DUP1 DUP4 SUB DUP2 PUSH1 0x0 DUP8 GAS CALL ISZERO DUP1 ISZERO PUSH2 0x2CD7 JUMPI RETURNDATASIZE PUSH1 0x0 DUP1 RETURNDATACOPY RETURNDATASIZE PUSH1 0x0 REVERT JUMPDEST POP POP POP POP PUSH1 0x40 MLOAD RETURNDATASIZE PUSH1 0x1F NOT PUSH1 0x1F DUP3 ADD AND DUP3 ADD DUP1 PUSH1 0x40 MSTORE POP DUP2 ADD SWAP1 PUSH2 0x2CFB SWAP2 SWAP1 PUSH2 0x37D9 JUMP JUMPDEST POP PUSH1 0x1 PUSH1 0x1 PUSH1 0xA0 SHL SUB DUP8 AND PUSH1 0x0 SWAP1 DUP2 MSTORE PUSH1 0x3 PUSH1 0x20 MSTORE PUSH1 0x40 DUP2 KECCAK256 PUSH1 0x4 ADD DUP1 SLOAD DUP5 SWAP3 SWAP1 PUSH2 0x2D27 SWAP1 DUP5 SWAP1 PUSH2 0x3A44 JUMP JUMPDEST SWAP1 SWAP2 SSTORE POP POP JUMPDEST DUP4 ISZERO PUSH2 0x2DC7 JUMPI DUP11 PUSH1 0x1 PUSH1 0x1 PUSH1 0xA0 SHL SUB AND PUSH4 0xA9059CBB PUSH2 0x2D54 PUSH1 0x0 SLOAD PUSH1 0x1 PUSH1 0x1 PUSH1 0xA0 SHL SUB AND SWAP1 JUMP JUMPDEST PUSH1 0x40 MLOAD PUSH1 0x1 PUSH1 0x1 PUSH1 0xE0 SHL SUB NOT PUSH1 0xE0 DUP5 SWAP1 SHL AND DUP2 MSTORE PUSH1 0x1 PUSH1 0x1 PUSH1 0xA0 SHL SUB SWAP1 SWAP2 AND PUSH1 0x4 DUP3 ADD MSTORE PUSH1 0x24 DUP2 ADD DUP8 SWAP1 MSTORE PUSH1 0x44 ADD PUSH1 0x20 PUSH1 0x40 MLOAD DUP1 DUP4 SUB DUP2 PUSH1 0x0 DUP8 GAS CALL ISZERO DUP1 ISZERO PUSH2 0x2DA1 JUMPI RETURNDATASIZE PUSH1 0x0 DUP1 RETURNDATACOPY RETURNDATASIZE PUSH1 0x0 REVERT JUMPDEST POP POP POP POP PUSH1 0x40 MLOAD RETURNDATASIZE PUSH1 0x1F NOT PUSH1 0x1F DUP3 ADD AND DUP3 ADD DUP1 PUSH1 0x40 MSTORE POP DUP2 ADD SWAP1 PUSH2 0x2DC5 SWAP2 SWAP1 PUSH2 0x37D9 JUMP JUMPDEST POP JUMPDEST PUSH1 0x0 DUP4 GT DUP1 ISZERO PUSH2 0x2DE1 JUMPI POP PUSH1 0x7 SLOAD PUSH1 0x1 PUSH1 0x1 PUSH1 0xA0 SHL SUB AND ISZERO ISZERO JUMPDEST ISZERO PUSH2 0x2E5F JUMPI PUSH1 0x7 SLOAD PUSH1 0x40 MLOAD PUSH4 0xA9059CBB PUSH1 0xE0 SHL DUP2 MSTORE PUSH1 0x1 PUSH1 0x1 PUSH1 0xA0 SHL SUB SWAP2 DUP3 AND PUSH1 0x4 DUP3 ADD MSTORE PUSH1 0x24 DUP2 ADD DUP6 SWAP1 MSTORE SWAP1 DUP13 AND SWAP1 PUSH4 0xA9059CBB SWAP1 PUSH1 0x44 ADD PUSH1 0x20 PUSH1 0x40 MLOAD DUP1 DUP4 SUB DUP2 PUSH1 0x0 DUP8 GAS CALL ISZERO DUP1 ISZERO PUSH2 0x2E39 JUMPI RETURNDATASIZE PUSH1 0x0 DUP1 RETURNDATACOPY RETURNDATASIZE PUSH1 0x0 REVERT JUMPDEST POP POP POP POP PUSH1 0x40 MLOAD RETURNDATASIZE PUSH1 0x1F NOT PUSH1 0x1F DUP3 ADD AND DUP3 ADD DUP1 PUSH1 0x40 MSTORE POP DUP2 ADD SWAP1 PUSH2 0x2E5D SWAP2 SWAP1 PUSH2 0x37D9 JUMP JUMPDEST POP JUMPDEST PUSH1 0x40 MLOAD PUSH4 0x95EA7B3 PUSH1 0xE0 SHL DUP2 MSTORE PUSH1 0x1 PUSH1 0x1 PUSH1 0xA0 SHL SUB PUSH32 0x0 DUP2 AND PUSH1 0x4 DUP4 ADD MSTORE PUSH1 0x24 DUP3 ADD DUP4 SWAP1 MSTORE DUP13 AND SWAP1 PUSH4 0x95EA7B3 SWAP1 PUSH1 0x44 ADD PUSH1 0x20 PUSH1 0x40 MLOAD DUP1 DUP4 SUB DUP2 PUSH1 0x0 DUP8 GAS CALL ISZERO DUP1 ISZERO PUSH2 0x2ECE JUMPI RETURNDATASIZE PUSH1 0x0 DUP1 RETURNDATACOPY RETURNDATASIZE PUSH1 0x0 REVERT JUMPDEST POP POP POP POP PUSH1 0x40 MLOAD RETURNDATASIZE PUSH1 0x1F NOT PUSH1 0x1F DUP3 ADD AND DUP3 ADD DUP1 PUSH1 0x40 MSTORE POP DUP2 ADD SWAP1 PUSH2 0x2EF2 SWAP2 SWAP1 PUSH2 0x37D9 JUMP JUMPDEST POP DUP8 PUSH1 0x8 PUSH1 0x4 ADD PUSH1 0x0 DUP3 DUP3 SLOAD PUSH2 0x2F08 SWAP2 SWAP1 PUSH2 0x3A44 JUMP JUMPDEST SWAP1 SWAP2 SSTORE POP POP PUSH1 0xD DUP1 SLOAD DUP12 SWAP2 SWAP1 PUSH1 0x0 SWAP1 PUSH2 0x2F22 SWAP1 DUP5 SWAP1 PUSH2 0x3A44 JUMP JUMPDEST SWAP1 SWAP2 SSTORE POP POP PUSH1 0xE DUP1 SLOAD SWAP1 PUSH1 0x0 PUSH2 0x2F37 DUP4 PUSH2 0x3A57 JUMP JUMPDEST SWAP1 SWAP2 SSTORE POP POP TIMESTAMP PUSH1 0x10 SSTORE PUSH1 0x1 PUSH1 0x1 PUSH1 0xA0 SHL SUB DUP1 DUP13 AND SWAP1 DUP9 AND PUSH32 0xB676027C562ED2163771F91BCFEE631C90608250147F574F5C86A6FC489AEADA DUP13 DUP12 DUP7 PUSH2 0x2F7C DUP10 DUP12 PUSH2 0x3A44 JUMP JUMPDEST PUSH1 0x40 DUP1 MLOAD SWAP5 DUP6 MSTORE PUSH1 0x20 DUP6 ADD SWAP4 SWAP1 SWAP4 MSTORE SWAP2 DUP4 ADD MSTORE PUSH1 0x60 DUP3 ADD MSTORE PUSH1 0x80 DUP2 ADD DUP10 SWAP1 MSTORE TIMESTAMP PUSH1 0xA0 DUP3 ADD MSTORE PUSH1 0xC0 ADD PUSH1 0x40 MLOAD DUP1 SWAP2 SUB SWAP1 LOG3 PUSH32 0x749B2AC8562325522EF7E1CBA0D73B4A39482AB91E980CEB669FB9913A6F93FB DUP9 PUSH2 0x2FD8 DUP6 DUP8 PUSH2 0x3A44 JUMP JUMPDEST PUSH1 0x40 DUP1 MLOAD SWAP3 DUP4 MSTORE PUSH1 0x20 DUP4 ADD SWAP2 SWAP1 SWAP2 MSTORE DUP2 ADD DUP5 SWAP1 MSTORE TIMESTAMP PUSH1 0x60 DUP3 ADD MSTORE PUSH1 0x80 ADD PUSH1 0x40 MLOAD DUP1 SWAP2 SUB SWAP1 LOG1 POP POP POP POP POP POP POP POP POP POP POP JUMP JUMPDEST PUSH1 0x2 PUSH1 0x1 SLOAD SUB PUSH2 0x302D JUMPI PUSH1 0x40 MLOAD PUSH4 0x3EE5AEB5 PUSH1 0xE0 SHL DUP2 MSTORE PUSH1 0x4 ADD PUSH1 0x40 MLOAD DUP1 SWAP2 SUB SWAP1 REVERT JUMPDEST PUSH1 0x2 PUSH1 0x1 SSTORE JUMP JUMPDEST PUSH1 0x2 SLOAD PUSH1 0xFF AND ISZERO PUSH2 0x15A1 JUMPI PUSH1 0x40 MLOAD PUSH4 0xD93C0665 PUSH1 0xE0 SHL DUP2 MSTORE PUSH1 0x4 ADD PUSH1 0x40 MLOAD DUP1 SWAP2 SUB SWAP1 REVERT JUMPDEST PUSH2 0x3060 PUSH2 0x3034 JUMP JUMPDEST PUSH1 0x2 DUP1 SLOAD PUSH1 0xFF NOT AND PUSH1 0x1 OR SWAP1 SSTORE PUSH32 0x62E78CEA01BEE320CD4E420270B5EA74000D11B0C9F74754EBDBFC544B05A258 PUSH2 0x3095 CALLER SWAP1 JUMP JUMPDEST PUSH1 0x40 MLOAD PUSH1 0x1 PUSH1 0x1 PUSH1 0xA0 SHL SUB SWAP1 SWAP2 AND DUP2 MSTORE PUSH1 0x20 ADD PUSH1 0x40 MLOAD DUP1 SWAP2 SUB SWAP1 LOG1 JUMP JUMPDEST PUSH2 0x30BA PUSH2 0x338C JUMP JUMPDEST PUSH1 0x2 DUP1 SLOAD PUSH1 0xFF NOT AND SWAP1 SSTORE PUSH32 0x5DB9EE0A495BF2E6FF9C91A7834C1BA4FDD244A5E8AA4E537BD38AEAE4B073AA CALLER PUSH2 0x3095 JUMP JUMPDEST PUSH1 0x0 DUP1 SLOAD PUSH1 0x1 PUSH1 0x1 PUSH1 0xA0 SHL SUB DUP4 DUP2 AND PUSH1 0x1 PUSH1 0x1 PUSH1 0xA0 SHL SUB NOT DUP4 AND DUP2 OR DUP5 SSTORE PUSH1 0x40 MLOAD SWAP2 SWAP1 SWAP3 AND SWAP3 DUP4 SWAP2 PUSH32 0x8BE0079C531659141344CD1FD0A4F28419497F9722A3DAAFE3B4186F6B6457E0 SWAP2 SWAP1 LOG3 POP POP JUMP JUMPDEST PUSH1 0x40 MLOAD PUSH4 0x95EA7B3 PUSH1 0xE0 SHL DUP2 MSTORE PUSH1 0x1 PUSH1 0x1 PUSH1 0xA0 SHL SUB DUP8 DUP2 AND PUSH1 0x4 DUP4 ADD MSTORE PUSH1 0x24 DUP3 ADD DUP6 SWAP1 MSTORE PUSH1 0x0 SWAP2 SWAP1 DUP8 AND SWAP1 PUSH4 0x95EA7B3 SWAP1 PUSH1 0x44 ADD PUSH1 0x20 PUSH1 0x40 MLOAD DUP1 DUP4 SUB DUP2 PUSH1 0x0 DUP8 GAS CALL ISZERO DUP1 ISZERO PUSH2 0x318E JUMPI RETURNDATASIZE PUSH1 0x0 DUP1 RETURNDATACOPY RETURNDATASIZE PUSH1 0x0 REVERT JUMPDEST POP POP POP POP PUSH1 0x40 MLOAD RETURNDATASIZE PUSH1 0x1F NOT PUSH1 0x1F DUP3 ADD AND DUP3 ADD DUP1 PUSH1 0x40 MSTORE POP DUP2 ADD SWAP1 PUSH2 0x31B2 SWAP2 SWAP1 PUSH2 0x37D9 JUMP JUMPDEST POP PUSH1 0x40 DUP1 MLOAD PUSH1 0x2 DUP1 DUP3 MSTORE PUSH1 0x60 DUP3 ADD DUP4 MSTORE PUSH1 0x0 SWAP3 PUSH1 0x20 DUP4 ADD SWAP1 DUP1 CALLDATASIZE DUP4 CALLDATACOPY ADD SWAP1 POP POP SWAP1 POP DUP7 DUP2 PUSH1 0x0 DUP2 MLOAD DUP2 LT PUSH2 0x31E8 JUMPI PUSH2 0x31E8 PUSH2 0x3CD2 JUMP JUMPDEST PUSH1 0x20 MUL PUSH1 0x20 ADD ADD SWAP1 PUSH1 0x1 PUSH1 0x1 PUSH1 0xA0 SHL SUB AND SWAP1 DUP2 PUSH1 0x1 PUSH1 0x1 PUSH1 0xA0 SHL SUB AND DUP2 MSTORE POP POP DUP6 DUP2 PUSH1 0x1 DUP2 MLOAD DUP2 LT PUSH2 0x321C JUMPI PUSH2 0x321C PUSH2 0x3CD2 JUMP JUMPDEST PUSH1 0x1 PUSH1 0x1 PUSH1 0xA0 SHL SUB SWAP3 DUP4 AND PUSH1 0x20 SWAP2 DUP3 MUL SWAP3 SWAP1 SWAP3 ADD ADD MSTORE PUSH1 0x40 MLOAD PUSH4 0xD06CA61F PUSH1 0xE0 SHL DUP2 MSTORE PUSH1 0x0 SWAP2 DUP11 AND SWAP1 PUSH4 0xD06CA61F SWAP1 PUSH2 0x325B SWAP1 DUP10 SWAP1 DUP7 SWAP1 PUSH1 0x4 ADD PUSH2 0x3D21 JUMP JUMPDEST PUSH1 0x0 PUSH1 0x40 MLOAD DUP1 DUP4 SUB DUP2 DUP7 GAS STATICCALL ISZERO DUP1 ISZERO PUSH2 0x3278 JUMPI RETURNDATASIZE PUSH1 0x0 DUP1 RETURNDATACOPY RETURNDATASIZE PUSH1 0x0 REVERT JUMPDEST POP POP POP POP PUSH1 0x40 MLOAD RETURNDATASIZE PUSH1 0x0 DUP3 RETURNDATACOPY PUSH1 0x1F RETURNDATASIZE SWAP1 DUP2 ADD PUSH1 0x1F NOT AND DUP3 ADD PUSH1 0x40 MSTORE PUSH2 0x32A0 SWAP2 SWAP1 DUP2 ADD SWAP1 PUSH2 0x3D42 JUMP JUMPDEST SWAP1 POP PUSH1 0x0 PUSH2 0x2710 PUSH2 0x32B1 DUP8 DUP3 PUSH2 0x3AA9 JUMP JUMPDEST DUP4 PUSH1 0x1 DUP2 MLOAD DUP2 LT PUSH2 0x32C4 JUMPI PUSH2 0x32C4 PUSH2 0x3CD2 JUMP JUMPDEST PUSH1 0x20 MUL PUSH1 0x20 ADD ADD MLOAD PUSH2 0x32D6 SWAP2 SWAP1 PUSH2 0x3A70 JUMP JUMPDEST PUSH2 0x32E0 SWAP2 SWAP1 PUSH2 0x3A87 JUMP JUMPDEST SWAP1 POP PUSH1 0x0 DUP11 PUSH1 0x1 PUSH1 0x1 PUSH1 0xA0 SHL SUB AND PUSH4 0x38ED1739 DUP10 DUP5 DUP8 ADDRESS DUP12 PUSH1 0x40 MLOAD DUP7 PUSH4 0xFFFFFFFF AND PUSH1 0xE0 SHL DUP2 MSTORE PUSH1 0x4 ADD PUSH2 0x3318 SWAP6 SWAP5 SWAP4 SWAP3 SWAP2 SWAP1 PUSH2 0x3DF0 JUMP JUMPDEST PUSH1 0x0 PUSH1 0x40 MLOAD DUP1 DUP4 SUB DUP2 PUSH1 0x0 DUP8 GAS CALL ISZERO DUP1 ISZERO PUSH2 0x3337 JUMPI RETURNDATASIZE PUSH1 0x0 DUP1 RETURNDATACOPY RETURNDATASIZE PUSH1 0x0 REVERT JUMPDEST POP POP POP POP PUSH1 0x40 MLOAD RETURNDATASIZE PUSH1 0x0 DUP3 RETURNDATACOPY PUSH1 0x1F RETURNDATASIZE SWAP1 DUP2 ADD PUSH1 0x1F NOT AND DUP3 ADD PUSH1 0x40 MSTORE PUSH2 0x335F SWAP2 SWAP1 DUP2 ADD SWAP1 PUSH2 0x3D42 JUMP JUMPDEST SWAP1 POP DUP1 PUSH1 0x1 DUP2 MLOAD DUP2 LT PUSH2 0x3374 JUMPI PUSH2 0x3374 PUSH2 0x3CD2 JUMP JUMPDEST PUSH1 0x20 MUL PUSH1 0x20 ADD ADD MLOAD SWAP5 POP POP POP POP POP SWAP7 SWAP6 POP POP POP POP POP POP JUMP JUMPDEST PUSH1 0x2 SLOAD PUSH1 0xFF AND PUSH2 0x15A1 JUMPI PUSH1 0x40 MLOAD PUSH4 0x8DFC202B PUSH1 0xE0 SHL DUP2 MSTORE PUSH1 0x4 ADD PUSH1 0x40 MLOAD DUP1 SWAP2 SUB SWAP1 REVERT JUMPDEST PUSH1 0x0 PUSH2 0x120 DUP3 DUP5 SUB SLT ISZERO PUSH2 0x20D2 JUMPI PUSH1 0x0 DUP1 REVERT JUMPDEST DUP1 CALLDATALOAD PUSH1 0x1 PUSH1 0x1 PUSH1 0xA0 SHL SUB DUP2 AND DUP2 EQ PUSH2 0xA02 JUMPI PUSH1 0x0 DUP1 REVERT JUMPDEST PUSH1 0x0 DUP1 PUSH1 0x0 PUSH1 0x60 DUP5 DUP7 SUB SLT ISZERO PUSH2 0x33EE JUMPI PUSH1 0x0 DUP1 REVERT JUMPDEST PUSH2 0x33F7 DUP5 PUSH2 0x33C2 JUMP JUMPDEST SWAP3 POP PUSH1 0x20 DUP5 ADD CALLDATALOAD SWAP2 POP PUSH2 0x340C PUSH1 0x40 DUP6 ADD PUSH2 0x33C2 JUMP JUMPDEST SWAP1 POP SWAP3 POP SWAP3 POP SWAP3 JUMP JUMPDEST PUSH1 0x0 DUP1 PUSH1 0x0 DUP1 PUSH1 0x0 DUP1 PUSH1 0xA0 DUP8 DUP10 SUB SLT ISZERO PUSH2 0x342E JUMPI PUSH1 0x0 DUP1 REVERT JUMPDEST PUSH2 0x3437 DUP8 PUSH2 0x33C2 JUMP JUMPDEST SWAP6 POP PUSH1 0x20 DUP8 ADD CALLDATALOAD SWAP5 POP PUSH1 0x40 DUP8 ADD CALLDATALOAD SWAP4 POP PUSH2 0x3453 PUSH1 0x60 DUP9 ADD PUSH2 0x33C2 JUMP JUMPDEST SWAP3 POP PUSH1 0x80 DUP8 ADD CALLDATALOAD PUSH8 0xFFFFFFFFFFFFFFFF DUP1 DUP3 GT ISZERO PUSH2 0x3470 JUMPI PUSH1 0x0 DUP1 REVERT JUMPDEST DUP2 DUP10 ADD SWAP2 POP DUP10 PUSH1 0x1F DUP4 ADD SLT PUSH2 0x3484 JUMPI PUSH1 0x0 DUP1 REVERT JUMPDEST DUP2 CALLDATALOAD DUP2 DUP2 GT ISZERO PUSH2 0x3493 JUMPI PUSH1 0x0 DUP1 REVERT JUMPDEST DUP11 PUSH1 0x20 DUP3 DUP6 ADD ADD GT ISZERO PUSH2 0x34A5 JUMPI PUSH1 0x0 DUP1 REVERT JUMPDEST PUSH1 0x20 DUP4 ADD SWAP5 POP DUP1 SWAP4 POP POP POP POP SWAP3 SWAP6 POP SWAP3 SWAP6 POP SWAP3 SWAP6 JUMP JUMPDEST PUSH1 0x0 DUP1 PUSH1 0x40 DUP4 DUP6 SUB SLT ISZERO PUSH2 0x34CE JUMPI PUSH1 0x0 DUP1 REVERT JUMPDEST PUSH2 0x34D7 DUP4 PUSH2 0x33C2 JUMP JUMPDEST SWAP5 PUSH1 0x20 SWAP4 SWAP1 SWAP4 ADD CALLDATALOAD SWAP4 POP POP POP JUMP JUMPDEST PUSH1 0x0 PUSH1 0x20 DUP3 DUP5 SUB SLT ISZERO PUSH2 0x34F7 JUMPI PUSH1 0x0 DUP1 REVERT JUMPDEST POP CALLDATALOAD SWAP2 SWAP1 POP JUMP JUMPDEST PUSH1 0x0 PUSH1 0x20 DUP3 DUP5 SUB SLT ISZERO PUSH2 0x3510 JUMPI PUSH1 0x0 DUP1 REVERT JUMPDEST PUSH2 0x3519 DUP3 PUSH2 0x33C2 JUMP JUMPDEST SWAP4 SWAP3 POP POP POP JUMP JUMPDEST PUSH1 0x0 DUP1 PUSH1 0x40 DUP4 DUP6 SUB SLT ISZERO PUSH2 0x3533 JUMPI PUSH1 0x0 DUP1 REVERT JUMPDEST POP POP DUP1 CALLDATALOAD SWAP3 PUSH1 0x20 SWAP1 SWAP2 ADD CALLDATALOAD SWAP2 POP JUMP JUMPDEST DUP1 ISZERO ISZERO DUP2 EQ PUSH2 0x1AA4 JUMPI PUSH1 0x0 DUP1 REVERT JUMPDEST DUP1 CALLDATALOAD PUSH2 0xA02 DUP2 PUSH2 0x3542 JUMP JUMPDEST PUSH1 0x0 DUP1 PUSH1 0x40 DUP4 DUP6 SUB SLT ISZERO PUSH2 0x356E JUMPI PUSH1 0x0 DUP1 REVERT JUMPDEST PUSH2 0x3577 DUP4 PUSH2 0x33C2 JUMP JUMPDEST SWAP2 POP PUSH1 0x20 DUP4 ADD CALLDATALOAD PUSH2 0x3587 DUP2 PUSH2 0x3542 JUMP JUMPDEST DUP1 SWAP2 POP POP SWAP3 POP SWAP3 SWAP1 POP JUMP JUMPDEST PUSH4 0x4E487B71 PUSH1 0xE0 SHL PUSH1 0x0 MSTORE PUSH1 0x41 PUSH1 0x4 MSTORE PUSH1 0x24 PUSH1 0x0 REVERT JUMPDEST PUSH1 0x40 MLOAD PUSH2 0x120 DUP2 ADD PUSH8 0xFFFFFFFFFFFFFFFF DUP2 GT DUP3 DUP3 LT OR ISZERO PUSH2 0x35CC JUMPI PUSH2 0x35CC PUSH2 0x3592 JUMP JUMPDEST PUSH1 0x40 MSTORE SWAP1 JUMP JUMPDEST PUSH1 0x40 MLOAD PUSH1 0xC0 DUP2 ADD PUSH8 0xFFFFFFFFFFFFFFFF DUP2 GT DUP3 DUP3 LT OR ISZERO PUSH2 0x35CC JUMPI PUSH2 0x35CC PUSH2 0x3592 JUMP JUMPDEST PUSH1 0x40 MLOAD PUSH1 0x1F DUP3 ADD PUSH1 0x1F NOT AND DUP2 ADD PUSH8 0xFFFFFFFFFFFFFFFF DUP2 GT DUP3 DUP3 LT OR ISZERO PUSH2 0x361E JUMPI PUSH2 0x361E PUSH2 0x3592 JUMP JUMPDEST PUSH1 0x40 MSTORE SWAP2 SWAP1 POP JUMP JUMPDEST PUSH1 0x0 PUSH2 0x120 DUP3 DUP5 SUB SLT ISZERO PUSH2 0x3639 JUMPI PUSH1 0x0 DUP1 REVERT JUMPDEST PUSH2 0x3641 PUSH2 0x35A8 JUMP JUMPDEST SWAP1 POP PUSH2 0x364C DUP3 PUSH2 0x33C2 JUMP JUMPDEST DUP2 MSTORE PUSH2 0x365A PUSH1 0x20 DUP4 ADD PUSH2 0x33C2 JUMP JUMPDEST PUSH1 0x20 DUP3 ADD MSTORE PUSH2 0x366B PUSH1 0x40 DUP4 ADD PUSH2 0x33C2 JUMP JUMPDEST PUSH1 0x40 DUP3 ADD MSTORE PUSH2 0x367C PUSH1 0x60 DUP4 ADD PUSH2 0x33C2 JUMP JUMPDEST PUSH1 0x60 DUP3 ADD MSTORE PUSH1 0x80 DUP3 ADD CALLDATALOAD PUSH1 0x80 DUP3 ADD MSTORE PUSH1 0xA0 DUP3 ADD CALLDATALOAD PUSH1 0xA0 DUP3 ADD MSTORE PUSH2 0x36A1 PUSH1 0xC0 DUP4 ADD PUSH2 0x3550 JUMP JUMPDEST PUSH1 0xC0 DUP3 ADD MSTORE PUSH1 0xE0 DUP3 ADD CALLDATALOAD PUSH1 0xE0 DUP3 ADD MSTORE PUSH2 0x100 DUP1 DUP4 ADD CALLDATALOAD DUP2 DUP4 ADD MSTORE POP SWAP3 SWAP2 POP POP JUMP JUMPDEST PUSH1 0x0 DUP1 PUSH2 0x140 DUP4 DUP6 SUB SLT ISZERO PUSH2 0x36D6 JUMPI PUSH1 0x0 DUP1 REVERT JUMPDEST PUSH2 0x36E0 DUP5 DUP5 PUSH2 0x3626 JUMP JUMPDEST SWAP5 PUSH2 0x120 SWAP4 SWAP1 SWAP4 ADD CALLDATALOAD SWAP4 POP POP POP JUMP JUMPDEST PUSH2 0x120 DUP2 ADD PUSH1 0x1 PUSH1 0x1 PUSH1 0xA0 SHL SUB DUP1 PUSH2 0x3706 DUP6 PUSH2 0x33C2 JUMP JUMPDEST AND DUP4 MSTORE DUP1 PUSH2 0x3716 PUSH1 0x20 DUP7 ADD PUSH2 0x33C2 JUMP JUMPDEST AND PUSH1 0x20 DUP5 ADD MSTORE POP PUSH2 0x3729 PUSH1 0x40 DUP5 ADD PUSH2 0x33C2 JUMP JUMPDEST PUSH1 0x1 PUSH1 0x1 PUSH1 0xA0 SHL SUB AND PUSH1 0x40 DUP4 ADD MSTORE PUSH2 0x3743 PUSH1 0x60 DUP5 ADD PUSH2 0x33C2 JUMP JUMPDEST PUSH1 0x1 PUSH1 0x1 PUSH1 0xA0 SHL SUB DUP2 AND PUSH1 0x60 DUP5 ADD MSTORE POP PUSH1 0x80 DUP4 ADD CALLDATALOAD PUSH1 0x80 DUP4 ADD MSTORE PUSH1 0xA0 DUP4 ADD CALLDATALOAD PUSH1 0xA0 DUP4 ADD MSTORE PUSH2 0x3773 PUSH1 0xC0 DUP5 ADD PUSH2 0x3550 JUMP JUMPDEST ISZERO ISZERO PUSH1 0xC0 DUP4 ADD MSTORE PUSH1 0xE0 DUP4 DUP2 ADD CALLDATALOAD SWAP1 DUP4 ADD MSTORE PUSH2 0x100 SWAP3 DUP4 ADD CALLDATALOAD SWAP3 SWAP1 SWAP2 ADD SWAP2 SWAP1 SWAP2 MSTORE SWAP1 JUMP JUMPDEST PUSH1 0x0 PUSH1 0x20 DUP3 DUP5 SUB SLT ISZERO PUSH2 0x37A8 JUMPI PUSH1 0x0 DUP1 REVERT JUMPDEST POP MLOAD SWAP2 SWAP1 POP JUMP JUMPDEST PUSH1 0x20 DUP1 DUP3 MSTORE PUSH1 0x10 SWAP1 DUP3 ADD MSTORE PUSH16 0x4D6F6E74616E7420696E76616C696465 PUSH1 0x80 SHL PUSH1 0x40 DUP3 ADD MSTORE PUSH1 0x60 ADD SWAP1 JUMP JUMPDEST PUSH1 0x0 PUSH1 0x20 DUP3 DUP5 SUB SLT ISZERO PUSH2 0x37EB JUMPI PUSH1 0x0 DUP1 REVERT JUMPDEST DUP2 MLOAD PUSH2 0x3519 DUP2 PUSH2 0x3542 JUMP JUMPDEST PUSH1 0x20 DUP1 DUP3 MSTORE PUSH1 0x10 SWAP1 DUP3 ADD MSTORE PUSH16 0x5472616E7366657274206563686F7565 PUSH1 0x80 SHL PUSH1 0x40 DUP3 ADD MSTORE PUSH1 0x60 ADD SWAP1 JUMP JUMPDEST PUSH1 0x0 PUSH8 0xFFFFFFFFFFFFFFFF DUP3 GT ISZERO PUSH2 0x383A JUMPI PUSH2 0x383A PUSH2 0x3592 JUMP JUMPDEST POP PUSH1 0x5 SHL PUSH1 0x20 ADD SWAP1 JUMP JUMPDEST PUSH1 0x0 DUP3 PUSH1 0x1F DUP4 ADD SLT PUSH2 0x3855 JUMPI PUSH1 0x0 DUP1 REVERT JUMPDEST DUP2 CALLDATALOAD PUSH1 0x20 PUSH2 0x386A PUSH2 0x3865 DUP4 PUSH2 0x3820 JUMP JUMPDEST PUSH2 0x35F5 JUMP JUMPDEST DUP3 DUP2 MSTORE PUSH1 0x5 SWAP3 SWAP1 SWAP3 SHL DUP5 ADD DUP2 ADD SWAP2 DUP2 DUP2 ADD SWAP1 DUP7 DUP5 GT ISZERO PUSH2 0x3889 JUMPI PUSH1 0x0 DUP1 REVERT JUMPDEST DUP3 DUP7 ADD JUMPDEST DUP5 DUP2 LT ISZERO PUSH2 0x38AB JUMPI PUSH2 0x389E DUP2 PUSH2 0x33C2 JUMP JUMPDEST DUP4 MSTORE SWAP2 DUP4 ADD SWAP2 DUP4 ADD PUSH2 0x388D JUMP JUMPDEST POP SWAP7 SWAP6 POP POP POP POP POP POP JUMP JUMPDEST PUSH1 0x0 DUP3 PUSH1 0x1F DUP4 ADD SLT PUSH2 0x38C7 JUMPI PUSH1 0x0 DUP1 REVERT JUMPDEST DUP2 CALLDATALOAD PUSH1 0x20 PUSH2 0x38D7 PUSH2 0x3865 DUP4 PUSH2 0x3820 JUMP JUMPDEST DUP3 DUP2 MSTORE PUSH1 0x5 SWAP3 SWAP1 SWAP3 SHL DUP5 ADD DUP2 ADD SWAP2 DUP2 DUP2 ADD SWAP1 DUP7 DUP5 GT ISZERO PUSH2 0x38F6 JUMPI PUSH1 0x0 DUP1 REVERT JUMPDEST DUP3 DUP7 ADD JUMPDEST DUP5 DUP2 LT ISZERO PUSH2 0x38AB JUMPI DUP1 CALLDATALOAD DUP4 MSTORE SWAP2 DUP4 ADD SWAP2 DUP4 ADD PUSH2 0x38FA JUMP JUMPDEST PUSH1 0x0 PUSH1 0x20 DUP3 DUP5 SUB SLT ISZERO PUSH2 0x3923 JUMPI PUSH1 0x0 DUP1 REVERT JUMPDEST DUP2 CALLDATALOAD PUSH8 0xFFFFFFFFFFFFFFFF DUP1 DUP3 GT ISZERO PUSH2 0x393B JUMPI PUSH1 0x0 DUP1 REVERT JUMPDEST SWAP1 DUP4 ADD SWAP1 PUSH2 0x1C0 DUP3 DUP7 SUB SLT ISZERO PUSH2 0x3950 JUMPI PUSH1 0x0 DUP1 REVERT JUMPDEST PUSH2 0x3958 PUSH2 0x35D2 JUMP JUMPDEST PUSH2 0x3962 DUP7 DUP5 PUSH2 0x3626 JUMP JUMPDEST DUP2 MSTORE PUSH2 0x3971 PUSH2 0x120 DUP5 ADD PUSH2 0x33C2 JUMP JUMPDEST PUSH1 0x20 DUP3 ADD MSTORE PUSH2 0x140 DUP4 ADD CALLDATALOAD PUSH1 0x40 DUP3 ADD MSTORE PUSH2 0x160 DUP4 ADD CALLDATALOAD PUSH1 0x60 DUP3 ADD MSTORE PUSH2 0x180 DUP4 ADD CALLDATALOAD DUP3 DUP2 GT ISZERO PUSH2 0x399F JUMPI PUSH1 0x0 DUP1 REVERT JUMPDEST PUSH2 0x39AB DUP8 DUP3 DUP7 ADD PUSH2 0x3844 JUMP JUMPDEST PUSH1 0x80 DUP4 ADD MSTORE POP PUSH2 0x1A0 DUP4 ADD CALLDATALOAD DUP3 DUP2 GT ISZERO PUSH2 0x39C4 JUMPI PUSH1 0x0 DUP1 REVERT JUMPDEST PUSH2 0x39D0 DUP8 DUP3 DUP7 ADD PUSH2 0x38B6 JUMP JUMPDEST PUSH1 0xA0 DUP4 ADD MSTORE POP SWAP6 SWAP5 POP POP POP POP POP JUMP JUMPDEST PUSH1 0x20 DUP1 DUP3 MSTORE PUSH1 0x12 SWAP1 DUP3 ADD MSTORE PUSH18 0x546F6B656E206E6F6E206175746F72697365 PUSH1 0x70 SHL PUSH1 0x40 DUP3 ADD MSTORE PUSH1 0x60 ADD SWAP1 JUMP JUMPDEST PUSH1 0x0 PUSH1 0x20 DUP3 DUP5 SUB SLT ISZERO PUSH2 0x3A1D JUMPI PUSH1 0x0 DUP1 REVERT JUMPDEST DUP2 MLOAD PUSH1 0xFF DUP2 AND DUP2 EQ PUSH2 0x3519 JUMPI PUSH1 0x0 DUP1 REVERT JUMPDEST PUSH4 0x4E487B71 PUSH1 0xE0 SHL PUSH1 0x0 MSTORE PUSH1 0x11 PUSH1 0x4 MSTORE PUSH1 0x24 PUSH1 0x0 REVERT JUMPDEST DUP1 DUP3 ADD DUP1 DUP3 GT ISZERO PUSH2 0x9FC JUMPI PUSH2 0x9FC PUSH2 0x3A2E JUMP JUMPDEST PUSH1 0x0 PUSH1 0x1 DUP3 ADD PUSH2 0x3A69 JUMPI PUSH2 0x3A69 PUSH2 0x3A2E JUMP JUMPDEST POP PUSH1 0x1 ADD SWAP1 JUMP JUMPDEST DUP1 DUP3 MUL DUP2 ISZERO DUP3 DUP3 DIV DUP5 EQ OR PUSH2 0x9FC JUMPI PUSH2 0x9FC PUSH2 0x3A2E JUMP JUMPDEST PUSH1 0x0 DUP3 PUSH2 0x3AA4 JUMPI PUSH4 0x4E487B71 PUSH1 0xE0 SHL PUSH1 0x0 MSTORE PUSH1 0x12 PUSH1 0x4 MSTORE PUSH1 0x24 PUSH1 0x0 REVERT JUMPDEST POP DIV SWAP1 JUMP JUMPDEST DUP2 DUP2 SUB DUP2 DUP2 GT ISZERO PUSH2 0x9FC JUMPI PUSH2 0x9FC PUSH2 0x3A2E JUMP JUMPDEST PUSH1 0x0 PUSH2 0x120 DUP3 DUP5 SUB SLT ISZERO PUSH2 0x3ACF JUMPI PUSH1 0x0 DUP1 REVERT JUMPDEST PUSH2 0x3519 DUP4 DUP4 PUSH2 0x3626 JUMP JUMPDEST DUP1 MLOAD PUSH1 0x1 PUSH1 0x1 PUSH1 0xA0 SHL SUB SWAP1 DUP2 AND DUP4 MSTORE PUSH1 0x20 DUP1 DUP4 ADD MLOAD DUP3 AND SWAP1 DUP5 ADD MSTORE PUSH1 0x40 DUP1 DUP4 ADD MLOAD DUP3 AND SWAP1 DUP5 ADD MSTORE PUSH1 0x60 DUP1 DUP4 ADD MLOAD SWAP2 DUP3 AND SWAP1 DUP5 ADD MSTORE POP PUSH1 0x80 DUP2 ADD MLOAD PUSH1 0x80 DUP4 ADD MSTORE PUSH1 0xA0 DUP2 ADD MLOAD PUSH1 0xA0 DUP4 ADD MSTORE PUSH1 0xC0 DUP2 ADD MLOAD PUSH2 0x3B35 PUSH1 0xC0 DUP5 ADD DUP3 ISZERO ISZERO SWAP1 MSTORE JUMP JUMPDEST POP PUSH1 0xE0 DUP2 DUP2 ADD MLOAD SWAP1 DUP4 ADD MSTORE PUSH2 0x100 SWAP1 DUP2 ADD MLOAD SWAP2 ADD MSTORE JUMP JUMPDEST PUSH1 0x0 DUP2 MLOAD DUP1 DUP5 MSTORE PUSH1 0x20 DUP1 DUP6 ADD SWAP5 POP DUP1 DUP5 ADD PUSH1 0x0 JUMPDEST DUP4 DUP2 LT ISZERO PUSH2 0x3B7C JUMPI DUP2 MLOAD DUP8 MSTORE SWAP6 DUP3 ADD SWAP6 SWAP1 DUP3 ADD SWAP1 PUSH1 0x1 ADD PUSH2 0x3B60 JUMP JUMPDEST POP SWAP5 SWAP6 SWAP5 POP POP POP POP POP JUMP JUMPDEST PUSH1 0x0 PUSH1 0x20 DUP1 DUP4 MSTORE PUSH2 0x1E0 DUP4 ADD PUSH2 0x3BA0 DUP3 DUP6 ADD DUP7 MLOAD PUSH2 0x3AD9 JUMP JUMPDEST DUP5 DUP3 ADD MLOAD PUSH1 0x1 PUSH1 0x1 PUSH1 0xA0 SHL SUB SWAP1 DUP2 AND PUSH2 0x140 DUP7 ADD MSTORE PUSH1 0x40 DUP7 ADD MLOAD PUSH2 0x160 DUP7 ADD MSTORE PUSH1 0x60 DUP7 ADD MLOAD PUSH2 0x180 DUP7 ADD MSTORE PUSH1 0x80 DUP7 ADD MLOAD PUSH2 0x1C0 PUSH2 0x1A0 DUP8 ADD DUP2 SWAP1 MSTORE DUP2 MLOAD SWAP4 DUP5 SWAP1 MSTORE SWAP1 DUP5 ADD SWAP3 PUSH1 0x0 SWAP3 SWAP2 SWAP1 PUSH2 0x200 DUP9 ADD SWAP1 JUMPDEST DUP1 DUP6 LT ISZERO PUSH2 0x3C13 JUMPI DUP6 MLOAD DUP5 AND DUP3 MSTORE SWAP5 DUP7 ADD SWAP5 PUSH1 0x1 SWAP5 SWAP1 SWAP5 ADD SWAP4 SWAP1 DUP7 ADD SWAP1 PUSH2 0x3BF1 JUMP JUMPDEST POP PUSH1 0xA0 DUP10 ADD MLOAD DUP9 DUP3 SUB PUSH1 0x1F NOT ADD DUP4 DUP11 ADD MSTORE SWAP6 POP PUSH2 0x3C30 DUP2 DUP8 PUSH2 0x3B4C JUMP JUMPDEST SWAP10 SWAP9 POP POP POP POP POP POP POP POP POP JUMP JUMPDEST PUSH1 0x0 PUSH1 0x1 DUP1 PUSH1 0xA0 SHL SUB DUP1 DUP9 AND DUP4 MSTORE PUSH1 0x20 DUP2 DUP9 AND DUP2 DUP6 ADD MSTORE DUP7 PUSH1 0x40 DUP6 ADD MSTORE PUSH1 0xA0 PUSH1 0x60 DUP6 ADD MSTORE DUP6 MLOAD SWAP2 POP DUP2 PUSH1 0xA0 DUP6 ADD MSTORE PUSH1 0x0 JUMPDEST DUP3 DUP2 LT ISZERO PUSH2 0x3C8A JUMPI DUP7 DUP2 ADD DUP3 ADD MLOAD DUP6 DUP3 ADD PUSH1 0xC0 ADD MSTORE DUP2 ADD PUSH2 0x3C6E JUMP JUMPDEST POP POP PUSH1 0x0 PUSH1 0xC0 DUP3 DUP6 ADD ADD MSTORE PUSH1 0xC0 PUSH1 0x1F NOT PUSH1 0x1F DUP4 ADD AND DUP5 ADD ADD SWAP2 POP POP PUSH2 0xE4F PUSH1 0x80 DUP4 ADD DUP5 PUSH2 0xFFFF AND SWAP1 MSTORE JUMP JUMPDEST PUSH1 0x0 PUSH1 0x20 DUP3 DUP5 SUB SLT ISZERO PUSH2 0x3CC7 JUMPI PUSH1 0x0 DUP1 REVERT JUMPDEST DUP2 CALLDATALOAD PUSH2 0x3519 DUP2 PUSH2 0x3542 JUMP JUMPDEST PUSH4 0x4E487B71 PUSH1 0xE0 SHL PUSH1 0x0 MSTORE PUSH1 0x32 PUSH1 0x4 MSTORE PUSH1 0x24 PUSH1 0x0 REVERT JUMPDEST PUSH1 0x0 DUP2 MLOAD DUP1 DUP5 MSTORE PUSH1 0x20 DUP1 DUP6 ADD SWAP5 POP DUP1 DUP5 ADD PUSH1 0x0 JUMPDEST DUP4 DUP2 LT ISZERO PUSH2 0x3B7C JUMPI DUP2 MLOAD PUSH1 0x1 PUSH1 0x1 PUSH1 0xA0 SHL SUB AND DUP8 MSTORE SWAP6 DUP3 ADD SWAP6 SWAP1 DUP3 ADD SWAP1 PUSH1 0x1 ADD PUSH2 0x3CFC JUMP JUMPDEST DUP3 DUP2 MSTORE PUSH1 0x40 PUSH1 0x20 DUP3 ADD MSTORE PUSH1 0x0 PUSH2 0x3D3A PUSH1 0x40 DUP4 ADD DUP5 PUSH2 0x3CE8 JUMP JUMPDEST SWAP5 SWAP4 POP POP POP POP JUMP JUMPDEST PUSH1 0x0 PUSH1 0x20 DUP1 DUP4 DUP6 SUB SLT ISZERO PUSH2 0x3D55 JUMPI PUSH1 0x0 DUP1 REVERT JUMPDEST DUP3 MLOAD PUSH8 0xFFFFFFFFFFFFFFFF DUP2 GT ISZERO PUSH2 0x3D6C JUMPI PUSH1 0x0 DUP1 REVERT JUMPDEST DUP4 ADD PUSH1 0x1F DUP2 ADD DUP6 SGT PUSH2 0x3D7D JUMPI PUSH1 0x0 DUP1 REVERT JUMPDEST DUP1 MLOAD PUSH2 0x3D8B PUSH2 0x3865 DUP3 PUSH2 0x3820 JUMP JUMPDEST DUP2 DUP2 MSTORE PUSH1 0x5 SWAP2 SWAP1 SWAP2 SHL DUP3 ADD DUP4 ADD SWAP1 DUP4 DUP2 ADD SWAP1 DUP8 DUP4 GT ISZERO PUSH2 0x3DAA JUMPI PUSH1 0x0 DUP1 REVERT JUMPDEST SWAP3 DUP5 ADD SWAP3 JUMPDEST DUP3 DUP5 LT ISZERO PUSH2 0x3DC8 JUMPI DUP4 MLOAD DUP3 MSTORE SWAP3 DUP5 ADD SWAP3 SWAP1 DUP5 ADD SWAP1 PUSH2 0x3DAF JUMP JUMPDEST SWAP8 SWAP7 POP POP POP POP POP POP POP JUMP JUMPDEST PUSH2 0x140 DUP2 ADD PUSH2 0x3DE2 DUP3 DUP6 PUSH2 0x3AD9 JUMP JUMPDEST DUP3 PUSH2 0x120 DUP4 ADD MSTORE SWAP4 SWAP3 POP POP POP JUMP JUMPDEST DUP6 DUP2 MSTORE DUP5 PUSH1 0x20 DUP3 ADD MSTORE PUSH1 0xA0 PUSH1 0x40 DUP3 ADD MSTORE PUSH1 0x0 PUSH2 0x3E0F PUSH1 0xA0 DUP4 ADD DUP7 PUSH2 0x3CE8 JUMP JUMPDEST PUSH1 0x1 PUSH1 0x1 PUSH1 0xA0 SHL SUB SWAP5 SWAP1 SWAP5 AND PUSH1 0x60 DUP4 ADD MSTORE POP PUSH1 0x80 ADD MSTORE SWAP4 SWAP3 POP POP POP JUMP INVALID LOG2 PUSH5 0x6970667358 0x22 SLT KECCAK256 SHL 0xDD SAR SWAP5 0xE9 0xD9 0x2F PUSH21 0x7003E478438731A2F2A232E14923B5A8C17B605A0 PUSH0 0xD7 SGT PUSH5 0x736F6C6343 STOP ADDMOD EQ STOP CALLER "},"methodIdentifiers":{"ADDRESSES_PROVIDER()":"0542975c","MAX_BPS()":"fd967f47","POOL()":"7535d246","USDC()":"89a30271","USDT()":"c54e44eb","_executeSwaps((address,address,address,address,uint256,uint256,bool,uint256,uint256),uint256)":"9c747c85","_simulateArbitrage((address,address,address,address,uint256,uint256,bool,uint256,uint256))":"74b3371f","authorizedDEXs(address)":"c61f01d2","authorizedTokens(address)":"9bc7c586","calculateExpectedProfit((address,address,address,address,uint256,uint256,bool,uint256,uint256))":"023639be","calculateFees(uint256)":"52238fdd","calculateShares(address,uint256)":"e6fc7afe","deposit(address,uint256)":"47e7ef24","emergencyStop()":"63a599a4","executeArbitrage((address,address,address,address,uint256,uint256,bool,uint256,uint256))":"6275aff8","executeOperation(address,uint256,uint256,address,bytes)":"1b11d0ff","getPoolMetrics()":"1866509f","getUserPosition(address)":"5b7c2dad","lastReportTime()":"e0115d0d","maxDepositAmounts(address)":"7416b8e7","maxFlashLoanAmount()":"a140edb4","minDepositAmount()":"645006ca","owner()":"8da5cb5b","ownerWithdraw(address,uint256,address)":"044edc3c","paused()":"5c975abb","platformFeeBps()":"22dcd13e","poolMetrics()":"fcecc4df","renounceOwnership()":"715018a6","reportingPeriod()":"a90b538e","setDEXAuthorization(address,bool)":"96fbdc43","setTokenAuthorization(address,bool)":"804f7b6f","setTrustedWallet(address)":"89a56b2f","toggleEmergencyStop()":"4b7aac94","transferOwnership(address)":"f2fde38b","trustedWallet()":"570d2f8f","trustedWalletFeeBps()":"ebbf0671","trustedWalletWithdraw(address,uint256)":"43790763","updateFees(uint256,uint256)":"6db79437","userPositions(address)":"613cf420","withdraw(address,uint256)":"f3fef3a3"}}}}}