{
  "_format": "hh-sol-artifact-1",
  "contractName": "FlashLoanArbitrageComplete",
  "sourceName": "contracts/FlashLoanArbitrageComplete.sol",
  "abi": [
    {
      "inputs": [
        {
          "internalType": "address",
          "name": "_addressProvider",
          "type": "address"
        },
        {
          "internalType": "address",
          "name": "_usdc",
          "type": "address"
        },
        {
          "internalType": "address",
          "name": "_usdt",
          "type": "address"
        },
        {
          "internalType": "address",
          "name": "_trustedWallet",
          "type": "address"
        }
      ],
      "stateMutability": "nonpayable",
      "type": "constructor"
    },
    {
      "inputs": [],
      "name": "EnforcedPause",
      "type": "error"
    },
    {
      "inputs": [],
      "name": "ExpectedPause",
      "type": "error"
    },
    {
      "inputs": [
        {
          "internalType": "address",
          "name": "owner",
          "type": "address"
        }
      ],
      "name": "OwnableInvalidOwner",
      "type": "error"
    },
    {
      "inputs": [
        {
          "internalType": "address",
          "name": "account",
          "type": "address"
        }
      ],
      "name": "OwnableUnauthorizedAccount",
      "type": "error"
    },
    {
      "inputs": [],
      "name": "ReentrancyGuardReentrantCall",
      "type": "error"
    },
    {
      "anonymous": false,
      "inputs": [
        {
          "indexed": true,
          "internalType": "address",
          "name": "user",
          "type": "address"
        },
        {
          "indexed": true,
          "internalType": "address",
          "name": "asset",
          "type": "address"
        },
        {
          "indexed": false,
          "internalType": "uint256",
          "name": "flashAmount",
          "type": "uint256"
        },
        {
          "indexed": false,
          "internalType": "uint256",
          "name": "profit",
          "type": "uint256"
        },
        {
          "indexed": false,
          "internalType": "uint256",
          "name": "userProfit",
          "type": "uint256"
        },
        {
          "indexed": false,
          "internalType": "uint256",
          "name": "platformFee",
          "type": "uint256"
        },
        {
          "indexed": false,
          "internalType": "uint256",
          "name": "gasUsed",
          "type": "uint256"
        },
        {
          "indexed": false,
          "internalType": "uint256",
          "name": "timestamp",
          "type": "uint256"
        }
      ],
      "name": "ArbitrageExecuted",
      "type": "event"
    },
    {
      "anonymous": false,
      "inputs": [
        {
          "indexed": true,
          "internalType": "address",
          "name": "user",
          "type": "address"
        },
        {
          "indexed": true,
          "internalType": "address",
          "name": "token",
          "type": "address"
        },
        {
          "indexed": false,
          "internalType": "uint256",
          "name": "amount",
          "type": "uint256"
        },
        {
          "indexed": false,
          "internalType": "uint256",
          "name": "shares",
          "type": "uint256"
        },
        {
          "indexed": false,
          "internalType": "uint256",
          "name": "timestamp",
          "type": "uint256"
        }
      ],
      "name": "Deposit",
      "type": "event"
    },
    {
      "anonymous": false,
      "inputs": [
        {
          "indexed": true,
          "internalType": "address",
          "name": "token",
          "type": "address"
        },
        {
          "indexed": false,
          "internalType": "uint256",
          "name": "amount",
          "type": "uint256"
        },
        {
          "indexed": true,
          "internalType": "address",
          "name": "to",
          "type": "address"
        },
        {
          "indexed": false,
          "internalType": "string",
          "name": "reason",
          "type": "string"
        },
        {
          "indexed": false,
          "internalType": "uint256",
          "name": "timestamp",
          "type": "uint256"
        }
      ],
      "name": "EmergencyWithdrawal",
      "type": "event"
    },
    {
      "anonymous": false,
      "inputs": [
        {
          "indexed": true,
          "internalType": "address",
          "name": "asset",
          "type": "address"
        },
        {
          "indexed": false,
          "internalType": "uint256",
          "name": "amount",
          "type": "uint256"
        },
        {
          "indexed": false,
          "internalType": "uint256",
          "name": "premium",
          "type": "uint256"
        },
        {
          "indexed": true,
          "internalType": "address",
          "name": "initiator",
          "type": "address"
        },
        {
          "indexed": false,
          "internalType": "uint256",
          "name": "timestamp",
          "type": "uint256"
        }
      ],
      "name": "FlashLoanExecuted",
      "type": "event"
    },
    {
      "anonymous": false,
      "inputs": [
        {
          "indexed": true,
          "internalType": "address",
          "name": "previousOwner",
          "type": "address"
        },
        {
          "indexed": true,
          "internalType": "address",
          "name": "newOwner",
          "type": "address"
        }
      ],
      "name": "OwnershipTransferred",
      "type": "event"
    },
    {
      "anonymous": false,
      "inputs": [
        {
          "indexed": false,
          "internalType": "address",
          "name": "account",
          "type": "address"
        }
      ],
      "name": "Paused",
      "type": "event"
    },
    {
      "anonymous": false,
      "inputs": [
        {
          "indexed": false,
          "internalType": "uint256",
          "name": "oldFee",
          "type": "uint256"
        },
        {
          "indexed": false,
          "internalType": "uint256",
          "name": "newFee",
          "type": "uint256"
        }
      ],
      "name": "PlatformFeeUpdated",
      "type": "event"
    },
    {
      "anonymous": false,
      "inputs": [
        {
          "indexed": true,
          "internalType": "string",
          "name": "tokenSymbol",
          "type": "string"
        },
        {
          "indexed": true,
          "internalType": "address",
          "name": "oldAddress",
          "type": "address"
        },
        {
          "indexed": true,
          "internalType": "address",
          "name": "newAddress",
          "type": "address"
        },
        {
          "indexed": false,
          "internalType": "uint256",
          "name": "timestamp",
          "type": "uint256"
        }
      ],
      "name": "TokenAddressUpdated",
      "type": "event"
    },
    {
      "anonymous": false,
      "inputs": [
        {
          "indexed": true,
          "internalType": "address",
          "name": "usdc",
          "type": "address"
        },
        {
          "indexed": true,
          "internalType": "address",
          "name": "usdt",
          "type": "address"
        },
        {
          "indexed": false,
          "internalType": "uint256",
          "name": "timestamp",
          "type": "uint256"
        }
      ],
      "name": "TokenConfigurationUpdated",
      "type": "event"
    },
    {
      "anonymous": false,
      "inputs": [
        {
          "indexed": true,
          "internalType": "address",
          "name": "oldWallet",
          "type": "address"
        },
        {
          "indexed": true,
          "internalType": "address",
          "name": "newWallet",
          "type": "address"
        }
      ],
      "name": "TrustedWalletSet",
      "type": "event"
    },
    {
      "anonymous": false,
      "inputs": [
        {
          "indexed": false,
          "internalType": "address",
          "name": "account",
          "type": "address"
        }
      ],
      "name": "Unpaused",
      "type": "event"
    },
    {
      "anonymous": false,
      "inputs": [
        {
          "indexed": true,
          "internalType": "address",
          "name": "user",
          "type": "address"
        },
        {
          "indexed": true,
          "internalType": "address",
          "name": "token",
          "type": "address"
        },
        {
          "indexed": false,
          "internalType": "uint256",
          "name": "amount",
          "type": "uint256"
        },
        {
          "indexed": false,
          "internalType": "uint256",
          "name": "shares",
          "type": "uint256"
        },
        {
          "indexed": false,
          "internalType": "uint256",
          "name": "timestamp",
          "type": "uint256"
        }
      ],
      "name": "Withdrawal",
      "type": "event"
    },
    {
      "stateMutability": "payable",
      "type": "fallback"
    },
    {
      "inputs": [],
      "name": "ADDRESSES_PROVIDER",
      "outputs": [
        {
          "internalType": "contract IPoolAddressesProvider",
          "name": "",
          "type": "address"
        }
      ],
      "stateMutability": "view",
      "type": "function"
    },
    {
      "inputs": [],
      "name": "MAX_BPS",
      "outputs": [
        {
          "internalType": "uint256",
          "name": "",
          "type": "uint256"
        }
      ],
      "stateMutability": "view",
      "type": "function"
    },
    {
      "inputs": [],
      "name": "POOL",
      "outputs": [
        {
          "internalType": "contract IPool",
          "name": "",
          "type": "address"
        }
      ],
      "stateMutability": "view",
      "type": "function"
    },
    {
      "inputs": [],
      "name": "USDC",
      "outputs": [
        {
          "internalType": "address",
          "name": "",
          "type": "address"
        }
      ],
      "stateMutability": "view",
      "type": "function"
    },
    {
      "inputs": [],
      "name": "USDT",
      "outputs": [
        {
          "internalType": "address",
          "name": "",
          "type": "address"
        }
      ],
      "stateMutability": "view",
      "type": "function"
    },
    {
      "inputs": [
        {
          "components": [
            {
              "internalType": "address",
              "name": "tokenA",
              "type": "address"
            },
            {
              "internalType": "address",
              "name": "tokenB",
              "type": "address"
            },
            {
              "internalType": "address",
              "name": "dexRouter1",
              "type": "address"
            },
            {
              "internalType": "address",
              "name": "dexRouter2",
              "type": "address"
            },
            {
              "internalType": "uint256",
              "name": "amountIn",
              "type": "uint256"
            },
            {
              "internalType": "uint256",
              "name": "minProfitBps",
              "type": "uint256"
            },
            {
              "internalType": "bool",
              "name": "reverseDirection",
              "type": "bool"
            },
            {
              "internalType": "uint256",
              "name": "maxSlippage",
              "type": "uint256"
            },
            {
              "internalType": "uint256",
              "name": "deadline",
              "type": "uint256"
            }
          ],
          "internalType": "struct FlashLoanArbitrageComplete.ArbitrageParams",
          "name": "params",
          "type": "tuple"
        },
        {
          "internalType": "uint256",
          "name": "amount",
          "type": "uint256"
        }
      ],
      "name": "_executeSwaps",
      "outputs": [],
      "stateMutability": "nonpayable",
      "type": "function"
    },
    {
      "inputs": [
        {
          "components": [
            {
              "internalType": "address",
              "name": "tokenA",
              "type": "address"
            },
            {
              "internalType": "address",
              "name": "tokenB",
              "type": "address"
            },
            {
              "internalType": "address",
              "name": "dexRouter1",
              "type": "address"
            },
            {
              "internalType": "address",
              "name": "dexRouter2",
              "type": "address"
            },
            {
              "internalType": "uint256",
              "name": "amountIn",
              "type": "uint256"
            },
            {
              "internalType": "uint256",
              "name": "minProfitBps",
              "type": "uint256"
            },
            {
              "internalType": "bool",
              "name": "reverseDirection",
              "type": "bool"
            },
            {
              "internalType": "uint256",
              "name": "maxSlippage",
              "type": "uint256"
            },
            {
              "internalType": "uint256",
              "name": "deadline",
              "type": "uint256"
            }
          ],
          "internalType": "struct FlashLoanArbitrageComplete.ArbitrageParams",
          "name": "params",
          "type": "tuple"
        }
      ],
      "name": "_simulateArbitrage",
      "outputs": [
        {
          "internalType": "uint256",
          "name": "profit",
          "type": "uint256"
        }
      ],
      "stateMutability": "view",
      "type": "function"
    },
    {
      "inputs": [
        {
          "internalType": "address",
          "name": "",
          "type": "address"
        }
      ],
      "name": "authorizedDEXs",
      "outputs": [
        {
          "internalType": "bool",
          "name": "",
          "type": "bool"
        }
      ],
      "stateMutability": "view",
      "type": "function"
    },
    {
      "inputs": [
        {
          "internalType": "address",
          "name": "",
          "type": "address"
        }
      ],
      "name": "authorizedTokens",
      "outputs": [
        {
          "internalType": "bool",
          "name": "",
          "type": "bool"
        }
      ],
      "stateMutability": "view",
      "type": "function"
    },
    {
      "inputs": [
        {
          "components": [
            {
              "internalType": "address",
              "name": "tokenA",
              "type": "address"
            },
            {
              "internalType": "address",
              "name": "tokenB",
              "type": "address"
            },
            {
              "internalType": "address",
              "name": "dexRouter1",
              "type": "address"
            },
            {
              "internalType": "address",
              "name": "dexRouter2",
              "type": "address"
            },
            {
              "internalType": "uint256",
              "name": "amountIn",
              "type": "uint256"
            },
            {
              "internalType": "uint256",
              "name": "minProfitBps",
              "type": "uint256"
            },
            {
              "internalType": "bool",
              "name": "reverseDirection",
              "type": "bool"
            },
            {
              "internalType": "uint256",
              "name": "maxSlippage",
              "type": "uint256"
            },
            {
              "internalType": "uint256",
              "name": "deadline",
              "type": "uint256"
            }
          ],
          "internalType": "struct FlashLoanArbitrageComplete.ArbitrageParams",
          "name": "params",
          "type": "tuple"
        }
      ],
      "name": "calculateExpectedProfit",
      "outputs": [
        {
          "internalType": "uint256",
          "name": "expectedProfit",
          "type": "uint256"
        }
      ],
      "stateMutability": "view",
      "type": "function"
    },
    {
      "inputs": [
        {
          "internalType": "uint256",
          "name": "profit",
          "type": "uint256"
        }
      ],
      "name": "calculateFees",
      "outputs": [
        {
          "internalType": "uint256",
          "name": "platformFee",
          "type": "uint256"
        },
        {
          "internalType": "uint256",
          "name": "trustedWalletFee",
          "type": "uint256"
        },
        {
          "internalType": "uint256",
          "name": "userProfit",
          "type": "uint256"
        }
      ],
      "stateMutability": "view",
      "type": "function"
    },
    {
      "inputs": [
        {
          "internalType": "address",
          "name": "token",
          "type": "address"
        },
        {
          "internalType": "uint256",
          "name": "amount",
          "type": "uint256"
        }
      ],
      "name": "calculateShares",
      "outputs": [
        {
          "internalType": "uint256",
          "name": "shares",
          "type": "uint256"
        }
      ],
      "stateMutability": "view",
      "type": "function"
    },
    {
      "inputs": [
        {
          "internalType": "address",
          "name": "token",
          "type": "address"
        },
        {
          "internalType": "uint256",
          "name": "amount",
          "type": "uint256"
        }
      ],
      "name": "deposit",
      "outputs": [],
      "stateMutability": "nonpayable",
      "type": "function"
    },
    {
      "inputs": [],
      "name": "emergencyStop",
      "outputs": [
        {
          "internalType": "bool",
          "name": "",
          "type": "bool"
        }
      ],
      "stateMutability": "view",
      "type": "function"
    },
    {
      "inputs": [
        {
          "components": [
            {
              "internalType": "address",
              "name": "tokenA",
              "type": "address"
            },
            {
              "internalType": "address",
              "name": "tokenB",
              "type": "address"
            },
            {
              "internalType": "address",
              "name": "dexRouter1",
              "type": "address"
            },
            {
              "internalType": "address",
              "name": "dexRouter2",
              "type": "address"
            },
            {
              "internalType": "uint256",
              "name": "amountIn",
              "type": "uint256"
            },
            {
              "internalType": "uint256",
              "name": "minProfitBps",
              "type": "uint256"
            },
            {
              "internalType": "bool",
              "name": "reverseDirection",
              "type": "bool"
            },
            {
              "internalType": "uint256",
              "name": "maxSlippage",
              "type": "uint256"
            },
            {
              "internalType": "uint256",
              "name": "deadline",
              "type": "uint256"
            }
          ],
          "internalType": "struct FlashLoanArbitrageComplete.ArbitrageParams",
          "name": "params",
          "type": "tuple"
        }
      ],
      "name": "executeArbitrage",
      "outputs": [],
      "stateMutability": "nonpayable",
      "type": "function"
    },
    {
      "inputs": [
        {
          "internalType": "address",
          "name": "asset",
          "type": "address"
        },
        {
          "internalType": "uint256",
          "name": "amount",
          "type": "uint256"
        },
        {
          "internalType": "uint256",
          "name": "premium",
          "type": "uint256"
        },
        {
          "internalType": "address",
          "name": "initiator",
          "type": "address"
        },
        {
          "internalType": "bytes",
          "name": "params",
          "type": "bytes"
        }
      ],
      "name": "executeOperation",
      "outputs": [
        {
          "internalType": "bool",
          "name": "",
          "type": "bool"
        }
      ],
      "stateMutability": "nonpayable",
      "type": "function"
    },
    {
      "inputs": [],
      "name": "getPoolMetrics",
      "outputs": [
        {
          "components": [
            {
              "internalType": "uint256",
              "name": "totalUSDCDeposits",
              "type": "uint256"
            },
            {
              "internalType": "uint256",
              "name": "totalUSDTDeposits",
              "type": "uint256"
            },
            {
              "internalType": "uint256",
              "name": "totalUSDCShares",
              "type": "uint256"
            },
            {
              "internalType": "uint256",
              "name": "totalUSDTShares",
              "type": "uint256"
            },
            {
              "internalType": "uint256",
              "name": "totalProfits",
              "type": "uint256"
            },
            {
              "internalType": "uint256",
              "name": "totalVolume",
              "type": "uint256"
            },
            {
              "internalType": "uint256",
              "name": "successfulTrades",
              "type": "uint256"
            },
            {
              "internalType": "uint256",
              "name": "failedTrades",
              "type": "uint256"
            },
            {
              "internalType": "uint256",
              "name": "lastUpdateTime",
              "type": "uint256"
            }
          ],
          "internalType": "struct FlashLoanArbitrageComplete.PoolMetrics",
          "name": "",
          "type": "tuple"
        }
      ],
      "stateMutability": "view",
      "type": "function"
    },
    {
      "inputs": [],
      "name": "getTokenAddresses",
      "outputs": [
        {
          "internalType": "address",
          "name": "usdcAddress",
          "type": "address"
        },
        {
          "internalType": "address",
          "name": "usdtAddress",
          "type": "address"
        }
      ],
      "stateMutability": "view",
      "type": "function"
    },
    {
      "inputs": [],
      "name": "getTokenInfo",
      "outputs": [
        {
          "internalType": "address",
          "name": "usdcAddress",
          "type": "address"
        },
        {
          "internalType": "string",
          "name": "usdcSymbol",
          "type": "string"
        },
        {
          "internalType": "uint8",
          "name": "usdcDecimals",
          "type": "uint8"
        },
        {
          "internalType": "address",
          "name": "usdtAddress",
          "type": "address"
        },
        {
          "internalType": "string",
          "name": "usdtSymbol",
          "type": "string"
        },
        {
          "internalType": "uint8",
          "name": "usdtDecimals",
          "type": "uint8"
        }
      ],
      "stateMutability": "view",
      "type": "function"
    },
    {
      "inputs": [
        {
          "internalType": "address",
          "name": "user",
          "type": "address"
        }
      ],
      "name": "getUserPosition",
      "outputs": [
        {
          "components": [
            {
              "internalType": "uint256",
              "name": "usdcShares",
              "type": "uint256"
            },
            {
              "internalType": "uint256",
              "name": "usdtShares",
              "type": "uint256"
            },
            {
              "internalType": "uint256",
              "name": "totalDeposited",
              "type": "uint256"
            },
            {
              "internalType": "uint256",
              "name": "totalWithdrawn",
              "type": "uint256"
            },
            {
              "internalType": "uint256",
              "name": "totalProfits",
              "type": "uint256"
            },
            {
              "internalType": "uint256",
              "name": "lastDepositTime",
              "type": "uint256"
            },
            {
              "internalType": "uint256",
              "name": "depositCount",
              "type": "uint256"
            },
            {
              "internalType": "uint256",
              "name": "withdrawalCount",
              "type": "uint256"
            }
          ],
          "internalType": "struct FlashLoanArbitrageComplete.UserPosition",
          "name": "",
          "type": "tuple"
        }
      ],
      "stateMutability": "view",
      "type": "function"
    },
    {
      "inputs": [],
      "name": "lastReportTime",
      "outputs": [
        {
          "internalType": "uint256",
          "name": "",
          "type": "uint256"
        }
      ],
      "stateMutability": "view",
      "type": "function"
    },
    {
      "inputs": [
        {
          "internalType": "address",
          "name": "",
          "type": "address"
        }
      ],
      "name": "maxDepositAmounts",
      "outputs": [
        {
          "internalType": "uint256",
          "name": "",
          "type": "uint256"
        }
      ],
      "stateMutability": "view",
      "type": "function"
    },
    {
      "inputs": [],
      "name": "maxFlashLoanAmount",
      "outputs": [
        {
          "internalType": "uint256",
          "name": "",
          "type": "uint256"
        }
      ],
      "stateMutability": "view",
      "type": "function"
    },
    {
      "inputs": [],
      "name": "minDepositAmount",
      "outputs": [
        {
          "internalType": "uint256",
          "name": "",
          "type": "uint256"
        }
      ],
      "stateMutability": "view",
      "type": "function"
    },
    {
      "inputs": [],
      "name": "owner",
      "outputs": [
        {
          "internalType": "address",
          "name": "",
          "type": "address"
        }
      ],
      "stateMutability": "view",
      "type": "function"
    },
    {
      "inputs": [
        {
          "internalType": "address",
          "name": "token",
          "type": "address"
        },
        {
          "internalType": "uint256",
          "name": "amount",
          "type": "uint256"
        },
        {
          "internalType": "address",
          "name": "to",
          "type": "address"
        }
      ],
      "name": "ownerWithdraw",
      "outputs": [],
      "stateMutability": "nonpayable",
      "type": "function"
    },
    {
      "inputs": [],
      "name": "paused",
      "outputs": [
        {
          "internalType": "bool",
          "name": "",
          "type": "bool"
        }
      ],
      "stateMutability": "view",
      "type": "function"
    },
    {
      "inputs": [],
      "name": "platformFeeBps",
      "outputs": [
        {
          "internalType": "uint256",
          "name": "",
          "type": "uint256"
        }
      ],
      "stateMutability": "view",
      "type": "function"
    },
    {
      "inputs": [],
      "name": "poolMetrics",
      "outputs": [
        {
          "internalType": "uint256",
          "name": "totalUSDCDeposits",
          "type": "uint256"
        },
        {
          "internalType": "uint256",
          "name": "totalUSDTDeposits",
          "type": "uint256"
        },
        {
          "internalType": "uint256",
          "name": "totalUSDCShares",
          "type": "uint256"
        },
        {
          "internalType": "uint256",
          "name": "totalUSDTShares",
          "type": "uint256"
        },
        {
          "internalType": "uint256",
          "name": "totalProfits",
          "type": "uint256"
        },
        {
          "internalType": "uint256",
          "name": "totalVolume",
          "type": "uint256"
        },
        {
          "internalType": "uint256",
          "name": "successfulTrades",
          "type": "uint256"
        },
        {
          "internalType": "uint256",
          "name": "failedTrades",
          "type": "uint256"
        },
        {
          "internalType": "uint256",
          "name": "lastUpdateTime",
          "type": "uint256"
        }
      ],
      "stateMutability": "view",
      "type": "function"
    },
    {
      "inputs": [],
      "name": "renounceOwnership",
      "outputs": [],
      "stateMutability": "nonpayable",
      "type": "function"
    },
    {
      "inputs": [],
      "name": "reportingPeriod",
      "outputs": [
        {
          "internalType": "uint256",
          "name": "",
          "type": "uint256"
        }
      ],
      "stateMutability": "view",
      "type": "function"
    },
    {
      "inputs": [
        {
          "internalType": "address",
          "name": "dex",
          "type": "address"
        },
        {
          "internalType": "bool",
          "name": "authorized",
          "type": "bool"
        }
      ],
      "name": "setDEXAuthorization",
      "outputs": [],
      "stateMutability": "nonpayable",
      "type": "function"
    },
    {
      "inputs": [
        {
          "internalType": "address",
          "name": "_usdc",
          "type": "address"
        },
        {
          "internalType": "address",
          "name": "_usdt",
          "type": "address"
        }
      ],
      "name": "setTokenAddresses",
      "outputs": [],
      "stateMutability": "nonpayable",
      "type": "function"
    },
    {
      "inputs": [
        {
          "internalType": "address",
          "name": "token",
          "type": "address"
        },
        {
          "internalType": "bool",
          "name": "authorized",
          "type": "bool"
        }
      ],
      "name": "setTokenAuthorization",
      "outputs": [],
      "stateMutability": "nonpayable",
      "type": "function"
    },
    {
      "inputs": [
        {
          "internalType": "address",
          "name": "_trustedWallet",
          "type": "address"
        }
      ],
      "name": "setTrustedWallet",
      "outputs": [],
      "stateMutability": "nonpayable",
      "type": "function"
    },
    {
      "inputs": [
        {
          "internalType": "address",
          "name": "_newUSDC",
          "type": "address"
        }
      ],
      "name": "setUSDCAddress",
      "outputs": [],
      "stateMutability": "nonpayable",
      "type": "function"
    },
    {
      "inputs": [
        {
          "internalType": "address",
          "name": "_newUSDT",
          "type": "address"
        }
      ],
      "name": "setUSDTAddress",
      "outputs": [],
      "stateMutability": "nonpayable",
      "type": "function"
    },
    {
      "inputs": [],
      "name": "toggleEmergencyStop",
      "outputs": [],
      "stateMutability": "nonpayable",
      "type": "function"
    },
    {
      "inputs": [
        {
          "internalType": "address",
          "name": "newOwner",
          "type": "address"
        }
      ],
      "name": "transferOwnership",
      "outputs": [],
      "stateMutability": "nonpayable",
      "type": "function"
    },
    {
      "inputs": [],
      "name": "trustedWallet",
      "outputs": [
        {
          "internalType": "address",
          "name": "",
          "type": "address"
        }
      ],
      "stateMutability": "view",
      "type": "function"
    },
    {
      "inputs": [],
      "name": "trustedWalletFeeBps",
      "outputs": [
        {
          "internalType": "uint256",
          "name": "",
          "type": "uint256"
        }
      ],
      "stateMutability": "view",
      "type": "function"
    },
    {
      "inputs": [
        {
          "internalType": "uint256",
          "name": "_platformFeeBps",
          "type": "uint256"
        },
        {
          "internalType": "uint256",
          "name": "_trustedWalletFeeBps",
          "type": "uint256"
        }
      ],
      "name": "updateFees",
      "outputs": [],
      "stateMutability": "nonpayable",
      "type": "function"
    },
    {
      "inputs": [
        {
          "internalType": "address",
          "name": "",
          "type": "address"
        }
      ],
      "name": "userPositions",
      "outputs": [
        {
          "internalType": "uint256",
          "name": "usdcShares",
          "type": "uint256"
        },
        {
          "internalType": "uint256",
          "name": "usdtShares",
          "type": "uint256"
        },
        {
          "internalType": "uint256",
          "name": "totalDeposited",
          "type": "uint256"
        },
        {
          "internalType": "uint256",
          "name": "totalWithdrawn",
          "type": "uint256"
        },
        {
          "internalType": "uint256",
          "name": "totalProfits",
          "type": "uint256"
        },
        {
          "internalType": "uint256",
          "name": "lastDepositTime",
          "type": "uint256"
        },
        {
          "internalType": "uint256",
          "name": "depositCount",
          "type": "uint256"
        },
        {
          "internalType": "uint256",
          "name": "withdrawalCount",
          "type": "uint256"
        }
      ],
      "stateMutability": "view",
      "type": "function"
    },
    {
      "stateMutability": "payable",
      "type": "receive"
    }
  ],
  "bytecode": "0x60c06040526064601255603260135564e8d4a510006014556305f5e1006015556016805460ff19169055620151806018553480156200003d57600080fd5b506040516200480838038062004808833981016040819052620000609162000601565b3384806001600160a01b03166080816001600160a01b031681525050806001600160a01b031663026b1d5f6040518163ffffffff1660e01b8152600401602060405180830381865afa158015620000bb573d6000803e3d6000fd5b505050506040513d601f19601f82011682018060405250810190620000e191906200065e565b6001600160a01b0390811660a052821690506200011957604051631e4fbdf760e01b8152600060048201526024015b60405180910390fd5b620001248162000204565b506001805562000135838362000254565b600880546001600160a01b0319166001600160a01b0392831617905591821660009081526007602090815260408083206509184e72a000908190559390941682529281209190915560069091527f978d8f9aba45731b83e524d3d2bf544910435abe5356da40bb836028ceff84e9805460ff199081166001908117909255731b02da8cb0d097eb8d57a175b88c7d8b479975069092527fbbcbc6333e8968f5bdd4d23c9d401535798304bc40308ca394a8daca4a8e4041805490921617905550426011819055601755620006a8565b600080546001600160a01b038381166001600160a01b0319831681178455604051919092169283917f8be0079c531659141344cd1fd0a4f28419497f9722a3daafe3b4186f6b6457e09190a35050565b6001600160a01b038216620002ac5760405162461bcd60e51b815260206004820152601560248201527f41647265737365205553444320696e76616c6964650000000000000000000000604482015260640162000110565b6001600160a01b038116620003045760405162461bcd60e51b815260206004820152601560248201527f41647265737365205553445420696e76616c6964650000000000000000000000604482015260640162000110565b806001600160a01b0316826001600160a01b031603620003735760405162461bcd60e51b8152602060048201526024808201527f55534443206574205553445420646f6976656e74206574726520646966666572604482015263656e747360e01b606482015260840162000110565b816001600160a01b031663313ce5676040518163ffffffff1660e01b8152600401602060405180830381865afa925050508015620003d0575060408051601f3d908101601f19168201909252620003cd9181019062000683565b60015b6200041e5760405162461bcd60e51b815260206004820152601560248201527f41647265737365205553444320696e76616c6964650000000000000000000000604482015260640162000110565b8060ff16600614620004735760405162461bcd60e51b815260206004820152601b60248201527f5553444320646f69742061766f6972203620646563696d616c65730000000000604482015260640162000110565b50806001600160a01b031663313ce5676040518163ffffffff1660e01b8152600401602060405180830381865afa925050508015620004d1575060408051601f3d908101601f19168201909252620004ce9181019062000683565b60015b6200051f5760405162461bcd60e51b815260206004820152601560248201527f41647265737365205553445420696e76616c6964650000000000000000000000604482015260640162000110565b8060ff16600614620005745760405162461bcd60e51b815260206004820152601b60248201527f5553445420646f69742061766f6972203620646563696d616c65730000000000604482015260640162000110565b5060028054610100600160a81b0319166101006001600160a01b0394851690810291909117909155600380546001600160a01b03191692909316918217909255600091825260056020526040808320805460ff199081166001908117909255928452922080549091169091179055565b80516001600160a01b0381168114620005fc57600080fd5b919050565b600080600080608085870312156200061857600080fd5b6200062385620005e4565b93506200063360208601620005e4565b92506200064360408601620005e4565b91506200065360608601620005e4565b905092959194509250565b6000602082840312156200067157600080fd5b6200067c82620005e4565b9392505050565b6000602082840312156200069657600080fd5b815160ff811681146200067c57600080fd5b60805160a051614125620006e3600039600081816106dc01528181610daf01528181611a770152612de60152600061031401526141256000f3fe6080604052600436106102605760003560e01c80637535d24611610144578063aaf5bfc3116100b6578063e6fc7afe1161007a578063e6fc7afe146108ea578063ebbf06711461090a578063ee8c24b814610920578063f2fde38b14610958578063fcecc4df14610978578063fd967f47146109f357610267565b8063aaf5bfc31461083d578063abb1dc441461085d578063c54e44eb14610884578063c61f01d2146108a4578063e0115d0d146108d457610267565b806396fbdc431161010857806396fbdc43146107815780639bc7c586146107a15780639c747c85146107d1578063a140edb4146107f1578063a89c8c5e14610807578063a90b538e1461082757610267565b80637535d246146106ca578063804f7b6f146106fe57806389a302711461071e57806389a56b2f146107435780638da5cb5b1461076357610267565b8063570d2f8f116101dd57806363a599a4116101a157806363a599a414610618578063645006ca146106325780636db7943714610648578063715018a6146106685780637416b8e71461067d57806374b3371f146106aa57610267565b8063570d2f8f146104a65780635b7c2dad146104c65780635c975abb14610547578063613cf4201461055f5780636275aff8146105f857610267565b806322dcd13e1161022457806322dcd13e1461040057806347e7ef24146104165780634b7aac941461043657806352238fdd1461044b57806355eba8681461048657610267565b8063023639be146102ad578063044edc3c146102e05780630542975c146103025780631866509f1461034e5780631b11d0ff146103d057610267565b3661026757005b60405162461bcd60e51b8152602060048201526016602482015275466f6e6374696f6e206e6f6e20737570706f7274656560501b60448201526064015b60405180910390fd5b3480156102b957600080fd5b506102cd6102c836600461358a565b610a09565b6040519081526020015b60405180910390f35b3480156102ec57600080fd5b506103006102fb3660046135b4565b610a7f565b005b34801561030e57600080fd5b506103367f000000000000000000000000000000000000000000000000000000000000000081565b6040516001600160a01b0390911681526020016102d7565b34801561035a57600080fd5b50610363610cfc565b6040516102d79190600061012082019050825182526020830151602083015260408301516040830152606083015160608301526080830151608083015260a083015160a083015260c083015160c083015260e083015160e083015261010080840151818401525092915050565b3480156103dc57600080fd5b506103f06103eb3660046135f0565b610da2565b60405190151581526020016102d7565b34801561040c57600080fd5b506102cd60125481565b34801561042257600080fd5b50610300610431366004613696565b610f0a565b34801561044257600080fd5b506103006113bb565b34801561045757600080fd5b5061046b6104663660046136c0565b6113f0565b604080519384526020840192909252908201526060016102d7565b34801561049257600080fd5b506103006104a13660046136d9565b61144c565b3480156104b257600080fd5b50600854610336906001600160a01b031681565b3480156104d257600080fd5b506104e66104e13660046136d9565b611651565b6040516102d79190600061010082019050825182526020830151602083015260408301516040830152606083015160608301526080830151608083015260a083015160a083015260c083015160c083015260e083015160e083015292915050565b34801561055357600080fd5b5060025460ff166103f0565b34801561056b57600080fd5b506105bd61057a3660046136d9565b6004602081905260009182526040909120805460018201546002830154600384015494840154600585015460068601546007909601549496939592949192909188565b604080519889526020890197909752958701949094526060860192909252608085015260a084015260c083015260e0820152610100016102d7565b34801561060457600080fd5b5061030061061336600461358a565b61170f565b34801561062457600080fd5b506016546103f09060ff1681565b34801561063e57600080fd5b506102cd60155481565b34801561065457600080fd5b506103006106633660046136fb565b611b16565b34801561067457600080fd5b50610300611bb8565b34801561068957600080fd5b506102cd6106983660046136d9565b60076020526000908152604090205481565b3480156106b657600080fd5b506102cd6106c536600461358a565b611bca565b3480156106d657600080fd5b506103367f000000000000000000000000000000000000000000000000000000000000000081565b34801561070a57600080fd5b50610300610719366004613736565b612147565b34801561072a57600080fd5b506002546103369061010090046001600160a01b031681565b34801561074f57600080fd5b5061030061075e3660046136d9565b61217a565b34801561076f57600080fd5b506000546001600160a01b0316610336565b34801561078d57600080fd5b5061030061079c366004613736565b61221d565b3480156107ad57600080fd5b506103f06107bc3660046136d9565b60056020526000908152604090205460ff1681565b3480156107dd57600080fd5b506103006107ec36600461389d565b612250565b3480156107fd57600080fd5b506102cd60145481565b34801561081357600080fd5b506103006108223660046138ca565b61233a565b34801561083357600080fd5b506102cd60185481565b34801561084957600080fd5b506103006108583660046136d9565b61239d565b34801561086957600080fd5b50610872612572565b6040516102d79695949392919061394d565b34801561089057600080fd5b50600354610336906001600160a01b031681565b3480156108b057600080fd5b506103f06108bf3660046136d9565b60066020526000908152604090205460ff1681565b3480156108e057600080fd5b506102cd60175481565b3480156108f657600080fd5b506102cd610905366004613696565b612782565b34801561091657600080fd5b506102cd60135481565b34801561092c57600080fd5b50600254600354604080516101009093046001600160a01b0390811684529091166020830152016102d7565b34801561096457600080fd5b506103006109733660046136d9565b612846565b34801561098457600080fd5b50600954600a54600b54600c54600d54600e54600f546010546011546109af98979695949392919089565b60408051998a5260208a0198909852968801959095526060870193909352608086019190915260a085015260c084015260e0830152610100820152610120016102d7565b3480156109ff57600080fd5b506102cd61271081565b6040516374b3371f60e01b815260009030906374b3371f90610a2f9085906004016139aa565b602060405180830381865afa925050508015610a68575060408051601f3d908101601f19168201909252610a6591810190613a51565b60015b610a7457506000919050565b92915050565b919050565b610a87612881565b8160008111610acb5760405162461bcd60e51b815260206004820152601060248201526f4d6f6e74616e7420696e76616c69646560801b60448201526064016102a4565b6001600160a01b038216610b145760405162461bcd60e51b815260206004820152601060248201526f4164726573736520696e76616c69646560801b60448201526064016102a4565b6040516370a0823160e01b81523060048201526000906001600160a01b038616906370a0823190602401602060405180830381865afa158015610b5b573d6000803e3d6000fd5b505050506040513d601f19601f82011682018060405250810190610b7f9190613a51565b905080841115610bc55760405162461bcd60e51b815260206004820152601160248201527014dbdb1919481a5b9cdd59999a5cd85b9d607a1b60448201526064016102a4565b60405163a9059cbb60e01b81526001600160a01b0384811660048301526024820186905286169063a9059cbb906044016020604051808303816000875af1158015610c14573d6000803e3d6000fd5b505050506040513d601f19601f82011682018060405250810190610c389190613a6a565b610c775760405162461bcd60e51b815260206004820152601060248201526f5472616e7366657274206563686f756560801b60448201526064016102a4565b826001600160a01b0316856001600160a01b03167ff15709e6648c1e4bca994535d6d1bd2a88cd17ed5bcd5a187b2ad634720c75648642604051610ced9291909182526060602083018190526010908301526f13dddb995c881dda5d1a191c985dd85b60821b6080830152604082015260a00190565b60405180910390a35050505050565b610d4b6040518061012001604052806000815260200160008152602001600081526020016000815260200160008152602001600081526020016000815260200160008152602001600081525090565b5060408051610120810182526009548152600a546020820152600b5491810191909152600c546060820152600d546080820152600e5460a0820152600f5460c082015260105460e082015260115461010082015290565b6000336001600160a01b037f00000000000000000000000000000000000000000000000000000000000000001614610e145760405162461bcd60e51b8152602060048201526015602482015274417070656c616e74206e6f6e206175746f7269736560581b60448201526064016102a4565b6001600160a01b0384163014610e6c5760405162461bcd60e51b815260206004820152601760248201527f496e6974696174657572206e6f6e206175746f7269736500000000000000000060448201526064016102a4565b60005a90506000610e7f84860186613b78565b90506000610e9182600001518a6128ae565b9050610ea58a8a8a84866020015188612ab7565b602080830151604080518c81529283018b905242908301526001600160a01b0390811691908c16907f186b20b8e4dd95aa0c31ca25f084a84c19a2ea03c593bc299b023784d389ba9d9060600160405180910390a35060019998505050505050505050565b610f12612f29565b610f1a612f53565b60165460ff1615610f635760405162461bcd60e51b81526020600482015260136024820152724d6f646520757267656e63652061637469766560681b60448201526064016102a4565b6001600160a01b038216600090815260056020526040902054829060ff16610fc25760405162461bcd60e51b8152602060048201526012602482015271546f6b656e206e6f6e206175746f7269736560701b60448201526064016102a4565b81600081116110065760405162461bcd60e51b815260206004820152601060248201526f4d6f6e74616e7420696e76616c69646560801b60448201526064016102a4565b6015548310156110585760405162461bcd60e51b815260206004820152601c60248201527f4d6f6e74616e7420696e66657269657572206175206d696e696d756d0000000060448201526064016102a4565b6001600160a01b0384166000908152600760205260409020548311156110c05760405162461bcd60e51b815260206004820152601c60248201527f4d6f6e74616e7420737570657269657572206175206d6178696d756d0000000060448201526064016102a4565b6000846001600160a01b031663313ce5676040518163ffffffff1660e01b8152600401602060405180830381865afa158015611100573d6000803e3d6000fd5b505050506040513d601f19601f820116820180604052508101906111249190613c46565b90508060ff166006146111795760405162461bcd60e51b815260206004820152601c60248201527f546f6b656e20646f69742061766f6972203620646563696d616c65730000000060448201526064016102a4565b6040516323b872dd60e01b8152336004820152306024820152604481018590526001600160a01b038616906323b872dd906064016020604051808303816000875af11580156111cc573d6000803e3d6000fd5b505050506040513d601f19601f820116820180604052508101906111f09190613a6a565b61122f5760405162461bcd60e51b815260206004820152601060248201526f5472616e7366657274206563686f756560801b60448201526064016102a4565b600061123b8686612782565b3360009081526004602052604090206002549192509061010090046001600160a01b03908116908816036112bc578181600001600082825461127d9190613c7f565b909155505060098054879190600090611297908490613c7f565b9091555050600b80548391906000906112b1908490613c7f565b909155506113209050565b6003546001600160a01b039081169088160361132057818160010160008282546112e69190613c7f565b9091555050600a8054879190600090611300908490613c7f565b9091555050600c805483919060009061131a908490613c7f565b90915550505b858160020160008282546113349190613c7f565b909155505042600582015560068101805490600061135183613c92565b9091555050426011819055604080518881526020810185905280820192909252516001600160a01b0389169133917f4e2ca0515ed1aef1395f66b5303bb5d6f1bf9d61a353fa53f73f8ac9973fa9f69181900360600190a350505050506113b760018055565b5050565b6113c3612881565b6016805460ff19811660ff9182161590811790925516156113e8576113e6612f77565b565b6113e6612fd1565b6000806000612710601254856114069190613cab565b6114109190613cc2565b9250612710601354856114239190613cab565b61142d9190613cc2565b91508161143a8486613ce4565b6114449190613ce4565b929491935050565b611454612881565b6003546001600160a01b039081169082166114815760405162461bcd60e51b81526004016102a490613cf7565b806001600160a01b0316826001600160a01b0316036114d65760405162461bcd60e51b815260206004820152601160248201527013595b594818591c995cdcd9481554d115607a1b60448201526064016102a4565b816001600160a01b031663313ce5676040518163ffffffff1660e01b8152600401602060405180830381865afa925050508015611530575060408051601f3d908101601f1916820190925261152d91810190613c46565b60015b61154c5760405162461bcd60e51b81526004016102a490613cf7565b8060ff1660061461159f5760405162461bcd60e51b815260206004820152601b60248201527f5553445420646f69742061766f6972203620646563696d616c6573000000000060448201526064016102a4565b506001600160a01b038181166000818152600560209081526040808320805460ff19908116909155600380546001600160a01b031916968916968717905585845281842080549091166001179055838352600790915280822054848352918190209190915551631554d11560e21b81526004015b604051908190038120428252907fdcca2a9534fe9277ce93549b01f82e69772ac4c962390af654d37663cd4dae1b9060200160405180910390a45050565b61169960405180610100016040528060008152602001600081526020016000815260200160008152602001600081526020016000815260200160008152602001600081525090565b506001600160a01b03166000908152600460208181526040928390208351610100810185528154815260018201549281019290925260028101549382019390935260038301546060820152908201546080820152600582015460a0820152600682015460c082015260079091015460e082015290565b611717612f29565b61171f612f53565b60165460ff16156117685760405162461bcd60e51b81526020600482015260136024820152724d6f646520757267656e63652061637469766560681b60448201526064016102a4565b61177560208201826136d9565b6001600160a01b03811660009081526005602052604090205460ff166117d25760405162461bcd60e51b8152602060048201526012602482015271546f6b656e206e6f6e206175746f7269736560701b60448201526064016102a4565b6117e260608301604084016136d9565b6001600160a01b03811660009081526006602052604090205460ff1661183d5760405162461bcd60e51b815260206004820152601060248201526f444558206e6f6e206175746f7269736560801b60448201526064016102a4565b61184d60808401606085016136d9565b6001600160a01b03811660009081526006602052604090205460ff166118a85760405162461bcd60e51b815260206004820152601060248201526f444558206e6f6e206175746f7269736560801b60448201526064016102a4565b601454846080013511156118f35760405162461bcd60e51b81526020600482015260126024820152714d6f6e74616e742074726f7020656c65766560701b60448201526064016102a4565b600a8460a0013510156119485760405162461bcd60e51b815260206004820152601a60248201527f50726f666974206d696e696d756d2074726f7020666169626c6500000000000060448201526064016102a4565b428461010001351161198f5760405162461bcd60e51b815260206004820152601060248201526f446561646c696e65206578706972656560801b60448201526064016102a4565b600061199a85610a09565b9050600081116119ec5760405162461bcd60e51b815260206004820152601860248201527f417262697472616765206e6f6e2070726f66697461626c65000000000000000060448201526064016102a4565b60006040518060c0016040528087803603810190611a0a9190613d26565b81523360208083019190915260408083018690526000606084018190528151818152808401835260808501528151818152808401835260a090940193909352519293509091611a5b91849101613dfa565b60408051601f1981840301815291905290506001600160a01b037f0000000000000000000000000000000000000000000000000000000000000000166342b0b77c30611aaa60208b018b6136d9565b8a608001358560006040518663ffffffff1660e01b8152600401611ad2959493929190613ea5565b600060405180830381600087803b158015611aec57600080fd5b505af1158015611b00573d6000803e3d6000fd5b50505050505050505050611b1360018055565b50565b611b1e612881565b6103e8611b2b8284613c7f565b1115611b6d5760405162461bcd60e51b815260206004820152601160248201527046726169732074726f7020656c6576657360781b60448201526064016102a4565b6012805490839055601382905560408051828152602081018590527fd347e206f25a89b917fc9482f1a2d294d749baa4dc9bde7fb495ee11fe491643910160405180910390a1505050565b611bc0612881565b6113e6600061300a565b60408051600280825260608201835260009283929190602083019080368337019050509050611bff60e0840160c08501613eee565b611ea457611c1060208401846136d9565b81600081518110611c2357611c23613f0b565b6001600160a01b03909216602092830291909101820152611c4a90604085019085016136d9565b81600181518110611c5d57611c5d613f0b565b6001600160a01b03909216602092830291909101909101526000611c8760608501604086016136d9565b6001600160a01b031663d06ca61f8560800135846040518363ffffffff1660e01b8152600401611cb8929190613f21565b600060405180830381865afa158015611cd5573d6000803e3d6000fd5b505050506040513d6000823e601f3d908101601f19168201604052611cfd9190810190613f42565b90506000612710611d1260e087013582613ce4565b83600181518110611d2557611d25613f0b565b6020026020010151611d379190613cab565b611d419190613cc2565b9050611d5360408601602087016136d9565b83600081518110611d6657611d66613f0b565b6001600160a01b03909216602092830291909101820152611d89908601866136d9565b83600181518110611d9c57611d9c613f0b565b6001600160a01b03909216602092830291909101909101526000611dc660808701606088016136d9565b6001600160a01b031663d06ca61f83866040518363ffffffff1660e01b8152600401611df3929190613f21565b600060405180830381865afa158015611e10573d6000803e3d6000fd5b505050506040513d6000823e601f3d908101601f19168201604052611e389190810190613f42565b90506000612710611e4d60e089013582613ce4565b83600181518110611e6057611e60613f0b565b6020026020010151611e729190613cab565b611e7c9190613cc2565b90508660800135811115611e9b57611e98608088013582613ce4565b95505b50505050612141565b611eb160208401846136d9565b81600081518110611ec457611ec4613f0b565b6001600160a01b03909216602092830291909101820152611eeb90604085019085016136d9565b81600181518110611efe57611efe613f0b565b6001600160a01b03909216602092830291909101909101526000611f2860808501606086016136d9565b6001600160a01b031663d06ca61f8560800135846040518363ffffffff1660e01b8152600401611f59929190613f21565b600060405180830381865afa158015611f76573d6000803e3d6000fd5b505050506040513d6000823e601f3d908101601f19168201604052611f9e9190810190613f42565b90506000612710611fb360e087013582613ce4565b83600181518110611fc657611fc6613f0b565b6020026020010151611fd89190613cab565b611fe29190613cc2565b9050611ff460408601602087016136d9565b8360008151811061200757612007613f0b565b6001600160a01b0390921660209283029190910182015261202a908601866136d9565b8360018151811061203d5761203d613f0b565b6001600160a01b0390921660209283029190910190910152600061206760608701604088016136d9565b6001600160a01b031663d06ca61f83866040518363ffffffff1660e01b8152600401612094929190613f21565b600060405180830381865afa1580156120b1573d6000803e3d6000fd5b505050506040513d6000823e601f3d908101601f191682016040526120d99190810190613f42565b905060006127106120ee60e089013582613ce4565b8360018151811061210157612101613f0b565b60200260200101516121139190613cab565b61211d9190613cc2565b9050866080013581111561213c57612139608088013582613ce4565b95505b505050505b50919050565b61214f612881565b6001600160a01b03919091166000908152600560205260409020805460ff1916911515919091179055565b612182612881565b6001600160a01b0381166121cb5760405162461bcd60e51b815260206004820152601060248201526f4164726573736520696e76616c69646560801b60448201526064016102a4565b600880546001600160a01b038381166001600160a01b0319831681179093556040519116919082907f823d6745ed2e150ff1aeadf0bd2e0f9be0df856118e01fdfe1259434e97bf4f390600090a35050565b612225612881565b6001600160a01b03919091166000908152600660205260409020805460ff1916911515919091179055565b3330146122975760405162461bcd60e51b8152602060048201526015602482015274417070656c616e74206e6f6e206175746f7269736560581b60448201526064016102a4565b8160c001516122f05760006122c5836040015184600001518560200151858760e0015188610100015161305a565b90506122ea836060015184602001518560000151848760e0015188610100015161305a565b50505050565b6000612315836060015184600001518560200151858760e0015188610100015161305a565b90506122ea836040015184602001518560000151848760e0015188610100015161305a565b612342612881565b61234c82826132ab565b806001600160a01b0316826001600160a01b03167f9a70a7a1b8d64aff3b823b6a0e4f0eadf59d1cb9e8480f4a7fb8ca5343e197104260405161239191815260200190565b60405180910390a35050565b6123a5612881565b6002546001600160a01b0361010090910481169082166123d75760405162461bcd60e51b81526004016102a490613fd3565b806001600160a01b0316826001600160a01b03160361242c5760405162461bcd60e51b81526020600482015260116024820152704d656d652061647265737365205553444360781b60448201526064016102a4565b816001600160a01b031663313ce5676040518163ffffffff1660e01b8152600401602060405180830381865afa925050508015612486575060408051601f3d908101601f1916820190925261248391810190613c46565b60015b6124a25760405162461bcd60e51b81526004016102a490613fd3565b8060ff166006146124f55760405162461bcd60e51b815260206004820152601b60248201527f5553444320646f69742061766f6972203620646563696d616c6573000000000060448201526064016102a4565b506001600160a01b038181166000818152600560209081526040808320805460ff1990811690915560028054610100600160a81b031916610100978a1697880217905585845281842080549091166001179055838352600790915280822054848352918190209190915551635553444360e01b8152600401611613565b6000606060008060606000600260019054906101000a90046001600160a01b0316600260019054906101000a90046001600160a01b03166001600160a01b03166395d89b416040518163ffffffff1660e01b8152600401600060405180830381865afa1580156125e6573d6000803e3d6000fd5b505050506040513d6000823e601f3d908101601f1916820160405261260e9190810190614002565b600260019054906101000a90046001600160a01b03166001600160a01b031663313ce5676040518163ffffffff1660e01b8152600401602060405180830381865afa158015612661573d6000803e3d6000fd5b505050506040513d601f19601f820116820180604052508101906126859190613c46565b600354604080516395d89b4160e01b815290516001600160a01b039092169182916395d89b419160048083019260009291908290030181865afa1580156126d0573d6000803e3d6000fd5b505050506040513d6000823e601f3d908101601f191682016040526126f89190810190614002565b600360009054906101000a90046001600160a01b03166001600160a01b031663313ce5676040518163ffffffff1660e01b8152600401602060405180830381865afa15801561274b573d6000803e3d6000fd5b505050506040513d601f19601f8201168201806040525081019061276f9190613c46565b949b939a50919850965094509092509050565b6002546000906001600160a01b036101009091048116908416036127d257600b546000036127b1575080610a74565b600954600b546127c19084613cab565b6127cb9190613cc2565b9050610a74565b6003546001600160a01b039081169084160361280957600c546000036127f9575080610a74565b600a54600c546127c19084613cab565b60405162461bcd60e51b8152602060048201526012602482015271546f6b656e206e6f6e20737570706f72746560701b60448201526064016102a4565b61284e612881565b6001600160a01b03811661287857604051631e4fbdf760e01b8152600060048201526024016102a4565b611b138161300a565b6000546001600160a01b031633146113e65760405163118cdaa760e01b81523360048201526024016102a4565b81516040516370a0823160e01b815230600482015260009182916001600160a01b03909116906370a0823190602401602060405180830381865afa1580156128fa573d6000803e3d6000fd5b505050506040513d601f19601f8201168201806040525081019061291e9190613a51565b604051639c747c8560e01b81529091503090639c747c85906129469087908790600401614096565b600060405180830381600087803b15801561296057600080fd5b505af1925050508015612971575060015b6129c5576010805490600061298583613c92565b909155505060405162461bcd60e51b815260206004820152601060248201526f417262697472616765206563686f756560801b60448201526064016102a4565b83516040516370a0823160e01b81523060048201526000916001600160a01b0316906370a0823190602401602060405180830381865afa158015612a0d573d6000803e3d6000fd5b505050506040513d601f19601f82011682018060405250810190612a319190613a51565b905081811115612aaf57612a458282613ce4565b925060006127108660a0015186612a5c9190613cab565b612a669190613cc2565b905080841015612aad5760405162461bcd60e51b8152602060048201526012602482015271141c9bd99a5d081a5b9cdd59999a5cd85b9d60721b60448201526064016102a4565b505b505092915050565b60005a612ac49083613ce4565b9050600061271060125486612ad99190613cab565b612ae39190613cc2565b9050600061271060135487612af89190613cab565b612b029190613cc2565b9050600081612b118489613ce4565b612b1b9190613ce4565b90506000612b29898b613c7f565b6040516370a0823160e01b815230600482015290915081906001600160a01b038d16906370a0823190602401602060405180830381865afa158015612b72573d6000803e3d6000fd5b505050506040513d601f19601f82011682018060405250810190612b969190613a51565b1015612bf25760405162461bcd60e51b815260206004820152602560248201527f466f6e647320696e737566666973616e747320706f75722072656d626f757273604482015264195b595b9d60da1b60648201526084016102a4565b8115612c9d5760405163a9059cbb60e01b81526001600160a01b038881166004830152602482018490528c169063a9059cbb906044016020604051808303816000875af1158015612c47573d6000803e3d6000fd5b505050506040513d601f19601f82011682018060405250810190612c6b9190613a6a565b506001600160a01b03871660009081526004602081905260408220018054849290612c97908490613c7f565b90915550505b8315612d37578a6001600160a01b031663a9059cbb612cc46000546001600160a01b031690565b6040516001600160e01b031960e084901b1681526001600160a01b039091166004820152602481018790526044016020604051808303816000875af1158015612d11573d6000803e3d6000fd5b505050506040513d601f19601f82011682018060405250810190612d359190613a6a565b505b600083118015612d5157506008546001600160a01b031615155b15612dcf5760085460405163a9059cbb60e01b81526001600160a01b03918216600482015260248101859052908c169063a9059cbb906044016020604051808303816000875af1158015612da9573d6000803e3d6000fd5b505050506040513d601f19601f82011682018060405250810190612dcd9190613a6a565b505b60405163095ea7b360e01b81526001600160a01b037f000000000000000000000000000000000000000000000000000000000000000081166004830152602482018390528c169063095ea7b3906044016020604051808303816000875af1158015612e3e573d6000803e3d6000fd5b505050506040513d601f19601f82011682018060405250810190612e629190613a6a565b508760096004016000828254612e789190613c7f565b9091555050600e80548b9190600090612e92908490613c7f565b9091555050600f8054906000612ea783613c92565b9091555050426011556001600160a01b03808c169088167fb676027c562ed2163771f91bcfee631c90608250147f574f5c86a6fc489aeada8c8b86612eec898b613c7f565b604080519485526020850193909352918301526060820152608081018990524260a082015260c00160405180910390a35050505050505050505050565b600260015403612f4c57604051633ee5aeb560e01b815260040160405180910390fd5b6002600155565b60025460ff16156113e65760405163d93c066560e01b815260040160405180910390fd5b612f7f612f53565b6002805460ff191660011790557f62e78cea01bee320cd4e420270b5ea74000d11b0c9f74754ebdbfc544b05a258612fb43390565b6040516001600160a01b03909116815260200160405180910390a1565b612fd9613567565b6002805460ff191690557f5db9ee0a495bf2e6ff9c91a7834c1ba4fdd244a5e8aa4e537bd38aeae4b073aa33612fb4565b600080546001600160a01b038381166001600160a01b0319831681178455604051919092169283917f8be0079c531659141344cd1fd0a4f28419497f9722a3daafe3b4186f6b6457e09190a35050565b60405163095ea7b360e01b81526001600160a01b038781166004830152602482018590526000919087169063095ea7b3906044016020604051808303816000875af11580156130ad573d6000803e3d6000fd5b505050506040513d601f19601f820116820180604052508101906130d19190613a6a565b50604080516002808252606082018352600092602083019080368337019050509050868160008151811061310757613107613f0b565b60200260200101906001600160a01b031690816001600160a01b031681525050858160018151811061313b5761313b613f0b565b6001600160a01b03928316602091820292909201015260405163d06ca61f60e01b81526000918a169063d06ca61f9061317a9089908690600401613f21565b600060405180830381865afa158015613197573d6000803e3d6000fd5b505050506040513d6000823e601f3d908101601f191682016040526131bf9190810190613f42565b905060006127106131d08782613ce4565b836001815181106131e3576131e3613f0b565b60200260200101516131f59190613cab565b6131ff9190613cc2565b905060008a6001600160a01b03166338ed1739898487308b6040518663ffffffff1660e01b81526004016132379594939291906140b3565b6000604051808303816000875af1158015613256573d6000803e3d6000fd5b505050506040513d6000823e601f3d908101601f1916820160405261327e9190810190613f42565b90508060018151811061329357613293613f0b565b60200260200101519450505050509695505050505050565b6001600160a01b0382166132d15760405162461bcd60e51b81526004016102a490613fd3565b6001600160a01b0381166132f75760405162461bcd60e51b81526004016102a490613cf7565b806001600160a01b0316826001600160a01b0316036133645760405162461bcd60e51b8152602060048201526024808201527f55534443206574205553445420646f6976656e74206574726520646966666572604482015263656e747360e01b60648201526084016102a4565b816001600160a01b031663313ce5676040518163ffffffff1660e01b8152600401602060405180830381865afa9250505080156133be575060408051601f3d908101601f191682019092526133bb91810190613c46565b60015b6133da5760405162461bcd60e51b81526004016102a490613fd3565b8060ff1660061461342d5760405162461bcd60e51b815260206004820152601b60248201527f5553444320646f69742061766f6972203620646563696d616c6573000000000060448201526064016102a4565b50806001600160a01b031663313ce5676040518163ffffffff1660e01b8152600401602060405180830381865afa925050508015613488575060408051601f3d908101601f1916820190925261348591810190613c46565b60015b6134a45760405162461bcd60e51b81526004016102a490613cf7565b8060ff166006146134f75760405162461bcd60e51b815260206004820152601b60248201527f5553445420646f69742061766f6972203620646563696d616c6573000000000060448201526064016102a4565b5060028054610100600160a81b0319166101006001600160a01b0394851690810291909117909155600380546001600160a01b03191692909316918217909255600091825260056020526040808320805460ff199081166001908117909255928452922080549091169091179055565b60025460ff166113e657604051638dfc202b60e01b815260040160405180910390fd5b6000610120828403121561214157600080fd5b80356001600160a01b0381168114610a7a57600080fd5b6000806000606084860312156135c957600080fd5b6135d28461359d565b9250602084013591506135e76040850161359d565b90509250925092565b60008060008060008060a0878903121561360957600080fd5b6136128761359d565b9550602087013594506040870135935061362e6060880161359d565b9250608087013567ffffffffffffffff8082111561364b57600080fd5b818901915089601f83011261365f57600080fd5b81358181111561366e57600080fd5b8a602082850101111561368057600080fd5b6020830194508093505050509295509295509295565b600080604083850312156136a957600080fd5b6136b28361359d565b946020939093013593505050565b6000602082840312156136d257600080fd5b5035919050565b6000602082840312156136eb57600080fd5b6136f48261359d565b9392505050565b6000806040838503121561370e57600080fd5b50508035926020909101359150565b8015158114611b1357600080fd5b8035610a7a8161371d565b6000806040838503121561374957600080fd5b6137528361359d565b915060208301356137628161371d565b809150509250929050565b634e487b7160e01b600052604160045260246000fd5b604051610120810167ffffffffffffffff811182821017156137a7576137a761376d565b60405290565b60405160c0810167ffffffffffffffff811182821017156137a7576137a761376d565b604051601f8201601f1916810167ffffffffffffffff811182821017156137f9576137f961376d565b604052919050565b6000610120828403121561381457600080fd5b61381c613783565b90506138278261359d565b81526138356020830161359d565b60208201526138466040830161359d565b60408201526138576060830161359d565b60608201526080820135608082015260a082013560a082015261387c60c0830161372b565b60c082015260e082013560e082015261010080830135818301525092915050565b60008061014083850312156138b157600080fd5b6138bb8484613801565b94610120939093013593505050565b600080604083850312156138dd57600080fd5b6138e68361359d565b91506138f46020840161359d565b90509250929050565b60005b83811015613918578181015183820152602001613900565b50506000910152565b600081518084526139398160208601602086016138fd565b601f01601f19169290920160200192915050565b600060018060a01b03808916835260c0602084015261396f60c0840189613921565b60ff88166040850152818716606085015283810360808501526139928187613921565b9250505060ff831660a0830152979650505050505050565b61012081016001600160a01b03806139c18561359d565b168352806139d16020860161359d565b166020840152506139e46040840161359d565b6001600160a01b031660408301526139fe6060840161359d565b6001600160a01b0381166060840152506080830135608083015260a083013560a0830152613a2e60c0840161372b565b151560c083015260e0838101359083015261010092830135929091019190915290565b600060208284031215613a6357600080fd5b5051919050565b600060208284031215613a7c57600080fd5b81516136f48161371d565b600067ffffffffffffffff821115613aa157613aa161376d565b5060051b60200190565b600082601f830112613abc57600080fd5b81356020613ad1613acc83613a87565b6137d0565b82815260059290921b84018101918181019086841115613af057600080fd5b8286015b84811015613b1257613b058161359d565b8352918301918301613af4565b509695505050505050565b600082601f830112613b2e57600080fd5b81356020613b3e613acc83613a87565b82815260059290921b84018101918181019086841115613b5d57600080fd5b8286015b84811015613b125780358352918301918301613b61565b600060208284031215613b8a57600080fd5b813567ffffffffffffffff80821115613ba257600080fd5b908301906101c08286031215613bb757600080fd5b613bbf6137ad565b613bc98684613801565b8152613bd8610120840161359d565b60208201526101408301356040820152610160830135606082015261018083013582811115613c0657600080fd5b613c1287828601613aab565b6080830152506101a083013582811115613c2b57600080fd5b613c3787828601613b1d565b60a08301525095945050505050565b600060208284031215613c5857600080fd5b815160ff811681146136f457600080fd5b634e487b7160e01b600052601160045260246000fd5b80820180821115610a7457610a74613c69565b600060018201613ca457613ca4613c69565b5060010190565b8082028115828204841417610a7457610a74613c69565b600082613cdf57634e487b7160e01b600052601260045260246000fd5b500490565b81810381811115610a7457610a74613c69565b60208082526015908201527441647265737365205553445420696e76616c69646560581b604082015260600190565b60006101208284031215613d3957600080fd5b6136f48383613801565b80516001600160a01b03908116835260208083015182169084015260408083015182169084015260608083015191821690840152506080810151608083015260a081015160a083015260c0810151613d9f60c084018215159052565b5060e0818101519083015261010090810151910152565b600081518084526020808501945080840160005b83811015613def5781516001600160a01b031687529582019590820190600101613dca565b509495945050505050565b60006020808352613e0e8184018551613d43565b838101516001600160a01b03166101408401526040840151610160840152606084015161018084015260808401516101c06101a08501819052613e556101e0860183613db6565b60a0870151868203601f190192870192909252815180825291840192508301906000905b80821015613e995783518352928401929184019160019190910190613e79565b50909695505050505050565b6001600160a01b038681168252851660208201526040810184905260a060608201819052600090613ed890830185613921565b905061ffff831660808301529695505050505050565b600060208284031215613f0057600080fd5b81356136f48161371d565b634e487b7160e01b600052603260045260246000fd5b828152604060208201526000613f3a6040830184613db6565b949350505050565b60006020808385031215613f5557600080fd5b825167ffffffffffffffff811115613f6c57600080fd5b8301601f81018513613f7d57600080fd5b8051613f8b613acc82613a87565b81815260059190911b82018301908381019087831115613faa57600080fd5b928401925b82841015613fc857835182529284019290840190613faf565b979650505050505050565b60208082526015908201527441647265737365205553444320696e76616c69646560581b604082015260600190565b60006020828403121561401457600080fd5b815167ffffffffffffffff8082111561402c57600080fd5b818401915084601f83011261404057600080fd5b8151818111156140525761405261376d565b614065601f8201601f19166020016137d0565b915080825285602082850101111561407c57600080fd5b61408d8160208401602086016138fd565b50949350505050565b61014081016140a58285613d43565b826101208301529392505050565b85815284602082015260a0604082015260006140d260a0830186613db6565b6001600160a01b039490941660608301525060800152939250505056fea2646970667358221220c6788011bf313f91b971b57241af40bda928ad331213f8921abdb867e7fb38dc64736f6c63430008140033",
  "linkReferences": {},
  "deployedLinkReferences": {}
}